{
	"data": {
		"bytecode": {
			"linkReferences": {},
			"object": "60a060405234801561000f575f80fd5b5060405161324e38038061324e833981810160405281019061003191906102eb565b33805f838073ffffffffffffffffffffffffffffffffffffffff1660808173ffffffffffffffffffffffffffffffffffffffff1681525050505f73ffffffffffffffffffffffffffffffffffffffff168273ffffffffffffffffffffffffffffffffffffffff16036100d8576040517f08c379a00000000000000000000000000000000000000000000000000000000081526004016100cf90610370565b60405180910390fd5b815f806101000a81548173ffffffffffffffffffffffffffffffffffffffff021916908373ffffffffffffffffffffffffffffffffffffffff1602179055505f73ffffffffffffffffffffffffffffffffffffffff168173ffffffffffffffffffffffffffffffffffffffff161461015a576101598161016360201b60201c565b5b505050506103f6565b3373ffffffffffffffffffffffffffffffffffffffff168173ffffffffffffffffffffffffffffffffffffffff16036101d1576040517f08c379a00000000000000000000000000000000000000000000000000000000081526004016101c8906103d8565b60405180910390fd5b8060015f6101000a81548173ffffffffffffffffffffffffffffffffffffffff021916908373ffffffffffffffffffffffffffffffffffffffff1602179055508073ffffffffffffffffffffffffffffffffffffffff165f8054906101000a900473ffffffffffffffffffffffffffffffffffffffff1673ffffffffffffffffffffffffffffffffffffffff167fed8889f560326eb138920d842192f0eb3dd22b4f139c87a2c57538e05bae127860405160405180910390a350565b5f80fd5b5f73ffffffffffffffffffffffffffffffffffffffff82169050919050565b5f6102ba82610291565b9050919050565b6102ca816102b0565b81146102d4575f80fd5b50565b5f815190506102e5816102c1565b92915050565b5f60208284031215610300576102ff61028d565b5b5f61030d848285016102d7565b91505092915050565b5f82825260208201905092915050565b7f43616e6e6f7420736574206f776e657220746f207a65726f00000000000000005f82015250565b5f61035a601883610316565b915061036582610326565b602082019050919050565b5f6020820190508181035f8301526103878161034e565b9050919050565b7f43616e6e6f74207472616e7366657220746f2073656c660000000000000000005f82015250565b5f6103c2601783610316565b91506103cd8261038e565b602082019050919050565b5f6020820190508181035f8301526103ef816103b6565b9050919050565b608051612e396104155f395f81816101790152610c7b0152612e395ff3fe608060405234801561000f575f80fd5b5060043610610091575f3560e01c806379ba50971161006457806379ba50971461010b5780638da5cb5b14610115578063a758c6cb14610133578063f2fde38b1461013d578063fc2a88c31461015957610091565b80630ca7617514610095578063290e60ac146100b157806329f0de3f146100cf57806362747e42146100ed575b5f80fd5b6100af60048036038101906100aa9190611601565b610177565b005b6100b9610239565b6040516100c691906116e9565b60405180910390f35b6100d76102c5565b6040516100e4919061175b565b60405180910390f35b6100f5610351565b604051610102919061175b565b60405180910390f35b6101136103dd565b005b61011d61056c565b60405161012a91906117ba565b60405180910390f35b61013b610593565b005b610157600480360381019061015291906117fd565b61066f565b005b610161610683565b60405161016e9190611837565b60405180910390f35b7f000000000000000000000000000000000000000000000000000000000000000073ffffffffffffffffffffffffffffffffffffffff163373ffffffffffffffffffffffffffffffffffffffff16146101fc576040517fc6829f8300000000000000000000000000000000000000000000000000000000815260040160405180910390fd5b610207838383610689565b827f85e1543bf2f84fe80c6badbce3648c8539ad1df4d2b3d822938ca0538be727e660405160405180910390a2505050565b600280546102469061187d565b80601f01602080910402602001604051908101604052809291908181526020018280546102729061187d565b80156102bd5780601f10610294576101008083540402835291602001916102bd565b820191905f5260205f20905b8154815290600101906020018083116102a057829003601f168201915b505050505081565b600580546102d29061187d565b80601f01602080910402602001604051908101604052809291908181526020018280546102fe9061187d565b80156103495780601f1061032057610100808354040283529160200191610349565b820191905f5260205f20905b81548152906001019060200180831161032c57829003601f168201915b505050505081565b6004805461035e9061187d565b80601f016020809104026020016040519081016040528092919081815260200182805461038a9061187d565b80156103d55780601f106103ac576101008083540402835291602001916103d5565b820191905f5260205f20905b8154815290600101906020018083116103b857829003601f168201915b505050505081565b60015f9054906101000a900473ffffffffffffffffffffffffffffffffffffffff1673ffffffffffffffffffffffffffffffffffffffff163373ffffffffffffffffffffffffffffffffffffffff161461046c576040517f08c379a0000000000000000000000000000000000000000000000000000000008152600401610463906118f7565b60405180910390fd5b5f805f9054906101000a900473ffffffffffffffffffffffffffffffffffffffff169050335f806101000a81548173ffffffffffffffffffffffffffffffffffffffff021916908373ffffffffffffffffffffffffffffffffffffffff1602179055505f60015f6101000a81548173ffffffffffffffffffffffffffffffffffffffff021916908373ffffffffffffffffffffffffffffffffffffffff1602179055503373ffffffffffffffffffffffffffffffffffffffff168173ffffffffffffffffffffffffffffffffffffffff167f8be0079c531659141344cd1fd0a4f28419497f9722a3daafe3b4186f6b6457e060405160405180910390a350565b5f805f9054906101000a900473ffffffffffffffffffffffffffffffffffffffff16905090565b61059b61073d565b6105a36113da565b6105d75f806040516020016105b790612327565b604051602081830303815290604052846107cc909392919063ffffffff16565b5f6105ef6105e483610872565b5f6207a1205f610c77565b90505f801b8103610635576040517f08c379a000000000000000000000000000000000000000000000000000000000815260040161062c906124b9565b60405180910390fd5b806003819055506003547f0265957288b5575bd7619f26155797e7850ab35b5023c4c35830c365a671baa460405160405180910390a25050565b61067761073d565b61068081610d56565b50565b60035481565b5f8151036106ef5781600290816106a0919061267d565b5081600490816106b091906127a4565b50827fd7068dd93b2b2c580d414706aabbf529878c2a8273cd02be55b47c38eb2179a160026040516106e291906128f4565b60405180910390a2610738565b80600590816106fe91906127a4565b50827f31382cf5ac23d51290b15fd9186508d184cea0cdf3d4f969c0289e39b82c34e38260405161072f91906116e9565b60405180910390a25b505050565b5f8054906101000a900473ffffffffffffffffffffffffffffffffffffffff1673ffffffffffffffffffffffffffffffffffffffff163373ffffffffffffffffffffffffffffffffffffffff16146107ca576040517f08c379a00000000000000000000000000000000000000000000000000000000081526004016107c19061295e565b60405180910390fd5b565b5f815103610806576040517f22ce3edd00000000000000000000000000000000000000000000000000000000815260040160405180910390fd5b82845f0190600281111561081d5761081c61297c565b5b908160028111156108315761083061297c565b5b815250508184604001905f81111561084c5761084b61297c565b5b90815f81111561085f5761085e61297c565b5b8152505080846060018190525050505050565b60605f610880610100610e80565b90506108ca6040518060400160405280600c81526020017f636f64654c6f636174696f6e000000000000000000000000000000000000000081525082610ea590919063ffffffff16565b6108f2835f015160028111156108e3576108e261297c565b5b82610ecd90919063ffffffff16565b61093a6040518060400160405280600881526020017f6c616e677561676500000000000000000000000000000000000000000000000081525082610ea590919063ffffffff16565b61096283604001515f8111156109535761095261297c565b5b82610ecd90919063ffffffff16565b6109aa6040518060400160405280600681526020017f736f75726365000000000000000000000000000000000000000000000000000081525082610ea590919063ffffffff16565b6109c1836060015182610ea590919063ffffffff16565b5f8360a00151511115610a7557610a166040518060400160405280600481526020017f617267730000000000000000000000000000000000000000000000000000000081525082610ea590919063ffffffff16565b610a1f81610f1c565b5f5b8360a0015151811015610a6a57610a5f8460a001518281518110610a4857610a476129a9565b5b602002602001015183610ea590919063ffffffff16565b806001019050610a21565b50610a7481610f44565b5b5f8360800151511115610bb4575f6002811115610a9557610a9461297c565b5b83602001516002811115610aac57610aab61297c565b5b03610ae3576040517fa80d31f700000000000000000000000000000000000000000000000000000000815260040160405180910390fd5b610b2b6040518060400160405280600f81526020017f736563726574734c6f636174696f6e000000000000000000000000000000000081525082610ea590919063ffffffff16565b610b5483602001516002811115610b4557610b4461297c565b5b82610ecd90919063ffffffff16565b610b9c6040518060400160405280600781526020017f736563726574730000000000000000000000000000000000000000000000000081525082610ea590919063ffffffff16565b610bb3836080015182610f6c90919063ffffffff16565b5b5f8360c00151511115610c6857610c096040518060400160405280600981526020017f627974657341726773000000000000000000000000000000000000000000000081525082610ea590919063ffffffff16565b610c1281610f1c565b5f5b8360c0015151811015610c5d57610c528460c001518281518110610c3b57610c3a6129a9565b5b602002602001015183610f6c90919063ffffffff16565b806001019050610c14565b50610c6781610f44565b5b805f01515f0151915050919050565b5f807f000000000000000000000000000000000000000000000000000000000000000073ffffffffffffffffffffffffffffffffffffffff1663461d27628688600188886040518663ffffffff1660e01b8152600401610cdb959493929190612a32565b6020604051808303815f875af1158015610cf7573d5f803e3d5ffd5b505050506040513d601f19601f82011682018060405250810190610d1b9190612a9e565b9050807f1131472297a800fee664d1d89cfa8f7676ff07189ecc53f80bbb5f4969099db860405160405180910390a280915050949350505050565b3373ffffffffffffffffffffffffffffffffffffffff168173ffffffffffffffffffffffffffffffffffffffff1603610dc4576040517f08c379a0000000000000000000000000000000000000000000000000000000008152600401610dbb90612b13565b60405180910390fd5b8060015f6101000a81548173ffffffffffffffffffffffffffffffffffffffff021916908373ffffffffffffffffffffffffffffffffffffffff1602179055508073ffffffffffffffffffffffffffffffffffffffff165f8054906101000a900473ffffffffffffffffffffffffffffffffffffffff1673ffffffffffffffffffffffffffffffffffffffff167fed8889f560326eb138920d842192f0eb3dd22b4f139c87a2c57538e05bae127860405160405180910390a350565b610e88611449565b610e95815f015183610f94565b505f816020018181525050919050565b610eb2826003835161100a565b610ec881835f01516111aa90919063ffffffff16565b505050565b610eee60026005600660ff16901b17835f01516111c690919063ffffffff16565b50610f188282604051602001610f049190612b40565b604051602081830303815290604052610f6c565b5050565b610f2781600461122d565b600181602001818151610f3a9190612b86565b9150818152505050565b610f4f81600761122d565b600181602001818151610f629190612bb9565b9150818152505050565b610f79826002835161100a565b610f8f81835f01516111aa90919063ffffffff16565b505050565b610f9c611468565b5f602083610faa9190612c19565b14610fd657602082610fbc9190612c19565b6020610fc89190612bb9565b82610fd39190612b86565b91505b818360200181815250506040518084525f815282810160200181811015610ffb575f80fd5b80604052505082905092915050565b60178167ffffffffffffffff16116110445761103e8160058460ff16901b60ff1617845f01516111c690919063ffffffff16565b506111a5565b60ff8167ffffffffffffffff16116110a057611076601860058460ff16901b17845f01516111c690919063ffffffff16565b5061109a8167ffffffffffffffff166001855f01516112529092919063ffffffff16565b506111a4565b61ffff8167ffffffffffffffff16116110fd576110d3601960058460ff16901b17845f01516111c690919063ffffffff16565b506110f78167ffffffffffffffff166002855f01516112529092919063ffffffff16565b506111a3565b63ffffffff8167ffffffffffffffff161161115c57611132601a60058460ff16901b17845f01516111c690919063ffffffff16565b506111568167ffffffffffffffff166004855f01516112529092919063ffffffff16565b506111a2565b61117c601b60058460ff16901b17845f01516111c690919063ffffffff16565b506111a08167ffffffffffffffff166008855f01516112529092919063ffffffff16565b505b5b5b5b505050565b6111b2611468565b6111be838384516112db565b905092915050565b6111ce611468565b5f835f01515190505f6001826111e49190612b86565b90508460200151821061120857611207856002836112029190612c49565b6113b8565b5b84516020838201018581538151831115611220578282525b5050849250505092915050565b61124d601f60058360ff16901b17835f01516111c690919063ffffffff16565b505050565b61125a611468565b5f845f01515190505f818461126f9190612b86565b90508560200151811115611294576112938660028361128e9190612c49565b6113b8565b5b5f6001856101006112a59190612db9565b6112af9190612bb9565b9050865182810187831982511617815281518411156112cc578382525b50508693505050509392505050565b6112e3611468565b82518211156112f0575f80fd5b5f845f01515190505f83826113059190612b86565b9050856020015181111561132a57611329866002836113249190612c49565b6113b8565b5b5f8087518051856020830101935080851115611344578482525b60208901925050505b6020861061138b57805182526020826113669190612b86565b91506020816113759190612b86565b90506020866113849190612bb9565b955061134d565b5f6001876020036101000a0390508019825116818451168181178552505050879450505050509392505050565b5f825f015190506113c98383610f94565b506113d483826111aa565b50505050565b6040518060e001604052805f60028111156113f8576113f761297c565b5b81526020015f60028111156114105761140f61297c565b5b81526020015f808111156114275761142661297c565b5b8152602001606081526020016060815260200160608152602001606081525090565b604051806040016040528061145c611468565b81526020015f81525090565b6040518060400160405280606081526020015f81525090565b5f604051905090565b5f80fd5b5f80fd5b5f819050919050565b6114a481611492565b81146114ae575f80fd5b50565b5f813590506114bf8161149b565b92915050565b5f80fd5b5f80fd5b5f601f19601f8301169050919050565b7f4e487b71000000000000000000000000000000000000000000000000000000005f52604160045260245ffd5b611513826114cd565b810181811067ffffffffffffffff82111715611532576115316114dd565b5b80604052505050565b5f611544611481565b9050611550828261150a565b919050565b5f67ffffffffffffffff82111561156f5761156e6114dd565b5b611578826114cd565b9050602081019050919050565b828183375f83830152505050565b5f6115a56115a084611555565b61153b565b9050828152602081018484840111156115c1576115c06114c9565b5b6115cc848285611585565b509392505050565b5f82601f8301126115e8576115e76114c5565b5b81356115f8848260208601611593565b91505092915050565b5f805f606084860312156116185761161761148a565b5b5f611625868287016114b1565b935050602084013567ffffffffffffffff8111156116465761164561148e565b5b611652868287016115d4565b925050604084013567ffffffffffffffff8111156116735761167261148e565b5b61167f868287016115d4565b9150509250925092565b5f81519050919050565b5f82825260208201905092915050565b8281835e5f83830152505050565b5f6116bb82611689565b6116c58185611693565b93506116d58185602086016116a3565b6116de816114cd565b840191505092915050565b5f6020820190508181035f83015261170181846116b1565b905092915050565b5f81519050919050565b5f82825260208201905092915050565b5f61172d82611709565b6117378185611713565b93506117478185602086016116a3565b611750816114cd565b840191505092915050565b5f6020820190508181035f8301526117738184611723565b905092915050565b5f73ffffffffffffffffffffffffffffffffffffffff82169050919050565b5f6117a48261177b565b9050919050565b6117b48161179a565b82525050565b5f6020820190506117cd5f8301846117ab565b92915050565b6117dc8161179a565b81146117e6575f80fd5b50565b5f813590506117f7816117d3565b92915050565b5f602082840312156118125761181161148a565b5b5f61181f848285016117e9565b91505092915050565b61183181611492565b82525050565b5f60208201905061184a5f830184611828565b92915050565b7f4e487b71000000000000000000000000000000000000000000000000000000005f52602260045260245ffd5b5f600282049050600182168061189457607f821691505b6020821081036118a7576118a6611850565b5b50919050565b7f4d7573742062652070726f706f736564206f776e6572000000000000000000005f82015250565b5f6118e1601683611693565b91506118ec826118ad565b602082019050919050565b5f6020820190508181035f83015261190e816118d5565b9050919050565b5f81905092915050565b7f2f2f204164617074656420746f20696e746572616374207769746820746865205f8201527f476f6f676c652047656e65726174697665204c616e6775616765204150490a00602082015250565b5f611979603f83611915565b91506119848261191f565b603f82019050919050565b7f636f6e7374206170694b6579203d202741497a61537944705754694f6e7839345f8201527f414e435266354a30466f356d5563754a665f4e56793649273b0a000000000000602082015250565b5f6119e9603a83611915565b91506119f48261198f565b603a82019050919050565b7f636f6e73742061706955726c203d206068747470733a2f2f67656e65726174695f8201527f76656c616e67756167652e676f6f676c65617069732e636f6d2f76316265746160208201527f2f6d6f64656c732f67656d696e692d312e352d666c6173683a67656e6572617460408201527f65436f6e74656e743f6b65793d247b6170694b65797d603b0a00000000000000606082015250565b5f611aa5607983611915565b9150611ab0826119ff565b607982019050919050565b7f636f6e73742072657175657374426f6479203d207b0a000000000000000000005f82015250565b5f611aef601683611915565b9150611afa82611abb565b601682019050919050565b7f202070726f6d70743a207b0a00000000000000000000000000000000000000005f82015250565b5f611b39600c83611915565b9150611b4482611b05565b600c82019050919050565b7f202020206d657373616765733a205b7b0a0000000000000000000000000000005f82015250565b5f611b83601183611915565b9150611b8e82611b4f565b601182019050919050565b7f202020202020636f6e74656e743a20274f6e65206e616d6520666f72206120745f8201527f65616d207769746820626c6f636b636861696e207265666572656e63652e204a60208201527f75737420746865206e616d652c207769746820506f702063756c74757265207260408201527f65666572656e63652e270a000000000000000000000000000000000000000000606082015250565b5f611c3f606b83611915565b9150611c4a82611b99565b606b82019050919050565b7f202020207d5d0a000000000000000000000000000000000000000000000000005f82015250565b5f611c89600783611915565b9150611c9482611c55565b600782019050919050565b7f20207d0a000000000000000000000000000000000000000000000000000000005f82015250565b5f611cd3600483611915565b9150611cde82611c9f565b600482019050919050565b7f7d3b0a00000000000000000000000000000000000000000000000000000000005f82015250565b5f611d1d600383611915565b9150611d2882611ce9565b600382019050919050565b7f747279207b0a00000000000000000000000000000000000000000000000000005f82015250565b5f611d67600683611915565b9150611d7282611d33565b600682019050919050565b7f2020636f6e737420617069526573706f6e7365203d2061776169742046756e635f8201527f74696f6e732e6d616b654874747052657175657374287b0a0000000000000000602082015250565b5f611dd7603883611915565b9150611de282611d7d565b603882019050919050565b7f2020202075726c3a2061706955726c2c0a0000000000000000000000000000005f82015250565b5f611e21601183611915565b9150611e2c82611ded565b601182019050919050565b7f202020206d6574686f643a2027504f5354272c0a0000000000000000000000005f82015250565b5f611e6b601483611915565b9150611e7682611e37565b601482019050919050565b7f20202020686561646572733a207b2027436f6e74656e742d54797065273a20275f8201527f6170706c69636174696f6e2f6a736f6e27207d2c0a0000000000000000000000602082015250565b5f611edb603583611915565b9150611ee682611e81565b603582019050919050565b7f20202020646174613a2072657175657374426f64792c0a0000000000000000005f82015250565b5f611f25601783611915565b9150611f3082611ef1565b601782019050919050565b7f2020202074696d656f75743a2032303030300a000000000000000000000000005f82015250565b5f611f6f601383611915565b9150611f7a82611f3b565b601382019050919050565b7f20207d293b0a00000000000000000000000000000000000000000000000000005f82015250565b5f611fb9600683611915565b9150611fc482611f85565b600682019050919050565b7f202069662028617069526573706f6e73652e6572726f7229207b0a00000000005f82015250565b5f612003601b83611915565b915061200e82611fcf565b601b82019050919050565b7f202020207468726f77206e6577204572726f72282752657175657374206661695f8201527f6c656427293b0a00000000000000000000000000000000000000000000000000602082015250565b5f612073602783611915565b915061207e82612019565b602782019050919050565b7f2020636f6e737420636f6e74656e74203d20617069526573706f6e73652e64615f8201527f74612e63616e646964617465735b305d2e6f75747075743b0a00000000000000602082015250565b5f6120e3603983611915565b91506120ee82612089565b603982019050919050565b7f20206966202821636f6e74656e7429207b0a00000000000000000000000000005f82015250565b5f61212d601283611915565b9150612138826120f9565b601282019050919050565b7f202020207468726f77206e6577204572726f722827556e6578706563746564205f8201527f41504920726573706f6e736520737472756374757265206f72206d697373696e60208201527f6720636f6e74656e742e27293b0a000000000000000000000000000000000000604082015250565b5f6121c3604e83611915565b91506121ce82612143565b604e82019050919050565b7f202072657475726e2046756e6374696f6e732e656e636f6465537472696e67285f8201527f636f6e74656e74293b0a00000000000000000000000000000000000000000000602082015250565b5f612233602a83611915565b915061223e826121d9565b602a82019050919050565b7f7d20636174636820286572726f7229207b0a00000000000000000000000000005f82015250565b5f61227d601283611915565b915061228882612249565b601282019050919050565b7f20207468726f77206572726f723b0a00000000000000000000000000000000005f82015250565b5f6122c7600f83611915565b91506122d282612293565b600f82019050919050565b7f7d000000000000000000000000000000000000000000000000000000000000005f82015250565b5f612311600183611915565b915061231c826122dd565b600182019050919050565b5f6123318261196d565b915061233c826119dd565b915061234782611a99565b915061235282611ae3565b915061235d82611b2d565b915061236882611b77565b915061237382611c33565b915061237e82611c7d565b915061238982611cc7565b915061239482611d11565b915061239f82611d5b565b91506123aa82611dcb565b91506123b582611e15565b91506123c082611e5f565b91506123cb82611ecf565b91506123d682611f19565b91506123e182611f63565b91506123ec82611fad565b91506123f782611ff7565b915061240282612067565b915061240d82611cc7565b9150612418826120d7565b915061242382612121565b915061242e826121b7565b915061243982611cc7565b915061244482612227565b915061244f82612271565b915061245a826122bb565b915061246582612305565b9150819050919050565b7f4661696c656420746f2073656e642072657175657374000000000000000000005f82015250565b5f6124a3601683611693565b91506124ae8261246f565b602082019050919050565b5f6020820190508181035f8301526124d081612497565b9050919050565b5f819050815f5260205f209050919050565b5f6020601f8301049050919050565b5f82821b905092915050565b5f600883026125337fffffffffffffffffffffffffffffffffffffffffffffffffffffffffffffffff826124f8565b61253d86836124f8565b95508019841693508086168417925050509392505050565b5f819050919050565b5f819050919050565b5f61258161257c61257784612555565b61255e565b612555565b9050919050565b5f819050919050565b61259a83612567565b6125ae6125a682612588565b848454612504565b825550505050565b5f90565b6125c26125b6565b6125cd818484612591565b505050565b5b818110156125f0576125e55f826125ba565b6001810190506125d3565b5050565b601f82111561263557612606816124d7565b61260f846124e9565b8101602085101561261e578190505b61263261262a856124e9565b8301826125d2565b50505b505050565b5f82821c905092915050565b5f6126555f198460080261263a565b1980831691505092915050565b5f61266d8383612646565b9150826002028217905092915050565b61268682611689565b67ffffffffffffffff81111561269f5761269e6114dd565b5b6126a9825461187d565b6126b48282856125f4565b5f60209050601f8311600181146126e5575f84156126d3578287015190505b6126dd8582612662565b865550612744565b601f1984166126f3866124d7565b5f5b8281101561271a578489015182556001820191506020850194506020810190506126f5565b868310156127375784890151612733601f891682612646565b8355505b6001600288020188555050505b505050505050565b5f819050815f5260205f209050919050565b601f82111561279f576127708161274c565b612779846124e9565b81016020851015612788578190505b61279c612794856124e9565b8301826125d2565b50505b505050565b6127ad82611709565b67ffffffffffffffff8111156127c6576127c56114dd565b5b6127d0825461187d565b6127db82828561275e565b5f60209050601f83116001811461280c575f84156127fa578287015190505b6128048582612662565b86555061286b565b601f19841661281a8661274c565b5f5b828110156128415784890151825560018201915060208501945060208101905061281c565b8683101561285e578489015161285a601f891682612646565b8355505b6001600288020188555050505b505050505050565b5f815461287f8161187d565b6128898186611693565b9450600182165f81146128a357600181146128b9576128eb565b60ff1983168652811515602002860193506128eb565b6128c2856124d7565b5f5b838110156128e3578154818901526001820191506020810190506128c4565b808801955050505b50505092915050565b5f6020820190508181035f83015261290c8184612873565b905092915050565b7f4f6e6c792063616c6c61626c65206279206f776e6572000000000000000000005f82015250565b5f612948601683611693565b915061295382612914565b602082019050919050565b5f6020820190508181035f8301526129758161293c565b9050919050565b7f4e487b71000000000000000000000000000000000000000000000000000000005f52602160045260245ffd5b7f4e487b71000000000000000000000000000000000000000000000000000000005f52603260045260245ffd5b5f67ffffffffffffffff82169050919050565b6129f2816129d6565b82525050565b5f61ffff82169050919050565b612a0e816129f8565b82525050565b5f63ffffffff82169050919050565b612a2c81612a14565b82525050565b5f60a082019050612a455f8301886129e9565b8181036020830152612a578187611723565b9050612a666040830186612a05565b612a736060830185612a23565b612a806080830184611828565b9695505050505050565b5f81519050612a988161149b565b92915050565b5f60208284031215612ab357612ab261148a565b5b5f612ac084828501612a8a565b91505092915050565b7f43616e6e6f74207472616e7366657220746f2073656c660000000000000000005f82015250565b5f612afd601783611693565b9150612b0882612ac9565b602082019050919050565b5f6020820190508181035f830152612b2a81612af1565b9050919050565b612b3a81612555565b82525050565b5f602082019050612b535f830184612b31565b92915050565b7f4e487b71000000000000000000000000000000000000000000000000000000005f52601160045260245ffd5b5f612b9082612555565b9150612b9b83612555565b9250828201905080821115612bb357612bb2612b59565b5b92915050565b5f612bc382612555565b9150612bce83612555565b9250828203905081811115612be657612be5612b59565b5b92915050565b7f4e487b71000000000000000000000000000000000000000000000000000000005f52601260045260245ffd5b5f612c2382612555565b9150612c2e83612555565b925082612c3e57612c3d612bec565b5b828206905092915050565b5f612c5382612555565b9150612c5e83612555565b9250828202612c6c81612555565b91508282048414831517612c8357612c82612b59565b5b5092915050565b5f8160011c9050919050565b5f808291508390505b6001851115612cdf57808604811115612cbb57612cba612b59565b5b6001851615612cca5780820291505b8081029050612cd885612c8a565b9450612c9f565b94509492505050565b5f82612cf75760019050612db2565b81612d04575f9050612db2565b8160018114612d1a5760028114612d2457612d53565b6001915050612db2565b60ff841115612d3657612d35612b59565b5b8360020a915084821115612d4d57612d4c612b59565b5b50612db2565b5060208310610133831016604e8410600b8410161715612d885782820a905083811115612d8357612d82612b59565b5b612db2565b612d958484846001612c96565b92509050818404811115612dac57612dab612b59565b5b81810290505b9392505050565b5f612dc382612555565b9150612dce83612555565b9250612dfb7fffffffffffffffffffffffffffffffffffffffffffffffffffffffffffffffff8484612ce8565b90509291505056fea2646970667358221220718233c60ba7710d34f87572894814a88f57269ed7bfac5b9bc0dc39cf2c7dcd64736f6c634300081a0033",
			"opcodes": "PUSH1 0xA0 PUSH1 0x40 MSTORE CALLVALUE DUP1 ISZERO PUSH2 0xF JUMPI PUSH0 DUP1 REVERT JUMPDEST POP PUSH1 0x40 MLOAD PUSH2 0x324E CODESIZE SUB DUP1 PUSH2 0x324E DUP4 CODECOPY DUP2 DUP2 ADD PUSH1 0x40 MSTORE DUP2 ADD SWAP1 PUSH2 0x31 SWAP2 SWAP1 PUSH2 0x2EB JUMP JUMPDEST CALLER DUP1 PUSH0 DUP4 DUP1 PUSH20 0xFFFFFFFFFFFFFFFFFFFFFFFFFFFFFFFFFFFFFFFF AND PUSH1 0x80 DUP2 PUSH20 0xFFFFFFFFFFFFFFFFFFFFFFFFFFFFFFFFFFFFFFFF AND DUP2 MSTORE POP POP POP PUSH0 PUSH20 0xFFFFFFFFFFFFFFFFFFFFFFFFFFFFFFFFFFFFFFFF AND DUP3 PUSH20 0xFFFFFFFFFFFFFFFFFFFFFFFFFFFFFFFFFFFFFFFF AND SUB PUSH2 0xD8 JUMPI PUSH1 0x40 MLOAD PUSH32 0x8C379A000000000000000000000000000000000000000000000000000000000 DUP2 MSTORE PUSH1 0x4 ADD PUSH2 0xCF SWAP1 PUSH2 0x370 JUMP JUMPDEST PUSH1 0x40 MLOAD DUP1 SWAP2 SUB SWAP1 REVERT JUMPDEST DUP2 PUSH0 DUP1 PUSH2 0x100 EXP DUP2 SLOAD DUP2 PUSH20 0xFFFFFFFFFFFFFFFFFFFFFFFFFFFFFFFFFFFFFFFF MUL NOT AND SWAP1 DUP4 PUSH20 0xFFFFFFFFFFFFFFFFFFFFFFFFFFFFFFFFFFFFFFFF AND MUL OR SWAP1 SSTORE POP PUSH0 PUSH20 0xFFFFFFFFFFFFFFFFFFFFFFFFFFFFFFFFFFFFFFFF AND DUP2 PUSH20 0xFFFFFFFFFFFFFFFFFFFFFFFFFFFFFFFFFFFFFFFF AND EQ PUSH2 0x15A JUMPI PUSH2 0x159 DUP2 PUSH2 0x163 PUSH1 0x20 SHL PUSH1 0x20 SHR JUMP JUMPDEST JUMPDEST POP POP POP POP PUSH2 0x3F6 JUMP JUMPDEST CALLER PUSH20 0xFFFFFFFFFFFFFFFFFFFFFFFFFFFFFFFFFFFFFFFF AND DUP2 PUSH20 0xFFFFFFFFFFFFFFFFFFFFFFFFFFFFFFFFFFFFFFFF AND SUB PUSH2 0x1D1 JUMPI PUSH1 0x40 MLOAD PUSH32 0x8C379A000000000000000000000000000000000000000000000000000000000 DUP2 MSTORE PUSH1 0x4 ADD PUSH2 0x1C8 SWAP1 PUSH2 0x3D8 JUMP JUMPDEST PUSH1 0x40 MLOAD DUP1 SWAP2 SUB SWAP1 REVERT JUMPDEST DUP1 PUSH1 0x1 PUSH0 PUSH2 0x100 EXP DUP2 SLOAD DUP2 PUSH20 0xFFFFFFFFFFFFFFFFFFFFFFFFFFFFFFFFFFFFFFFF MUL NOT AND SWAP1 DUP4 PUSH20 0xFFFFFFFFFFFFFFFFFFFFFFFFFFFFFFFFFFFFFFFF AND MUL OR SWAP1 SSTORE POP DUP1 PUSH20 0xFFFFFFFFFFFFFFFFFFFFFFFFFFFFFFFFFFFFFFFF AND PUSH0 DUP1 SLOAD SWAP1 PUSH2 0x100 EXP SWAP1 DIV PUSH20 0xFFFFFFFFFFFFFFFFFFFFFFFFFFFFFFFFFFFFFFFF AND PUSH20 0xFFFFFFFFFFFFFFFFFFFFFFFFFFFFFFFFFFFFFFFF AND PUSH32 0xED8889F560326EB138920D842192F0EB3DD22B4F139C87A2C57538E05BAE1278 PUSH1 0x40 MLOAD PUSH1 0x40 MLOAD DUP1 SWAP2 SUB SWAP1 LOG3 POP JUMP JUMPDEST PUSH0 DUP1 REVERT JUMPDEST PUSH0 PUSH20 0xFFFFFFFFFFFFFFFFFFFFFFFFFFFFFFFFFFFFFFFF DUP3 AND SWAP1 POP SWAP2 SWAP1 POP JUMP JUMPDEST PUSH0 PUSH2 0x2BA DUP3 PUSH2 0x291 JUMP JUMPDEST SWAP1 POP SWAP2 SWAP1 POP JUMP JUMPDEST PUSH2 0x2CA DUP2 PUSH2 0x2B0 JUMP JUMPDEST DUP2 EQ PUSH2 0x2D4 JUMPI PUSH0 DUP1 REVERT JUMPDEST POP JUMP JUMPDEST PUSH0 DUP2 MLOAD SWAP1 POP PUSH2 0x2E5 DUP2 PUSH2 0x2C1 JUMP JUMPDEST SWAP3 SWAP2 POP POP JUMP JUMPDEST PUSH0 PUSH1 0x20 DUP3 DUP5 SUB SLT ISZERO PUSH2 0x300 JUMPI PUSH2 0x2FF PUSH2 0x28D JUMP JUMPDEST JUMPDEST PUSH0 PUSH2 0x30D DUP5 DUP3 DUP6 ADD PUSH2 0x2D7 JUMP JUMPDEST SWAP2 POP POP SWAP3 SWAP2 POP POP JUMP JUMPDEST PUSH0 DUP3 DUP3 MSTORE PUSH1 0x20 DUP3 ADD SWAP1 POP SWAP3 SWAP2 POP POP JUMP JUMPDEST PUSH32 0x43616E6E6F7420736574206F776E657220746F207A65726F0000000000000000 PUSH0 DUP3 ADD MSTORE POP JUMP JUMPDEST PUSH0 PUSH2 0x35A PUSH1 0x18 DUP4 PUSH2 0x316 JUMP JUMPDEST SWAP2 POP PUSH2 0x365 DUP3 PUSH2 0x326 JUMP JUMPDEST PUSH1 0x20 DUP3 ADD SWAP1 POP SWAP2 SWAP1 POP JUMP JUMPDEST PUSH0 PUSH1 0x20 DUP3 ADD SWAP1 POP DUP2 DUP2 SUB PUSH0 DUP4 ADD MSTORE PUSH2 0x387 DUP2 PUSH2 0x34E JUMP JUMPDEST SWAP1 POP SWAP2 SWAP1 POP JUMP JUMPDEST PUSH32 0x43616E6E6F74207472616E7366657220746F2073656C66000000000000000000 PUSH0 DUP3 ADD MSTORE POP JUMP JUMPDEST PUSH0 PUSH2 0x3C2 PUSH1 0x17 DUP4 PUSH2 0x316 JUMP JUMPDEST SWAP2 POP PUSH2 0x3CD DUP3 PUSH2 0x38E JUMP JUMPDEST PUSH1 0x20 DUP3 ADD SWAP1 POP SWAP2 SWAP1 POP JUMP JUMPDEST PUSH0 PUSH1 0x20 DUP3 ADD SWAP1 POP DUP2 DUP2 SUB PUSH0 DUP4 ADD MSTORE PUSH2 0x3EF DUP2 PUSH2 0x3B6 JUMP JUMPDEST SWAP1 POP SWAP2 SWAP1 POP JUMP JUMPDEST PUSH1 0x80 MLOAD PUSH2 0x2E39 PUSH2 0x415 PUSH0 CODECOPY PUSH0 DUP2 DUP2 PUSH2 0x179 ADD MSTORE PUSH2 0xC7B ADD MSTORE PUSH2 0x2E39 PUSH0 RETURN INVALID PUSH1 0x80 PUSH1 0x40 MSTORE CALLVALUE DUP1 ISZERO PUSH2 0xF JUMPI PUSH0 DUP1 REVERT JUMPDEST POP PUSH1 0x4 CALLDATASIZE LT PUSH2 0x91 JUMPI PUSH0 CALLDATALOAD PUSH1 0xE0 SHR DUP1 PUSH4 0x79BA5097 GT PUSH2 0x64 JUMPI DUP1 PUSH4 0x79BA5097 EQ PUSH2 0x10B JUMPI DUP1 PUSH4 0x8DA5CB5B EQ PUSH2 0x115 JUMPI DUP1 PUSH4 0xA758C6CB EQ PUSH2 0x133 JUMPI DUP1 PUSH4 0xF2FDE38B EQ PUSH2 0x13D JUMPI DUP1 PUSH4 0xFC2A88C3 EQ PUSH2 0x159 JUMPI PUSH2 0x91 JUMP JUMPDEST DUP1 PUSH4 0xCA76175 EQ PUSH2 0x95 JUMPI DUP1 PUSH4 0x290E60AC EQ PUSH2 0xB1 JUMPI DUP1 PUSH4 0x29F0DE3F EQ PUSH2 0xCF JUMPI DUP1 PUSH4 0x62747E42 EQ PUSH2 0xED JUMPI JUMPDEST PUSH0 DUP1 REVERT JUMPDEST PUSH2 0xAF PUSH1 0x4 DUP1 CALLDATASIZE SUB DUP2 ADD SWAP1 PUSH2 0xAA SWAP2 SWAP1 PUSH2 0x1601 JUMP JUMPDEST PUSH2 0x177 JUMP JUMPDEST STOP JUMPDEST PUSH2 0xB9 PUSH2 0x239 JUMP JUMPDEST PUSH1 0x40 MLOAD PUSH2 0xC6 SWAP2 SWAP1 PUSH2 0x16E9 JUMP JUMPDEST PUSH1 0x40 MLOAD DUP1 SWAP2 SUB SWAP1 RETURN JUMPDEST PUSH2 0xD7 PUSH2 0x2C5 JUMP JUMPDEST PUSH1 0x40 MLOAD PUSH2 0xE4 SWAP2 SWAP1 PUSH2 0x175B JUMP JUMPDEST PUSH1 0x40 MLOAD DUP1 SWAP2 SUB SWAP1 RETURN JUMPDEST PUSH2 0xF5 PUSH2 0x351 JUMP JUMPDEST PUSH1 0x40 MLOAD PUSH2 0x102 SWAP2 SWAP1 PUSH2 0x175B JUMP JUMPDEST PUSH1 0x40 MLOAD DUP1 SWAP2 SUB SWAP1 RETURN JUMPDEST PUSH2 0x113 PUSH2 0x3DD JUMP JUMPDEST STOP JUMPDEST PUSH2 0x11D PUSH2 0x56C JUMP JUMPDEST PUSH1 0x40 MLOAD PUSH2 0x12A SWAP2 SWAP1 PUSH2 0x17BA JUMP JUMPDEST PUSH1 0x40 MLOAD DUP1 SWAP2 SUB SWAP1 RETURN JUMPDEST PUSH2 0x13B PUSH2 0x593 JUMP JUMPDEST STOP JUMPDEST PUSH2 0x157 PUSH1 0x4 DUP1 CALLDATASIZE SUB DUP2 ADD SWAP1 PUSH2 0x152 SWAP2 SWAP1 PUSH2 0x17FD JUMP JUMPDEST PUSH2 0x66F JUMP JUMPDEST STOP JUMPDEST PUSH2 0x161 PUSH2 0x683 JUMP JUMPDEST PUSH1 0x40 MLOAD PUSH2 0x16E SWAP2 SWAP1 PUSH2 0x1837 JUMP JUMPDEST PUSH1 0x40 MLOAD DUP1 SWAP2 SUB SWAP1 RETURN JUMPDEST PUSH32 0x0 PUSH20 0xFFFFFFFFFFFFFFFFFFFFFFFFFFFFFFFFFFFFFFFF AND CALLER PUSH20 0xFFFFFFFFFFFFFFFFFFFFFFFFFFFFFFFFFFFFFFFF AND EQ PUSH2 0x1FC JUMPI PUSH1 0x40 MLOAD PUSH32 0xC6829F8300000000000000000000000000000000000000000000000000000000 DUP2 MSTORE PUSH1 0x4 ADD PUSH1 0x40 MLOAD DUP1 SWAP2 SUB SWAP1 REVERT JUMPDEST PUSH2 0x207 DUP4 DUP4 DUP4 PUSH2 0x689 JUMP JUMPDEST DUP3 PUSH32 0x85E1543BF2F84FE80C6BADBCE3648C8539AD1DF4D2B3D822938CA0538BE727E6 PUSH1 0x40 MLOAD PUSH1 0x40 MLOAD DUP1 SWAP2 SUB SWAP1 LOG2 POP POP POP JUMP JUMPDEST PUSH1 0x2 DUP1 SLOAD PUSH2 0x246 SWAP1 PUSH2 0x187D JUMP JUMPDEST DUP1 PUSH1 0x1F ADD PUSH1 0x20 DUP1 SWAP2 DIV MUL PUSH1 0x20 ADD PUSH1 0x40 MLOAD SWAP1 DUP2 ADD PUSH1 0x40 MSTORE DUP1 SWAP3 SWAP2 SWAP1 DUP2 DUP2 MSTORE PUSH1 0x20 ADD DUP3 DUP1 SLOAD PUSH2 0x272 SWAP1 PUSH2 0x187D JUMP JUMPDEST DUP1 ISZERO PUSH2 0x2BD JUMPI DUP1 PUSH1 0x1F LT PUSH2 0x294 JUMPI PUSH2 0x100 DUP1 DUP4 SLOAD DIV MUL DUP4 MSTORE SWAP2 PUSH1 0x20 ADD SWAP2 PUSH2 0x2BD JUMP JUMPDEST DUP3 ADD SWAP2 SWAP1 PUSH0 MSTORE PUSH1 0x20 PUSH0 KECCAK256 SWAP1 JUMPDEST DUP2 SLOAD DUP2 MSTORE SWAP1 PUSH1 0x1 ADD SWAP1 PUSH1 0x20 ADD DUP1 DUP4 GT PUSH2 0x2A0 JUMPI DUP3 SWAP1 SUB PUSH1 0x1F AND DUP3 ADD SWAP2 JUMPDEST POP POP POP POP POP DUP2 JUMP JUMPDEST PUSH1 0x5 DUP1 SLOAD PUSH2 0x2D2 SWAP1 PUSH2 0x187D JUMP JUMPDEST DUP1 PUSH1 0x1F ADD PUSH1 0x20 DUP1 SWAP2 DIV MUL PUSH1 0x20 ADD PUSH1 0x40 MLOAD SWAP1 DUP2 ADD PUSH1 0x40 MSTORE DUP1 SWAP3 SWAP2 SWAP1 DUP2 DUP2 MSTORE PUSH1 0x20 ADD DUP3 DUP1 SLOAD PUSH2 0x2FE SWAP1 PUSH2 0x187D JUMP JUMPDEST DUP1 ISZERO PUSH2 0x349 JUMPI DUP1 PUSH1 0x1F LT PUSH2 0x320 JUMPI PUSH2 0x100 DUP1 DUP4 SLOAD DIV MUL DUP4 MSTORE SWAP2 PUSH1 0x20 ADD SWAP2 PUSH2 0x349 JUMP JUMPDEST DUP3 ADD SWAP2 SWAP1 PUSH0 MSTORE PUSH1 0x20 PUSH0 KECCAK256 SWAP1 JUMPDEST DUP2 SLOAD DUP2 MSTORE SWAP1 PUSH1 0x1 ADD SWAP1 PUSH1 0x20 ADD DUP1 DUP4 GT PUSH2 0x32C JUMPI DUP3 SWAP1 SUB PUSH1 0x1F AND DUP3 ADD SWAP2 JUMPDEST POP POP POP POP POP DUP2 JUMP JUMPDEST PUSH1 0x4 DUP1 SLOAD PUSH2 0x35E SWAP1 PUSH2 0x187D JUMP JUMPDEST DUP1 PUSH1 0x1F ADD PUSH1 0x20 DUP1 SWAP2 DIV MUL PUSH1 0x20 ADD PUSH1 0x40 MLOAD SWAP1 DUP2 ADD PUSH1 0x40 MSTORE DUP1 SWAP3 SWAP2 SWAP1 DUP2 DUP2 MSTORE PUSH1 0x20 ADD DUP3 DUP1 SLOAD PUSH2 0x38A SWAP1 PUSH2 0x187D JUMP JUMPDEST DUP1 ISZERO PUSH2 0x3D5 JUMPI DUP1 PUSH1 0x1F LT PUSH2 0x3AC JUMPI PUSH2 0x100 DUP1 DUP4 SLOAD DIV MUL DUP4 MSTORE SWAP2 PUSH1 0x20 ADD SWAP2 PUSH2 0x3D5 JUMP JUMPDEST DUP3 ADD SWAP2 SWAP1 PUSH0 MSTORE PUSH1 0x20 PUSH0 KECCAK256 SWAP1 JUMPDEST DUP2 SLOAD DUP2 MSTORE SWAP1 PUSH1 0x1 ADD SWAP1 PUSH1 0x20 ADD DUP1 DUP4 GT PUSH2 0x3B8 JUMPI DUP3 SWAP1 SUB PUSH1 0x1F AND DUP3 ADD SWAP2 JUMPDEST POP POP POP POP POP DUP2 JUMP JUMPDEST PUSH1 0x1 PUSH0 SWAP1 SLOAD SWAP1 PUSH2 0x100 EXP SWAP1 DIV PUSH20 0xFFFFFFFFFFFFFFFFFFFFFFFFFFFFFFFFFFFFFFFF AND PUSH20 0xFFFFFFFFFFFFFFFFFFFFFFFFFFFFFFFFFFFFFFFF AND CALLER PUSH20 0xFFFFFFFFFFFFFFFFFFFFFFFFFFFFFFFFFFFFFFFF AND EQ PUSH2 0x46C JUMPI PUSH1 0x40 MLOAD PUSH32 0x8C379A000000000000000000000000000000000000000000000000000000000 DUP2 MSTORE PUSH1 0x4 ADD PUSH2 0x463 SWAP1 PUSH2 0x18F7 JUMP JUMPDEST PUSH1 0x40 MLOAD DUP1 SWAP2 SUB SWAP1 REVERT JUMPDEST PUSH0 DUP1 PUSH0 SWAP1 SLOAD SWAP1 PUSH2 0x100 EXP SWAP1 DIV PUSH20 0xFFFFFFFFFFFFFFFFFFFFFFFFFFFFFFFFFFFFFFFF AND SWAP1 POP CALLER PUSH0 DUP1 PUSH2 0x100 EXP DUP2 SLOAD DUP2 PUSH20 0xFFFFFFFFFFFFFFFFFFFFFFFFFFFFFFFFFFFFFFFF MUL NOT AND SWAP1 DUP4 PUSH20 0xFFFFFFFFFFFFFFFFFFFFFFFFFFFFFFFFFFFFFFFF AND MUL OR SWAP1 SSTORE POP PUSH0 PUSH1 0x1 PUSH0 PUSH2 0x100 EXP DUP2 SLOAD DUP2 PUSH20 0xFFFFFFFFFFFFFFFFFFFFFFFFFFFFFFFFFFFFFFFF MUL NOT AND SWAP1 DUP4 PUSH20 0xFFFFFFFFFFFFFFFFFFFFFFFFFFFFFFFFFFFFFFFF AND MUL OR SWAP1 SSTORE POP CALLER PUSH20 0xFFFFFFFFFFFFFFFFFFFFFFFFFFFFFFFFFFFFFFFF AND DUP2 PUSH20 0xFFFFFFFFFFFFFFFFFFFFFFFFFFFFFFFFFFFFFFFF AND PUSH32 0x8BE0079C531659141344CD1FD0A4F28419497F9722A3DAAFE3B4186F6B6457E0 PUSH1 0x40 MLOAD PUSH1 0x40 MLOAD DUP1 SWAP2 SUB SWAP1 LOG3 POP JUMP JUMPDEST PUSH0 DUP1 PUSH0 SWAP1 SLOAD SWAP1 PUSH2 0x100 EXP SWAP1 DIV PUSH20 0xFFFFFFFFFFFFFFFFFFFFFFFFFFFFFFFFFFFFFFFF AND SWAP1 POP SWAP1 JUMP JUMPDEST PUSH2 0x59B PUSH2 0x73D JUMP JUMPDEST PUSH2 0x5A3 PUSH2 0x13DA JUMP JUMPDEST PUSH2 0x5D7 PUSH0 DUP1 PUSH1 0x40 MLOAD PUSH1 0x20 ADD PUSH2 0x5B7 SWAP1 PUSH2 0x2327 JUMP JUMPDEST PUSH1 0x40 MLOAD PUSH1 0x20 DUP2 DUP4 SUB SUB DUP2 MSTORE SWAP1 PUSH1 0x40 MSTORE DUP5 PUSH2 0x7CC SWAP1 SWAP4 SWAP3 SWAP2 SWAP1 PUSH4 0xFFFFFFFF AND JUMP JUMPDEST PUSH0 PUSH2 0x5EF PUSH2 0x5E4 DUP4 PUSH2 0x872 JUMP JUMPDEST PUSH0 PUSH3 0x7A120 PUSH0 PUSH2 0xC77 JUMP JUMPDEST SWAP1 POP PUSH0 DUP1 SHL DUP2 SUB PUSH2 0x635 JUMPI PUSH1 0x40 MLOAD PUSH32 0x8C379A000000000000000000000000000000000000000000000000000000000 DUP2 MSTORE PUSH1 0x4 ADD PUSH2 0x62C SWAP1 PUSH2 0x24B9 JUMP JUMPDEST PUSH1 0x40 MLOAD DUP1 SWAP2 SUB SWAP1 REVERT JUMPDEST DUP1 PUSH1 0x3 DUP2 SWAP1 SSTORE POP PUSH1 0x3 SLOAD PUSH32 0x265957288B5575BD7619F26155797E7850AB35B5023C4C35830C365A671BAA4 PUSH1 0x40 MLOAD PUSH1 0x40 MLOAD DUP1 SWAP2 SUB SWAP1 LOG2 POP POP JUMP JUMPDEST PUSH2 0x677 PUSH2 0x73D JUMP JUMPDEST PUSH2 0x680 DUP2 PUSH2 0xD56 JUMP JUMPDEST POP JUMP JUMPDEST PUSH1 0x3 SLOAD DUP2 JUMP JUMPDEST PUSH0 DUP2 MLOAD SUB PUSH2 0x6EF JUMPI DUP2 PUSH1 0x2 SWAP1 DUP2 PUSH2 0x6A0 SWAP2 SWAP1 PUSH2 0x267D JUMP JUMPDEST POP DUP2 PUSH1 0x4 SWAP1 DUP2 PUSH2 0x6B0 SWAP2 SWAP1 PUSH2 0x27A4 JUMP JUMPDEST POP DUP3 PUSH32 0xD7068DD93B2B2C580D414706AABBF529878C2A8273CD02BE55B47C38EB2179A1 PUSH1 0x2 PUSH1 0x40 MLOAD PUSH2 0x6E2 SWAP2 SWAP1 PUSH2 0x28F4 JUMP JUMPDEST PUSH1 0x40 MLOAD DUP1 SWAP2 SUB SWAP1 LOG2 PUSH2 0x738 JUMP JUMPDEST DUP1 PUSH1 0x5 SWAP1 DUP2 PUSH2 0x6FE SWAP2 SWAP1 PUSH2 0x27A4 JUMP JUMPDEST POP DUP3 PUSH32 0x31382CF5AC23D51290B15FD9186508D184CEA0CDF3D4F969C0289E39B82C34E3 DUP3 PUSH1 0x40 MLOAD PUSH2 0x72F SWAP2 SWAP1 PUSH2 0x16E9 JUMP JUMPDEST PUSH1 0x40 MLOAD DUP1 SWAP2 SUB SWAP1 LOG2 JUMPDEST POP POP POP JUMP JUMPDEST PUSH0 DUP1 SLOAD SWAP1 PUSH2 0x100 EXP SWAP1 DIV PUSH20 0xFFFFFFFFFFFFFFFFFFFFFFFFFFFFFFFFFFFFFFFF AND PUSH20 0xFFFFFFFFFFFFFFFFFFFFFFFFFFFFFFFFFFFFFFFF AND CALLER PUSH20 0xFFFFFFFFFFFFFFFFFFFFFFFFFFFFFFFFFFFFFFFF AND EQ PUSH2 0x7CA JUMPI PUSH1 0x40 MLOAD PUSH32 0x8C379A000000000000000000000000000000000000000000000000000000000 DUP2 MSTORE PUSH1 0x4 ADD PUSH2 0x7C1 SWAP1 PUSH2 0x295E JUMP JUMPDEST PUSH1 0x40 MLOAD DUP1 SWAP2 SUB SWAP1 REVERT JUMPDEST JUMP JUMPDEST PUSH0 DUP2 MLOAD SUB PUSH2 0x806 JUMPI PUSH1 0x40 MLOAD PUSH32 0x22CE3EDD00000000000000000000000000000000000000000000000000000000 DUP2 MSTORE PUSH1 0x4 ADD PUSH1 0x40 MLOAD DUP1 SWAP2 SUB SWAP1 REVERT JUMPDEST DUP3 DUP5 PUSH0 ADD SWAP1 PUSH1 0x2 DUP2 GT ISZERO PUSH2 0x81D JUMPI PUSH2 0x81C PUSH2 0x297C JUMP JUMPDEST JUMPDEST SWAP1 DUP2 PUSH1 0x2 DUP2 GT ISZERO PUSH2 0x831 JUMPI PUSH2 0x830 PUSH2 0x297C JUMP JUMPDEST JUMPDEST DUP2 MSTORE POP POP DUP2 DUP5 PUSH1 0x40 ADD SWAP1 PUSH0 DUP2 GT ISZERO PUSH2 0x84C JUMPI PUSH2 0x84B PUSH2 0x297C JUMP JUMPDEST JUMPDEST SWAP1 DUP2 PUSH0 DUP2 GT ISZERO PUSH2 0x85F JUMPI PUSH2 0x85E PUSH2 0x297C JUMP JUMPDEST JUMPDEST DUP2 MSTORE POP POP DUP1 DUP5 PUSH1 0x60 ADD DUP2 SWAP1 MSTORE POP POP POP POP POP JUMP JUMPDEST PUSH1 0x60 PUSH0 PUSH2 0x880 PUSH2 0x100 PUSH2 0xE80 JUMP JUMPDEST SWAP1 POP PUSH2 0x8CA PUSH1 0x40 MLOAD DUP1 PUSH1 0x40 ADD PUSH1 0x40 MSTORE DUP1 PUSH1 0xC DUP2 MSTORE PUSH1 0x20 ADD PUSH32 0x636F64654C6F636174696F6E0000000000000000000000000000000000000000 DUP2 MSTORE POP DUP3 PUSH2 0xEA5 SWAP1 SWAP2 SWAP1 PUSH4 0xFFFFFFFF AND JUMP JUMPDEST PUSH2 0x8F2 DUP4 PUSH0 ADD MLOAD PUSH1 0x2 DUP2 GT ISZERO PUSH2 0x8E3 JUMPI PUSH2 0x8E2 PUSH2 0x297C JUMP JUMPDEST JUMPDEST DUP3 PUSH2 0xECD SWAP1 SWAP2 SWAP1 PUSH4 0xFFFFFFFF AND JUMP JUMPDEST PUSH2 0x93A PUSH1 0x40 MLOAD DUP1 PUSH1 0x40 ADD PUSH1 0x40 MSTORE DUP1 PUSH1 0x8 DUP2 MSTORE PUSH1 0x20 ADD PUSH32 0x6C616E6775616765000000000000000000000000000000000000000000000000 DUP2 MSTORE POP DUP3 PUSH2 0xEA5 SWAP1 SWAP2 SWAP1 PUSH4 0xFFFFFFFF AND JUMP JUMPDEST PUSH2 0x962 DUP4 PUSH1 0x40 ADD MLOAD PUSH0 DUP2 GT ISZERO PUSH2 0x953 JUMPI PUSH2 0x952 PUSH2 0x297C JUMP JUMPDEST JUMPDEST DUP3 PUSH2 0xECD SWAP1 SWAP2 SWAP1 PUSH4 0xFFFFFFFF AND JUMP JUMPDEST PUSH2 0x9AA PUSH1 0x40 MLOAD DUP1 PUSH1 0x40 ADD PUSH1 0x40 MSTORE DUP1 PUSH1 0x6 DUP2 MSTORE PUSH1 0x20 ADD PUSH32 0x736F757263650000000000000000000000000000000000000000000000000000 DUP2 MSTORE POP DUP3 PUSH2 0xEA5 SWAP1 SWAP2 SWAP1 PUSH4 0xFFFFFFFF AND JUMP JUMPDEST PUSH2 0x9C1 DUP4 PUSH1 0x60 ADD MLOAD DUP3 PUSH2 0xEA5 SWAP1 SWAP2 SWAP1 PUSH4 0xFFFFFFFF AND JUMP JUMPDEST PUSH0 DUP4 PUSH1 0xA0 ADD MLOAD MLOAD GT ISZERO PUSH2 0xA75 JUMPI PUSH2 0xA16 PUSH1 0x40 MLOAD DUP1 PUSH1 0x40 ADD PUSH1 0x40 MSTORE DUP1 PUSH1 0x4 DUP2 MSTORE PUSH1 0x20 ADD PUSH32 0x6172677300000000000000000000000000000000000000000000000000000000 DUP2 MSTORE POP DUP3 PUSH2 0xEA5 SWAP1 SWAP2 SWAP1 PUSH4 0xFFFFFFFF AND JUMP JUMPDEST PUSH2 0xA1F DUP2 PUSH2 0xF1C JUMP JUMPDEST PUSH0 JUMPDEST DUP4 PUSH1 0xA0 ADD MLOAD MLOAD DUP2 LT ISZERO PUSH2 0xA6A JUMPI PUSH2 0xA5F DUP5 PUSH1 0xA0 ADD MLOAD DUP3 DUP2 MLOAD DUP2 LT PUSH2 0xA48 JUMPI PUSH2 0xA47 PUSH2 0x29A9 JUMP JUMPDEST JUMPDEST PUSH1 0x20 MUL PUSH1 0x20 ADD ADD MLOAD DUP4 PUSH2 0xEA5 SWAP1 SWAP2 SWAP1 PUSH4 0xFFFFFFFF AND JUMP JUMPDEST DUP1 PUSH1 0x1 ADD SWAP1 POP PUSH2 0xA21 JUMP JUMPDEST POP PUSH2 0xA74 DUP2 PUSH2 0xF44 JUMP JUMPDEST JUMPDEST PUSH0 DUP4 PUSH1 0x80 ADD MLOAD MLOAD GT ISZERO PUSH2 0xBB4 JUMPI PUSH0 PUSH1 0x2 DUP2 GT ISZERO PUSH2 0xA95 JUMPI PUSH2 0xA94 PUSH2 0x297C JUMP JUMPDEST JUMPDEST DUP4 PUSH1 0x20 ADD MLOAD PUSH1 0x2 DUP2 GT ISZERO PUSH2 0xAAC JUMPI PUSH2 0xAAB PUSH2 0x297C JUMP JUMPDEST JUMPDEST SUB PUSH2 0xAE3 JUMPI PUSH1 0x40 MLOAD PUSH32 0xA80D31F700000000000000000000000000000000000000000000000000000000 DUP2 MSTORE PUSH1 0x4 ADD PUSH1 0x40 MLOAD DUP1 SWAP2 SUB SWAP1 REVERT JUMPDEST PUSH2 0xB2B PUSH1 0x40 MLOAD DUP1 PUSH1 0x40 ADD PUSH1 0x40 MSTORE DUP1 PUSH1 0xF DUP2 MSTORE PUSH1 0x20 ADD PUSH32 0x736563726574734C6F636174696F6E0000000000000000000000000000000000 DUP2 MSTORE POP DUP3 PUSH2 0xEA5 SWAP1 SWAP2 SWAP1 PUSH4 0xFFFFFFFF AND JUMP JUMPDEST PUSH2 0xB54 DUP4 PUSH1 0x20 ADD MLOAD PUSH1 0x2 DUP2 GT ISZERO PUSH2 0xB45 JUMPI PUSH2 0xB44 PUSH2 0x297C JUMP JUMPDEST JUMPDEST DUP3 PUSH2 0xECD SWAP1 SWAP2 SWAP1 PUSH4 0xFFFFFFFF AND JUMP JUMPDEST PUSH2 0xB9C PUSH1 0x40 MLOAD DUP1 PUSH1 0x40 ADD PUSH1 0x40 MSTORE DUP1 PUSH1 0x7 DUP2 MSTORE PUSH1 0x20 ADD PUSH32 0x7365637265747300000000000000000000000000000000000000000000000000 DUP2 MSTORE POP DUP3 PUSH2 0xEA5 SWAP1 SWAP2 SWAP1 PUSH4 0xFFFFFFFF AND JUMP JUMPDEST PUSH2 0xBB3 DUP4 PUSH1 0x80 ADD MLOAD DUP3 PUSH2 0xF6C SWAP1 SWAP2 SWAP1 PUSH4 0xFFFFFFFF AND JUMP JUMPDEST JUMPDEST PUSH0 DUP4 PUSH1 0xC0 ADD MLOAD MLOAD GT ISZERO PUSH2 0xC68 JUMPI PUSH2 0xC09 PUSH1 0x40 MLOAD DUP1 PUSH1 0x40 ADD PUSH1 0x40 MSTORE DUP1 PUSH1 0x9 DUP2 MSTORE PUSH1 0x20 ADD PUSH32 0x6279746573417267730000000000000000000000000000000000000000000000 DUP2 MSTORE POP DUP3 PUSH2 0xEA5 SWAP1 SWAP2 SWAP1 PUSH4 0xFFFFFFFF AND JUMP JUMPDEST PUSH2 0xC12 DUP2 PUSH2 0xF1C JUMP JUMPDEST PUSH0 JUMPDEST DUP4 PUSH1 0xC0 ADD MLOAD MLOAD DUP2 LT ISZERO PUSH2 0xC5D JUMPI PUSH2 0xC52 DUP5 PUSH1 0xC0 ADD MLOAD DUP3 DUP2 MLOAD DUP2 LT PUSH2 0xC3B JUMPI PUSH2 0xC3A PUSH2 0x29A9 JUMP JUMPDEST JUMPDEST PUSH1 0x20 MUL PUSH1 0x20 ADD ADD MLOAD DUP4 PUSH2 0xF6C SWAP1 SWAP2 SWAP1 PUSH4 0xFFFFFFFF AND JUMP JUMPDEST DUP1 PUSH1 0x1 ADD SWAP1 POP PUSH2 0xC14 JUMP JUMPDEST POP PUSH2 0xC67 DUP2 PUSH2 0xF44 JUMP JUMPDEST JUMPDEST DUP1 PUSH0 ADD MLOAD PUSH0 ADD MLOAD SWAP2 POP POP SWAP2 SWAP1 POP JUMP JUMPDEST PUSH0 DUP1 PUSH32 0x0 PUSH20 0xFFFFFFFFFFFFFFFFFFFFFFFFFFFFFFFFFFFFFFFF AND PUSH4 0x461D2762 DUP7 DUP9 PUSH1 0x1 DUP9 DUP9 PUSH1 0x40 MLOAD DUP7 PUSH4 0xFFFFFFFF AND PUSH1 0xE0 SHL DUP2 MSTORE PUSH1 0x4 ADD PUSH2 0xCDB SWAP6 SWAP5 SWAP4 SWAP3 SWAP2 SWAP1 PUSH2 0x2A32 JUMP JUMPDEST PUSH1 0x20 PUSH1 0x40 MLOAD DUP1 DUP4 SUB DUP2 PUSH0 DUP8 GAS CALL ISZERO DUP1 ISZERO PUSH2 0xCF7 JUMPI RETURNDATASIZE PUSH0 DUP1 RETURNDATACOPY RETURNDATASIZE PUSH0 REVERT JUMPDEST POP POP POP POP PUSH1 0x40 MLOAD RETURNDATASIZE PUSH1 0x1F NOT PUSH1 0x1F DUP3 ADD AND DUP3 ADD DUP1 PUSH1 0x40 MSTORE POP DUP2 ADD SWAP1 PUSH2 0xD1B SWAP2 SWAP1 PUSH2 0x2A9E JUMP JUMPDEST SWAP1 POP DUP1 PUSH32 0x1131472297A800FEE664D1D89CFA8F7676FF07189ECC53F80BBB5F4969099DB8 PUSH1 0x40 MLOAD PUSH1 0x40 MLOAD DUP1 SWAP2 SUB SWAP1 LOG2 DUP1 SWAP2 POP POP SWAP5 SWAP4 POP POP POP POP JUMP JUMPDEST CALLER PUSH20 0xFFFFFFFFFFFFFFFFFFFFFFFFFFFFFFFFFFFFFFFF AND DUP2 PUSH20 0xFFFFFFFFFFFFFFFFFFFFFFFFFFFFFFFFFFFFFFFF AND SUB PUSH2 0xDC4 JUMPI PUSH1 0x40 MLOAD PUSH32 0x8C379A000000000000000000000000000000000000000000000000000000000 DUP2 MSTORE PUSH1 0x4 ADD PUSH2 0xDBB SWAP1 PUSH2 0x2B13 JUMP JUMPDEST PUSH1 0x40 MLOAD DUP1 SWAP2 SUB SWAP1 REVERT JUMPDEST DUP1 PUSH1 0x1 PUSH0 PUSH2 0x100 EXP DUP2 SLOAD DUP2 PUSH20 0xFFFFFFFFFFFFFFFFFFFFFFFFFFFFFFFFFFFFFFFF MUL NOT AND SWAP1 DUP4 PUSH20 0xFFFFFFFFFFFFFFFFFFFFFFFFFFFFFFFFFFFFFFFF AND MUL OR SWAP1 SSTORE POP DUP1 PUSH20 0xFFFFFFFFFFFFFFFFFFFFFFFFFFFFFFFFFFFFFFFF AND PUSH0 DUP1 SLOAD SWAP1 PUSH2 0x100 EXP SWAP1 DIV PUSH20 0xFFFFFFFFFFFFFFFFFFFFFFFFFFFFFFFFFFFFFFFF AND PUSH20 0xFFFFFFFFFFFFFFFFFFFFFFFFFFFFFFFFFFFFFFFF AND PUSH32 0xED8889F560326EB138920D842192F0EB3DD22B4F139C87A2C57538E05BAE1278 PUSH1 0x40 MLOAD PUSH1 0x40 MLOAD DUP1 SWAP2 SUB SWAP1 LOG3 POP JUMP JUMPDEST PUSH2 0xE88 PUSH2 0x1449 JUMP JUMPDEST PUSH2 0xE95 DUP2 PUSH0 ADD MLOAD DUP4 PUSH2 0xF94 JUMP JUMPDEST POP PUSH0 DUP2 PUSH1 0x20 ADD DUP2 DUP2 MSTORE POP POP SWAP2 SWAP1 POP JUMP JUMPDEST PUSH2 0xEB2 DUP3 PUSH1 0x3 DUP4 MLOAD PUSH2 0x100A JUMP JUMPDEST PUSH2 0xEC8 DUP2 DUP4 PUSH0 ADD MLOAD PUSH2 0x11AA SWAP1 SWAP2 SWAP1 PUSH4 0xFFFFFFFF AND JUMP JUMPDEST POP POP POP JUMP JUMPDEST PUSH2 0xEEE PUSH1 0x2 PUSH1 0x5 PUSH1 0x6 PUSH1 0xFF AND SWAP1 SHL OR DUP4 PUSH0 ADD MLOAD PUSH2 0x11C6 SWAP1 SWAP2 SWAP1 PUSH4 0xFFFFFFFF AND JUMP JUMPDEST POP PUSH2 0xF18 DUP3 DUP3 PUSH1 0x40 MLOAD PUSH1 0x20 ADD PUSH2 0xF04 SWAP2 SWAP1 PUSH2 0x2B40 JUMP JUMPDEST PUSH1 0x40 MLOAD PUSH1 0x20 DUP2 DUP4 SUB SUB DUP2 MSTORE SWAP1 PUSH1 0x40 MSTORE PUSH2 0xF6C JUMP JUMPDEST POP POP JUMP JUMPDEST PUSH2 0xF27 DUP2 PUSH1 0x4 PUSH2 0x122D JUMP JUMPDEST PUSH1 0x1 DUP2 PUSH1 0x20 ADD DUP2 DUP2 MLOAD PUSH2 0xF3A SWAP2 SWAP1 PUSH2 0x2B86 JUMP JUMPDEST SWAP2 POP DUP2 DUP2 MSTORE POP POP POP JUMP JUMPDEST PUSH2 0xF4F DUP2 PUSH1 0x7 PUSH2 0x122D JUMP JUMPDEST PUSH1 0x1 DUP2 PUSH1 0x20 ADD DUP2 DUP2 MLOAD PUSH2 0xF62 SWAP2 SWAP1 PUSH2 0x2BB9 JUMP JUMPDEST SWAP2 POP DUP2 DUP2 MSTORE POP POP POP JUMP JUMPDEST PUSH2 0xF79 DUP3 PUSH1 0x2 DUP4 MLOAD PUSH2 0x100A JUMP JUMPDEST PUSH2 0xF8F DUP2 DUP4 PUSH0 ADD MLOAD PUSH2 0x11AA SWAP1 SWAP2 SWAP1 PUSH4 0xFFFFFFFF AND JUMP JUMPDEST POP POP POP JUMP JUMPDEST PUSH2 0xF9C PUSH2 0x1468 JUMP JUMPDEST PUSH0 PUSH1 0x20 DUP4 PUSH2 0xFAA SWAP2 SWAP1 PUSH2 0x2C19 JUMP JUMPDEST EQ PUSH2 0xFD6 JUMPI PUSH1 0x20 DUP3 PUSH2 0xFBC SWAP2 SWAP1 PUSH2 0x2C19 JUMP JUMPDEST PUSH1 0x20 PUSH2 0xFC8 SWAP2 SWAP1 PUSH2 0x2BB9 JUMP JUMPDEST DUP3 PUSH2 0xFD3 SWAP2 SWAP1 PUSH2 0x2B86 JUMP JUMPDEST SWAP2 POP JUMPDEST DUP2 DUP4 PUSH1 0x20 ADD DUP2 DUP2 MSTORE POP POP PUSH1 0x40 MLOAD DUP1 DUP5 MSTORE PUSH0 DUP2 MSTORE DUP3 DUP2 ADD PUSH1 0x20 ADD DUP2 DUP2 LT ISZERO PUSH2 0xFFB JUMPI PUSH0 DUP1 REVERT JUMPDEST DUP1 PUSH1 0x40 MSTORE POP POP DUP3 SWAP1 POP SWAP3 SWAP2 POP POP JUMP JUMPDEST PUSH1 0x17 DUP2 PUSH8 0xFFFFFFFFFFFFFFFF AND GT PUSH2 0x1044 JUMPI PUSH2 0x103E DUP2 PUSH1 0x5 DUP5 PUSH1 0xFF AND SWAP1 SHL PUSH1 0xFF AND OR DUP5 PUSH0 ADD MLOAD PUSH2 0x11C6 SWAP1 SWAP2 SWAP1 PUSH4 0xFFFFFFFF AND JUMP JUMPDEST POP PUSH2 0x11A5 JUMP JUMPDEST PUSH1 0xFF DUP2 PUSH8 0xFFFFFFFFFFFFFFFF AND GT PUSH2 0x10A0 JUMPI PUSH2 0x1076 PUSH1 0x18 PUSH1 0x5 DUP5 PUSH1 0xFF AND SWAP1 SHL OR DUP5 PUSH0 ADD MLOAD PUSH2 0x11C6 SWAP1 SWAP2 SWAP1 PUSH4 0xFFFFFFFF AND JUMP JUMPDEST POP PUSH2 0x109A DUP2 PUSH8 0xFFFFFFFFFFFFFFFF AND PUSH1 0x1 DUP6 PUSH0 ADD MLOAD PUSH2 0x1252 SWAP1 SWAP3 SWAP2 SWAP1 PUSH4 0xFFFFFFFF AND JUMP JUMPDEST POP PUSH2 0x11A4 JUMP JUMPDEST PUSH2 0xFFFF DUP2 PUSH8 0xFFFFFFFFFFFFFFFF AND GT PUSH2 0x10FD JUMPI PUSH2 0x10D3 PUSH1 0x19 PUSH1 0x5 DUP5 PUSH1 0xFF AND SWAP1 SHL OR DUP5 PUSH0 ADD MLOAD PUSH2 0x11C6 SWAP1 SWAP2 SWAP1 PUSH4 0xFFFFFFFF AND JUMP JUMPDEST POP PUSH2 0x10F7 DUP2 PUSH8 0xFFFFFFFFFFFFFFFF AND PUSH1 0x2 DUP6 PUSH0 ADD MLOAD PUSH2 0x1252 SWAP1 SWAP3 SWAP2 SWAP1 PUSH4 0xFFFFFFFF AND JUMP JUMPDEST POP PUSH2 0x11A3 JUMP JUMPDEST PUSH4 0xFFFFFFFF DUP2 PUSH8 0xFFFFFFFFFFFFFFFF AND GT PUSH2 0x115C JUMPI PUSH2 0x1132 PUSH1 0x1A PUSH1 0x5 DUP5 PUSH1 0xFF AND SWAP1 SHL OR DUP5 PUSH0 ADD MLOAD PUSH2 0x11C6 SWAP1 SWAP2 SWAP1 PUSH4 0xFFFFFFFF AND JUMP JUMPDEST POP PUSH2 0x1156 DUP2 PUSH8 0xFFFFFFFFFFFFFFFF AND PUSH1 0x4 DUP6 PUSH0 ADD MLOAD PUSH2 0x1252 SWAP1 SWAP3 SWAP2 SWAP1 PUSH4 0xFFFFFFFF AND JUMP JUMPDEST POP PUSH2 0x11A2 JUMP JUMPDEST PUSH2 0x117C PUSH1 0x1B PUSH1 0x5 DUP5 PUSH1 0xFF AND SWAP1 SHL OR DUP5 PUSH0 ADD MLOAD PUSH2 0x11C6 SWAP1 SWAP2 SWAP1 PUSH4 0xFFFFFFFF AND JUMP JUMPDEST POP PUSH2 0x11A0 DUP2 PUSH8 0xFFFFFFFFFFFFFFFF AND PUSH1 0x8 DUP6 PUSH0 ADD MLOAD PUSH2 0x1252 SWAP1 SWAP3 SWAP2 SWAP1 PUSH4 0xFFFFFFFF AND JUMP JUMPDEST POP JUMPDEST JUMPDEST JUMPDEST JUMPDEST POP POP POP JUMP JUMPDEST PUSH2 0x11B2 PUSH2 0x1468 JUMP JUMPDEST PUSH2 0x11BE DUP4 DUP4 DUP5 MLOAD PUSH2 0x12DB JUMP JUMPDEST SWAP1 POP SWAP3 SWAP2 POP POP JUMP JUMPDEST PUSH2 0x11CE PUSH2 0x1468 JUMP JUMPDEST PUSH0 DUP4 PUSH0 ADD MLOAD MLOAD SWAP1 POP PUSH0 PUSH1 0x1 DUP3 PUSH2 0x11E4 SWAP2 SWAP1 PUSH2 0x2B86 JUMP JUMPDEST SWAP1 POP DUP5 PUSH1 0x20 ADD MLOAD DUP3 LT PUSH2 0x1208 JUMPI PUSH2 0x1207 DUP6 PUSH1 0x2 DUP4 PUSH2 0x1202 SWAP2 SWAP1 PUSH2 0x2C49 JUMP JUMPDEST PUSH2 0x13B8 JUMP JUMPDEST JUMPDEST DUP5 MLOAD PUSH1 0x20 DUP4 DUP3 ADD ADD DUP6 DUP2 MSTORE8 DUP2 MLOAD DUP4 GT ISZERO PUSH2 0x1220 JUMPI DUP3 DUP3 MSTORE JUMPDEST POP POP DUP5 SWAP3 POP POP POP SWAP3 SWAP2 POP POP JUMP JUMPDEST PUSH2 0x124D PUSH1 0x1F PUSH1 0x5 DUP4 PUSH1 0xFF AND SWAP1 SHL OR DUP4 PUSH0 ADD MLOAD PUSH2 0x11C6 SWAP1 SWAP2 SWAP1 PUSH4 0xFFFFFFFF AND JUMP JUMPDEST POP POP POP JUMP JUMPDEST PUSH2 0x125A PUSH2 0x1468 JUMP JUMPDEST PUSH0 DUP5 PUSH0 ADD MLOAD MLOAD SWAP1 POP PUSH0 DUP2 DUP5 PUSH2 0x126F SWAP2 SWAP1 PUSH2 0x2B86 JUMP JUMPDEST SWAP1 POP DUP6 PUSH1 0x20 ADD MLOAD DUP2 GT ISZERO PUSH2 0x1294 JUMPI PUSH2 0x1293 DUP7 PUSH1 0x2 DUP4 PUSH2 0x128E SWAP2 SWAP1 PUSH2 0x2C49 JUMP JUMPDEST PUSH2 0x13B8 JUMP JUMPDEST JUMPDEST PUSH0 PUSH1 0x1 DUP6 PUSH2 0x100 PUSH2 0x12A5 SWAP2 SWAP1 PUSH2 0x2DB9 JUMP JUMPDEST PUSH2 0x12AF SWAP2 SWAP1 PUSH2 0x2BB9 JUMP JUMPDEST SWAP1 POP DUP7 MLOAD DUP3 DUP2 ADD DUP8 DUP4 NOT DUP3 MLOAD AND OR DUP2 MSTORE DUP2 MLOAD DUP5 GT ISZERO PUSH2 0x12CC JUMPI DUP4 DUP3 MSTORE JUMPDEST POP POP DUP7 SWAP4 POP POP POP POP SWAP4 SWAP3 POP POP POP JUMP JUMPDEST PUSH2 0x12E3 PUSH2 0x1468 JUMP JUMPDEST DUP3 MLOAD DUP3 GT ISZERO PUSH2 0x12F0 JUMPI PUSH0 DUP1 REVERT JUMPDEST PUSH0 DUP5 PUSH0 ADD MLOAD MLOAD SWAP1 POP PUSH0 DUP4 DUP3 PUSH2 0x1305 SWAP2 SWAP1 PUSH2 0x2B86 JUMP JUMPDEST SWAP1 POP DUP6 PUSH1 0x20 ADD MLOAD DUP2 GT ISZERO PUSH2 0x132A JUMPI PUSH2 0x1329 DUP7 PUSH1 0x2 DUP4 PUSH2 0x1324 SWAP2 SWAP1 PUSH2 0x2C49 JUMP JUMPDEST PUSH2 0x13B8 JUMP JUMPDEST JUMPDEST PUSH0 DUP1 DUP8 MLOAD DUP1 MLOAD DUP6 PUSH1 0x20 DUP4 ADD ADD SWAP4 POP DUP1 DUP6 GT ISZERO PUSH2 0x1344 JUMPI DUP5 DUP3 MSTORE JUMPDEST PUSH1 0x20 DUP10 ADD SWAP3 POP POP POP JUMPDEST PUSH1 0x20 DUP7 LT PUSH2 0x138B JUMPI DUP1 MLOAD DUP3 MSTORE PUSH1 0x20 DUP3 PUSH2 0x1366 SWAP2 SWAP1 PUSH2 0x2B86 JUMP JUMPDEST SWAP2 POP PUSH1 0x20 DUP2 PUSH2 0x1375 SWAP2 SWAP1 PUSH2 0x2B86 JUMP JUMPDEST SWAP1 POP PUSH1 0x20 DUP7 PUSH2 0x1384 SWAP2 SWAP1 PUSH2 0x2BB9 JUMP JUMPDEST SWAP6 POP PUSH2 0x134D JUMP JUMPDEST PUSH0 PUSH1 0x1 DUP8 PUSH1 0x20 SUB PUSH2 0x100 EXP SUB SWAP1 POP DUP1 NOT DUP3 MLOAD AND DUP2 DUP5 MLOAD AND DUP2 DUP2 OR DUP6 MSTORE POP POP POP DUP8 SWAP5 POP POP POP POP POP SWAP4 SWAP3 POP POP POP JUMP JUMPDEST PUSH0 DUP3 PUSH0 ADD MLOAD SWAP1 POP PUSH2 0x13C9 DUP4 DUP4 PUSH2 0xF94 JUMP JUMPDEST POP PUSH2 0x13D4 DUP4 DUP3 PUSH2 0x11AA JUMP JUMPDEST POP POP POP POP JUMP JUMPDEST PUSH1 0x40 MLOAD DUP1 PUSH1 0xE0 ADD PUSH1 0x40 MSTORE DUP1 PUSH0 PUSH1 0x2 DUP2 GT ISZERO PUSH2 0x13F8 JUMPI PUSH2 0x13F7 PUSH2 0x297C JUMP JUMPDEST JUMPDEST DUP2 MSTORE PUSH1 0x20 ADD PUSH0 PUSH1 0x2 DUP2 GT ISZERO PUSH2 0x1410 JUMPI PUSH2 0x140F PUSH2 0x297C JUMP JUMPDEST JUMPDEST DUP2 MSTORE PUSH1 0x20 ADD PUSH0 DUP1 DUP2 GT ISZERO PUSH2 0x1427 JUMPI PUSH2 0x1426 PUSH2 0x297C JUMP JUMPDEST JUMPDEST DUP2 MSTORE PUSH1 0x20 ADD PUSH1 0x60 DUP2 MSTORE PUSH1 0x20 ADD PUSH1 0x60 DUP2 MSTORE PUSH1 0x20 ADD PUSH1 0x60 DUP2 MSTORE PUSH1 0x20 ADD PUSH1 0x60 DUP2 MSTORE POP SWAP1 JUMP JUMPDEST PUSH1 0x40 MLOAD DUP1 PUSH1 0x40 ADD PUSH1 0x40 MSTORE DUP1 PUSH2 0x145C PUSH2 0x1468 JUMP JUMPDEST DUP2 MSTORE PUSH1 0x20 ADD PUSH0 DUP2 MSTORE POP SWAP1 JUMP JUMPDEST PUSH1 0x40 MLOAD DUP1 PUSH1 0x40 ADD PUSH1 0x40 MSTORE DUP1 PUSH1 0x60 DUP2 MSTORE PUSH1 0x20 ADD PUSH0 DUP2 MSTORE POP SWAP1 JUMP JUMPDEST PUSH0 PUSH1 0x40 MLOAD SWAP1 POP SWAP1 JUMP JUMPDEST PUSH0 DUP1 REVERT JUMPDEST PUSH0 DUP1 REVERT JUMPDEST PUSH0 DUP2 SWAP1 POP SWAP2 SWAP1 POP JUMP JUMPDEST PUSH2 0x14A4 DUP2 PUSH2 0x1492 JUMP JUMPDEST DUP2 EQ PUSH2 0x14AE JUMPI PUSH0 DUP1 REVERT JUMPDEST POP JUMP JUMPDEST PUSH0 DUP2 CALLDATALOAD SWAP1 POP PUSH2 0x14BF DUP2 PUSH2 0x149B JUMP JUMPDEST SWAP3 SWAP2 POP POP JUMP JUMPDEST PUSH0 DUP1 REVERT JUMPDEST PUSH0 DUP1 REVERT JUMPDEST PUSH0 PUSH1 0x1F NOT PUSH1 0x1F DUP4 ADD AND SWAP1 POP SWAP2 SWAP1 POP JUMP JUMPDEST PUSH32 0x4E487B7100000000000000000000000000000000000000000000000000000000 PUSH0 MSTORE PUSH1 0x41 PUSH1 0x4 MSTORE PUSH1 0x24 PUSH0 REVERT JUMPDEST PUSH2 0x1513 DUP3 PUSH2 0x14CD JUMP JUMPDEST DUP2 ADD DUP2 DUP2 LT PUSH8 0xFFFFFFFFFFFFFFFF DUP3 GT OR ISZERO PUSH2 0x1532 JUMPI PUSH2 0x1531 PUSH2 0x14DD JUMP JUMPDEST JUMPDEST DUP1 PUSH1 0x40 MSTORE POP POP POP JUMP JUMPDEST PUSH0 PUSH2 0x1544 PUSH2 0x1481 JUMP JUMPDEST SWAP1 POP PUSH2 0x1550 DUP3 DUP3 PUSH2 0x150A JUMP JUMPDEST SWAP2 SWAP1 POP JUMP JUMPDEST PUSH0 PUSH8 0xFFFFFFFFFFFFFFFF DUP3 GT ISZERO PUSH2 0x156F JUMPI PUSH2 0x156E PUSH2 0x14DD JUMP JUMPDEST JUMPDEST PUSH2 0x1578 DUP3 PUSH2 0x14CD JUMP JUMPDEST SWAP1 POP PUSH1 0x20 DUP2 ADD SWAP1 POP SWAP2 SWAP1 POP JUMP JUMPDEST DUP3 DUP2 DUP4 CALLDATACOPY PUSH0 DUP4 DUP4 ADD MSTORE POP POP POP JUMP JUMPDEST PUSH0 PUSH2 0x15A5 PUSH2 0x15A0 DUP5 PUSH2 0x1555 JUMP JUMPDEST PUSH2 0x153B JUMP JUMPDEST SWAP1 POP DUP3 DUP2 MSTORE PUSH1 0x20 DUP2 ADD DUP5 DUP5 DUP5 ADD GT ISZERO PUSH2 0x15C1 JUMPI PUSH2 0x15C0 PUSH2 0x14C9 JUMP JUMPDEST JUMPDEST PUSH2 0x15CC DUP5 DUP3 DUP6 PUSH2 0x1585 JUMP JUMPDEST POP SWAP4 SWAP3 POP POP POP JUMP JUMPDEST PUSH0 DUP3 PUSH1 0x1F DUP4 ADD SLT PUSH2 0x15E8 JUMPI PUSH2 0x15E7 PUSH2 0x14C5 JUMP JUMPDEST JUMPDEST DUP2 CALLDATALOAD PUSH2 0x15F8 DUP5 DUP3 PUSH1 0x20 DUP7 ADD PUSH2 0x1593 JUMP JUMPDEST SWAP2 POP POP SWAP3 SWAP2 POP POP JUMP JUMPDEST PUSH0 DUP1 PUSH0 PUSH1 0x60 DUP5 DUP7 SUB SLT ISZERO PUSH2 0x1618 JUMPI PUSH2 0x1617 PUSH2 0x148A JUMP JUMPDEST JUMPDEST PUSH0 PUSH2 0x1625 DUP7 DUP3 DUP8 ADD PUSH2 0x14B1 JUMP JUMPDEST SWAP4 POP POP PUSH1 0x20 DUP5 ADD CALLDATALOAD PUSH8 0xFFFFFFFFFFFFFFFF DUP2 GT ISZERO PUSH2 0x1646 JUMPI PUSH2 0x1645 PUSH2 0x148E JUMP JUMPDEST JUMPDEST PUSH2 0x1652 DUP7 DUP3 DUP8 ADD PUSH2 0x15D4 JUMP JUMPDEST SWAP3 POP POP PUSH1 0x40 DUP5 ADD CALLDATALOAD PUSH8 0xFFFFFFFFFFFFFFFF DUP2 GT ISZERO PUSH2 0x1673 JUMPI PUSH2 0x1672 PUSH2 0x148E JUMP JUMPDEST JUMPDEST PUSH2 0x167F DUP7 DUP3 DUP8 ADD PUSH2 0x15D4 JUMP JUMPDEST SWAP2 POP POP SWAP3 POP SWAP3 POP SWAP3 JUMP JUMPDEST PUSH0 DUP2 MLOAD SWAP1 POP SWAP2 SWAP1 POP JUMP JUMPDEST PUSH0 DUP3 DUP3 MSTORE PUSH1 0x20 DUP3 ADD SWAP1 POP SWAP3 SWAP2 POP POP JUMP JUMPDEST DUP3 DUP2 DUP4 MCOPY PUSH0 DUP4 DUP4 ADD MSTORE POP POP POP JUMP JUMPDEST PUSH0 PUSH2 0x16BB DUP3 PUSH2 0x1689 JUMP JUMPDEST PUSH2 0x16C5 DUP2 DUP6 PUSH2 0x1693 JUMP JUMPDEST SWAP4 POP PUSH2 0x16D5 DUP2 DUP6 PUSH1 0x20 DUP7 ADD PUSH2 0x16A3 JUMP JUMPDEST PUSH2 0x16DE DUP2 PUSH2 0x14CD JUMP JUMPDEST DUP5 ADD SWAP2 POP POP SWAP3 SWAP2 POP POP JUMP JUMPDEST PUSH0 PUSH1 0x20 DUP3 ADD SWAP1 POP DUP2 DUP2 SUB PUSH0 DUP4 ADD MSTORE PUSH2 0x1701 DUP2 DUP5 PUSH2 0x16B1 JUMP JUMPDEST SWAP1 POP SWAP3 SWAP2 POP POP JUMP JUMPDEST PUSH0 DUP2 MLOAD SWAP1 POP SWAP2 SWAP1 POP JUMP JUMPDEST PUSH0 DUP3 DUP3 MSTORE PUSH1 0x20 DUP3 ADD SWAP1 POP SWAP3 SWAP2 POP POP JUMP JUMPDEST PUSH0 PUSH2 0x172D DUP3 PUSH2 0x1709 JUMP JUMPDEST PUSH2 0x1737 DUP2 DUP6 PUSH2 0x1713 JUMP JUMPDEST SWAP4 POP PUSH2 0x1747 DUP2 DUP6 PUSH1 0x20 DUP7 ADD PUSH2 0x16A3 JUMP JUMPDEST PUSH2 0x1750 DUP2 PUSH2 0x14CD JUMP JUMPDEST DUP5 ADD SWAP2 POP POP SWAP3 SWAP2 POP POP JUMP JUMPDEST PUSH0 PUSH1 0x20 DUP3 ADD SWAP1 POP DUP2 DUP2 SUB PUSH0 DUP4 ADD MSTORE PUSH2 0x1773 DUP2 DUP5 PUSH2 0x1723 JUMP JUMPDEST SWAP1 POP SWAP3 SWAP2 POP POP JUMP JUMPDEST PUSH0 PUSH20 0xFFFFFFFFFFFFFFFFFFFFFFFFFFFFFFFFFFFFFFFF DUP3 AND SWAP1 POP SWAP2 SWAP1 POP JUMP JUMPDEST PUSH0 PUSH2 0x17A4 DUP3 PUSH2 0x177B JUMP JUMPDEST SWAP1 POP SWAP2 SWAP1 POP JUMP JUMPDEST PUSH2 0x17B4 DUP2 PUSH2 0x179A JUMP JUMPDEST DUP3 MSTORE POP POP JUMP JUMPDEST PUSH0 PUSH1 0x20 DUP3 ADD SWAP1 POP PUSH2 0x17CD PUSH0 DUP4 ADD DUP5 PUSH2 0x17AB JUMP JUMPDEST SWAP3 SWAP2 POP POP JUMP JUMPDEST PUSH2 0x17DC DUP2 PUSH2 0x179A JUMP JUMPDEST DUP2 EQ PUSH2 0x17E6 JUMPI PUSH0 DUP1 REVERT JUMPDEST POP JUMP JUMPDEST PUSH0 DUP2 CALLDATALOAD SWAP1 POP PUSH2 0x17F7 DUP2 PUSH2 0x17D3 JUMP JUMPDEST SWAP3 SWAP2 POP POP JUMP JUMPDEST PUSH0 PUSH1 0x20 DUP3 DUP5 SUB SLT ISZERO PUSH2 0x1812 JUMPI PUSH2 0x1811 PUSH2 0x148A JUMP JUMPDEST JUMPDEST PUSH0 PUSH2 0x181F DUP5 DUP3 DUP6 ADD PUSH2 0x17E9 JUMP JUMPDEST SWAP2 POP POP SWAP3 SWAP2 POP POP JUMP JUMPDEST PUSH2 0x1831 DUP2 PUSH2 0x1492 JUMP JUMPDEST DUP3 MSTORE POP POP JUMP JUMPDEST PUSH0 PUSH1 0x20 DUP3 ADD SWAP1 POP PUSH2 0x184A PUSH0 DUP4 ADD DUP5 PUSH2 0x1828 JUMP JUMPDEST SWAP3 SWAP2 POP POP JUMP JUMPDEST PUSH32 0x4E487B7100000000000000000000000000000000000000000000000000000000 PUSH0 MSTORE PUSH1 0x22 PUSH1 0x4 MSTORE PUSH1 0x24 PUSH0 REVERT JUMPDEST PUSH0 PUSH1 0x2 DUP3 DIV SWAP1 POP PUSH1 0x1 DUP3 AND DUP1 PUSH2 0x1894 JUMPI PUSH1 0x7F DUP3 AND SWAP2 POP JUMPDEST PUSH1 0x20 DUP3 LT DUP2 SUB PUSH2 0x18A7 JUMPI PUSH2 0x18A6 PUSH2 0x1850 JUMP JUMPDEST JUMPDEST POP SWAP2 SWAP1 POP JUMP JUMPDEST PUSH32 0x4D7573742062652070726F706F736564206F776E657200000000000000000000 PUSH0 DUP3 ADD MSTORE POP JUMP JUMPDEST PUSH0 PUSH2 0x18E1 PUSH1 0x16 DUP4 PUSH2 0x1693 JUMP JUMPDEST SWAP2 POP PUSH2 0x18EC DUP3 PUSH2 0x18AD JUMP JUMPDEST PUSH1 0x20 DUP3 ADD SWAP1 POP SWAP2 SWAP1 POP JUMP JUMPDEST PUSH0 PUSH1 0x20 DUP3 ADD SWAP1 POP DUP2 DUP2 SUB PUSH0 DUP4 ADD MSTORE PUSH2 0x190E DUP2 PUSH2 0x18D5 JUMP JUMPDEST SWAP1 POP SWAP2 SWAP1 POP JUMP JUMPDEST PUSH0 DUP2 SWAP1 POP SWAP3 SWAP2 POP POP JUMP JUMPDEST PUSH32 0x2F2F204164617074656420746F20696E74657261637420776974682074686520 PUSH0 DUP3 ADD MSTORE PUSH32 0x476F6F676C652047656E65726174697665204C616E6775616765204150490A00 PUSH1 0x20 DUP3 ADD MSTORE POP JUMP JUMPDEST PUSH0 PUSH2 0x1979 PUSH1 0x3F DUP4 PUSH2 0x1915 JUMP JUMPDEST SWAP2 POP PUSH2 0x1984 DUP3 PUSH2 0x191F JUMP JUMPDEST PUSH1 0x3F DUP3 ADD SWAP1 POP SWAP2 SWAP1 POP JUMP JUMPDEST PUSH32 0x636F6E7374206170694B6579203D202741497A61537944705754694F6E783934 PUSH0 DUP3 ADD MSTORE PUSH32 0x414E435266354A30466F356D5563754A665F4E56793649273B0A000000000000 PUSH1 0x20 DUP3 ADD MSTORE POP JUMP JUMPDEST PUSH0 PUSH2 0x19E9 PUSH1 0x3A DUP4 PUSH2 0x1915 JUMP JUMPDEST SWAP2 POP PUSH2 0x19F4 DUP3 PUSH2 0x198F JUMP JUMPDEST PUSH1 0x3A DUP3 ADD SWAP1 POP SWAP2 SWAP1 POP JUMP JUMPDEST PUSH32 0x636F6E73742061706955726C203D206068747470733A2F2F67656E6572617469 PUSH0 DUP3 ADD MSTORE PUSH32 0x76656C616E67756167652E676F6F676C65617069732E636F6D2F763162657461 PUSH1 0x20 DUP3 ADD MSTORE PUSH32 0x2F6D6F64656C732F67656D696E692D312E352D666C6173683A67656E65726174 PUSH1 0x40 DUP3 ADD MSTORE PUSH32 0x65436F6E74656E743F6B65793D247B6170694B65797D603B0A00000000000000 PUSH1 0x60 DUP3 ADD MSTORE POP JUMP JUMPDEST PUSH0 PUSH2 0x1AA5 PUSH1 0x79 DUP4 PUSH2 0x1915 JUMP JUMPDEST SWAP2 POP PUSH2 0x1AB0 DUP3 PUSH2 0x19FF JUMP JUMPDEST PUSH1 0x79 DUP3 ADD SWAP1 POP SWAP2 SWAP1 POP JUMP JUMPDEST PUSH32 0x636F6E73742072657175657374426F6479203D207B0A00000000000000000000 PUSH0 DUP3 ADD MSTORE POP JUMP JUMPDEST PUSH0 PUSH2 0x1AEF PUSH1 0x16 DUP4 PUSH2 0x1915 JUMP JUMPDEST SWAP2 POP PUSH2 0x1AFA DUP3 PUSH2 0x1ABB JUMP JUMPDEST PUSH1 0x16 DUP3 ADD SWAP1 POP SWAP2 SWAP1 POP JUMP JUMPDEST PUSH32 0x202070726F6D70743A207B0A0000000000000000000000000000000000000000 PUSH0 DUP3 ADD MSTORE POP JUMP JUMPDEST PUSH0 PUSH2 0x1B39 PUSH1 0xC DUP4 PUSH2 0x1915 JUMP JUMPDEST SWAP2 POP PUSH2 0x1B44 DUP3 PUSH2 0x1B05 JUMP JUMPDEST PUSH1 0xC DUP3 ADD SWAP1 POP SWAP2 SWAP1 POP JUMP JUMPDEST PUSH32 0x202020206D657373616765733A205B7B0A000000000000000000000000000000 PUSH0 DUP3 ADD MSTORE POP JUMP JUMPDEST PUSH0 PUSH2 0x1B83 PUSH1 0x11 DUP4 PUSH2 0x1915 JUMP JUMPDEST SWAP2 POP PUSH2 0x1B8E DUP3 PUSH2 0x1B4F JUMP JUMPDEST PUSH1 0x11 DUP3 ADD SWAP1 POP SWAP2 SWAP1 POP JUMP JUMPDEST PUSH32 0x202020202020636F6E74656E743A20274F6E65206E616D6520666F7220612074 PUSH0 DUP3 ADD MSTORE PUSH32 0x65616D207769746820626C6F636B636861696E207265666572656E63652E204A PUSH1 0x20 DUP3 ADD MSTORE PUSH32 0x75737420746865206E616D652C207769746820506F702063756C747572652072 PUSH1 0x40 DUP3 ADD MSTORE PUSH32 0x65666572656E63652E270A000000000000000000000000000000000000000000 PUSH1 0x60 DUP3 ADD MSTORE POP JUMP JUMPDEST PUSH0 PUSH2 0x1C3F PUSH1 0x6B DUP4 PUSH2 0x1915 JUMP JUMPDEST SWAP2 POP PUSH2 0x1C4A DUP3 PUSH2 0x1B99 JUMP JUMPDEST PUSH1 0x6B DUP3 ADD SWAP1 POP SWAP2 SWAP1 POP JUMP JUMPDEST PUSH32 0x202020207D5D0A00000000000000000000000000000000000000000000000000 PUSH0 DUP3 ADD MSTORE POP JUMP JUMPDEST PUSH0 PUSH2 0x1C89 PUSH1 0x7 DUP4 PUSH2 0x1915 JUMP JUMPDEST SWAP2 POP PUSH2 0x1C94 DUP3 PUSH2 0x1C55 JUMP JUMPDEST PUSH1 0x7 DUP3 ADD SWAP1 POP SWAP2 SWAP1 POP JUMP JUMPDEST PUSH32 0x20207D0A00000000000000000000000000000000000000000000000000000000 PUSH0 DUP3 ADD MSTORE POP JUMP JUMPDEST PUSH0 PUSH2 0x1CD3 PUSH1 0x4 DUP4 PUSH2 0x1915 JUMP JUMPDEST SWAP2 POP PUSH2 0x1CDE DUP3 PUSH2 0x1C9F JUMP JUMPDEST PUSH1 0x4 DUP3 ADD SWAP1 POP SWAP2 SWAP1 POP JUMP JUMPDEST PUSH32 0x7D3B0A0000000000000000000000000000000000000000000000000000000000 PUSH0 DUP3 ADD MSTORE POP JUMP JUMPDEST PUSH0 PUSH2 0x1D1D PUSH1 0x3 DUP4 PUSH2 0x1915 JUMP JUMPDEST SWAP2 POP PUSH2 0x1D28 DUP3 PUSH2 0x1CE9 JUMP JUMPDEST PUSH1 0x3 DUP3 ADD SWAP1 POP SWAP2 SWAP1 POP JUMP JUMPDEST PUSH32 0x747279207B0A0000000000000000000000000000000000000000000000000000 PUSH0 DUP3 ADD MSTORE POP JUMP JUMPDEST PUSH0 PUSH2 0x1D67 PUSH1 0x6 DUP4 PUSH2 0x1915 JUMP JUMPDEST SWAP2 POP PUSH2 0x1D72 DUP3 PUSH2 0x1D33 JUMP JUMPDEST PUSH1 0x6 DUP3 ADD SWAP1 POP SWAP2 SWAP1 POP JUMP JUMPDEST PUSH32 0x2020636F6E737420617069526573706F6E7365203D2061776169742046756E63 PUSH0 DUP3 ADD MSTORE PUSH32 0x74696F6E732E6D616B654874747052657175657374287B0A0000000000000000 PUSH1 0x20 DUP3 ADD MSTORE POP JUMP JUMPDEST PUSH0 PUSH2 0x1DD7 PUSH1 0x38 DUP4 PUSH2 0x1915 JUMP JUMPDEST SWAP2 POP PUSH2 0x1DE2 DUP3 PUSH2 0x1D7D JUMP JUMPDEST PUSH1 0x38 DUP3 ADD SWAP1 POP SWAP2 SWAP1 POP JUMP JUMPDEST PUSH32 0x2020202075726C3A2061706955726C2C0A000000000000000000000000000000 PUSH0 DUP3 ADD MSTORE POP JUMP JUMPDEST PUSH0 PUSH2 0x1E21 PUSH1 0x11 DUP4 PUSH2 0x1915 JUMP JUMPDEST SWAP2 POP PUSH2 0x1E2C DUP3 PUSH2 0x1DED JUMP JUMPDEST PUSH1 0x11 DUP3 ADD SWAP1 POP SWAP2 SWAP1 POP JUMP JUMPDEST PUSH32 0x202020206D6574686F643A2027504F5354272C0A000000000000000000000000 PUSH0 DUP3 ADD MSTORE POP JUMP JUMPDEST PUSH0 PUSH2 0x1E6B PUSH1 0x14 DUP4 PUSH2 0x1915 JUMP JUMPDEST SWAP2 POP PUSH2 0x1E76 DUP3 PUSH2 0x1E37 JUMP JUMPDEST PUSH1 0x14 DUP3 ADD SWAP1 POP SWAP2 SWAP1 POP JUMP JUMPDEST PUSH32 0x20202020686561646572733A207B2027436F6E74656E742D54797065273A2027 PUSH0 DUP3 ADD MSTORE PUSH32 0x6170706C69636174696F6E2F6A736F6E27207D2C0A0000000000000000000000 PUSH1 0x20 DUP3 ADD MSTORE POP JUMP JUMPDEST PUSH0 PUSH2 0x1EDB PUSH1 0x35 DUP4 PUSH2 0x1915 JUMP JUMPDEST SWAP2 POP PUSH2 0x1EE6 DUP3 PUSH2 0x1E81 JUMP JUMPDEST PUSH1 0x35 DUP3 ADD SWAP1 POP SWAP2 SWAP1 POP JUMP JUMPDEST PUSH32 0x20202020646174613A2072657175657374426F64792C0A000000000000000000 PUSH0 DUP3 ADD MSTORE POP JUMP JUMPDEST PUSH0 PUSH2 0x1F25 PUSH1 0x17 DUP4 PUSH2 0x1915 JUMP JUMPDEST SWAP2 POP PUSH2 0x1F30 DUP3 PUSH2 0x1EF1 JUMP JUMPDEST PUSH1 0x17 DUP3 ADD SWAP1 POP SWAP2 SWAP1 POP JUMP JUMPDEST PUSH32 0x2020202074696D656F75743A2032303030300A00000000000000000000000000 PUSH0 DUP3 ADD MSTORE POP JUMP JUMPDEST PUSH0 PUSH2 0x1F6F PUSH1 0x13 DUP4 PUSH2 0x1915 JUMP JUMPDEST SWAP2 POP PUSH2 0x1F7A DUP3 PUSH2 0x1F3B JUMP JUMPDEST PUSH1 0x13 DUP3 ADD SWAP1 POP SWAP2 SWAP1 POP JUMP JUMPDEST PUSH32 0x20207D293B0A0000000000000000000000000000000000000000000000000000 PUSH0 DUP3 ADD MSTORE POP JUMP JUMPDEST PUSH0 PUSH2 0x1FB9 PUSH1 0x6 DUP4 PUSH2 0x1915 JUMP JUMPDEST SWAP2 POP PUSH2 0x1FC4 DUP3 PUSH2 0x1F85 JUMP JUMPDEST PUSH1 0x6 DUP3 ADD SWAP1 POP SWAP2 SWAP1 POP JUMP JUMPDEST PUSH32 0x202069662028617069526573706F6E73652E6572726F7229207B0A0000000000 PUSH0 DUP3 ADD MSTORE POP JUMP JUMPDEST PUSH0 PUSH2 0x2003 PUSH1 0x1B DUP4 PUSH2 0x1915 JUMP JUMPDEST SWAP2 POP PUSH2 0x200E DUP3 PUSH2 0x1FCF JUMP JUMPDEST PUSH1 0x1B DUP3 ADD SWAP1 POP SWAP2 SWAP1 POP JUMP JUMPDEST PUSH32 0x202020207468726F77206E6577204572726F7228275265717565737420666169 PUSH0 DUP3 ADD MSTORE PUSH32 0x6C656427293B0A00000000000000000000000000000000000000000000000000 PUSH1 0x20 DUP3 ADD MSTORE POP JUMP JUMPDEST PUSH0 PUSH2 0x2073 PUSH1 0x27 DUP4 PUSH2 0x1915 JUMP JUMPDEST SWAP2 POP PUSH2 0x207E DUP3 PUSH2 0x2019 JUMP JUMPDEST PUSH1 0x27 DUP3 ADD SWAP1 POP SWAP2 SWAP1 POP JUMP JUMPDEST PUSH32 0x2020636F6E737420636F6E74656E74203D20617069526573706F6E73652E6461 PUSH0 DUP3 ADD MSTORE PUSH32 0x74612E63616E646964617465735B305D2E6F75747075743B0A00000000000000 PUSH1 0x20 DUP3 ADD MSTORE POP JUMP JUMPDEST PUSH0 PUSH2 0x20E3 PUSH1 0x39 DUP4 PUSH2 0x1915 JUMP JUMPDEST SWAP2 POP PUSH2 0x20EE DUP3 PUSH2 0x2089 JUMP JUMPDEST PUSH1 0x39 DUP3 ADD SWAP1 POP SWAP2 SWAP1 POP JUMP JUMPDEST PUSH32 0x20206966202821636F6E74656E7429207B0A0000000000000000000000000000 PUSH0 DUP3 ADD MSTORE POP JUMP JUMPDEST PUSH0 PUSH2 0x212D PUSH1 0x12 DUP4 PUSH2 0x1915 JUMP JUMPDEST SWAP2 POP PUSH2 0x2138 DUP3 PUSH2 0x20F9 JUMP JUMPDEST PUSH1 0x12 DUP3 ADD SWAP1 POP SWAP2 SWAP1 POP JUMP JUMPDEST PUSH32 0x202020207468726F77206E6577204572726F722827556E657870656374656420 PUSH0 DUP3 ADD MSTORE PUSH32 0x41504920726573706F6E736520737472756374757265206F72206D697373696E PUSH1 0x20 DUP3 ADD MSTORE PUSH32 0x6720636F6E74656E742E27293B0A000000000000000000000000000000000000 PUSH1 0x40 DUP3 ADD MSTORE POP JUMP JUMPDEST PUSH0 PUSH2 0x21C3 PUSH1 0x4E DUP4 PUSH2 0x1915 JUMP JUMPDEST SWAP2 POP PUSH2 0x21CE DUP3 PUSH2 0x2143 JUMP JUMPDEST PUSH1 0x4E DUP3 ADD SWAP1 POP SWAP2 SWAP1 POP JUMP JUMPDEST PUSH32 0x202072657475726E2046756E6374696F6E732E656E636F6465537472696E6728 PUSH0 DUP3 ADD MSTORE PUSH32 0x636F6E74656E74293B0A00000000000000000000000000000000000000000000 PUSH1 0x20 DUP3 ADD MSTORE POP JUMP JUMPDEST PUSH0 PUSH2 0x2233 PUSH1 0x2A DUP4 PUSH2 0x1915 JUMP JUMPDEST SWAP2 POP PUSH2 0x223E DUP3 PUSH2 0x21D9 JUMP JUMPDEST PUSH1 0x2A DUP3 ADD SWAP1 POP SWAP2 SWAP1 POP JUMP JUMPDEST PUSH32 0x7D20636174636820286572726F7229207B0A0000000000000000000000000000 PUSH0 DUP3 ADD MSTORE POP JUMP JUMPDEST PUSH0 PUSH2 0x227D PUSH1 0x12 DUP4 PUSH2 0x1915 JUMP JUMPDEST SWAP2 POP PUSH2 0x2288 DUP3 PUSH2 0x2249 JUMP JUMPDEST PUSH1 0x12 DUP3 ADD SWAP1 POP SWAP2 SWAP1 POP JUMP JUMPDEST PUSH32 0x20207468726F77206572726F723B0A0000000000000000000000000000000000 PUSH0 DUP3 ADD MSTORE POP JUMP JUMPDEST PUSH0 PUSH2 0x22C7 PUSH1 0xF DUP4 PUSH2 0x1915 JUMP JUMPDEST SWAP2 POP PUSH2 0x22D2 DUP3 PUSH2 0x2293 JUMP JUMPDEST PUSH1 0xF DUP3 ADD SWAP1 POP SWAP2 SWAP1 POP JUMP JUMPDEST PUSH32 0x7D00000000000000000000000000000000000000000000000000000000000000 PUSH0 DUP3 ADD MSTORE POP JUMP JUMPDEST PUSH0 PUSH2 0x2311 PUSH1 0x1 DUP4 PUSH2 0x1915 JUMP JUMPDEST SWAP2 POP PUSH2 0x231C DUP3 PUSH2 0x22DD JUMP JUMPDEST PUSH1 0x1 DUP3 ADD SWAP1 POP SWAP2 SWAP1 POP JUMP JUMPDEST PUSH0 PUSH2 0x2331 DUP3 PUSH2 0x196D JUMP JUMPDEST SWAP2 POP PUSH2 0x233C DUP3 PUSH2 0x19DD JUMP JUMPDEST SWAP2 POP PUSH2 0x2347 DUP3 PUSH2 0x1A99 JUMP JUMPDEST SWAP2 POP PUSH2 0x2352 DUP3 PUSH2 0x1AE3 JUMP JUMPDEST SWAP2 POP PUSH2 0x235D DUP3 PUSH2 0x1B2D JUMP JUMPDEST SWAP2 POP PUSH2 0x2368 DUP3 PUSH2 0x1B77 JUMP JUMPDEST SWAP2 POP PUSH2 0x2373 DUP3 PUSH2 0x1C33 JUMP JUMPDEST SWAP2 POP PUSH2 0x237E DUP3 PUSH2 0x1C7D JUMP JUMPDEST SWAP2 POP PUSH2 0x2389 DUP3 PUSH2 0x1CC7 JUMP JUMPDEST SWAP2 POP PUSH2 0x2394 DUP3 PUSH2 0x1D11 JUMP JUMPDEST SWAP2 POP PUSH2 0x239F DUP3 PUSH2 0x1D5B JUMP JUMPDEST SWAP2 POP PUSH2 0x23AA DUP3 PUSH2 0x1DCB JUMP JUMPDEST SWAP2 POP PUSH2 0x23B5 DUP3 PUSH2 0x1E15 JUMP JUMPDEST SWAP2 POP PUSH2 0x23C0 DUP3 PUSH2 0x1E5F JUMP JUMPDEST SWAP2 POP PUSH2 0x23CB DUP3 PUSH2 0x1ECF JUMP JUMPDEST SWAP2 POP PUSH2 0x23D6 DUP3 PUSH2 0x1F19 JUMP JUMPDEST SWAP2 POP PUSH2 0x23E1 DUP3 PUSH2 0x1F63 JUMP JUMPDEST SWAP2 POP PUSH2 0x23EC DUP3 PUSH2 0x1FAD JUMP JUMPDEST SWAP2 POP PUSH2 0x23F7 DUP3 PUSH2 0x1FF7 JUMP JUMPDEST SWAP2 POP PUSH2 0x2402 DUP3 PUSH2 0x2067 JUMP JUMPDEST SWAP2 POP PUSH2 0x240D DUP3 PUSH2 0x1CC7 JUMP JUMPDEST SWAP2 POP PUSH2 0x2418 DUP3 PUSH2 0x20D7 JUMP JUMPDEST SWAP2 POP PUSH2 0x2423 DUP3 PUSH2 0x2121 JUMP JUMPDEST SWAP2 POP PUSH2 0x242E DUP3 PUSH2 0x21B7 JUMP JUMPDEST SWAP2 POP PUSH2 0x2439 DUP3 PUSH2 0x1CC7 JUMP JUMPDEST SWAP2 POP PUSH2 0x2444 DUP3 PUSH2 0x2227 JUMP JUMPDEST SWAP2 POP PUSH2 0x244F DUP3 PUSH2 0x2271 JUMP JUMPDEST SWAP2 POP PUSH2 0x245A DUP3 PUSH2 0x22BB JUMP JUMPDEST SWAP2 POP PUSH2 0x2465 DUP3 PUSH2 0x2305 JUMP JUMPDEST SWAP2 POP DUP2 SWAP1 POP SWAP2 SWAP1 POP JUMP JUMPDEST PUSH32 0x4661696C656420746F2073656E64207265717565737400000000000000000000 PUSH0 DUP3 ADD MSTORE POP JUMP JUMPDEST PUSH0 PUSH2 0x24A3 PUSH1 0x16 DUP4 PUSH2 0x1693 JUMP JUMPDEST SWAP2 POP PUSH2 0x24AE DUP3 PUSH2 0x246F JUMP JUMPDEST PUSH1 0x20 DUP3 ADD SWAP1 POP SWAP2 SWAP1 POP JUMP JUMPDEST PUSH0 PUSH1 0x20 DUP3 ADD SWAP1 POP DUP2 DUP2 SUB PUSH0 DUP4 ADD MSTORE PUSH2 0x24D0 DUP2 PUSH2 0x2497 JUMP JUMPDEST SWAP1 POP SWAP2 SWAP1 POP JUMP JUMPDEST PUSH0 DUP2 SWAP1 POP DUP2 PUSH0 MSTORE PUSH1 0x20 PUSH0 KECCAK256 SWAP1 POP SWAP2 SWAP1 POP JUMP JUMPDEST PUSH0 PUSH1 0x20 PUSH1 0x1F DUP4 ADD DIV SWAP1 POP SWAP2 SWAP1 POP JUMP JUMPDEST PUSH0 DUP3 DUP3 SHL SWAP1 POP SWAP3 SWAP2 POP POP JUMP JUMPDEST PUSH0 PUSH1 0x8 DUP4 MUL PUSH2 0x2533 PUSH32 0xFFFFFFFFFFFFFFFFFFFFFFFFFFFFFFFFFFFFFFFFFFFFFFFFFFFFFFFFFFFFFFFF DUP3 PUSH2 0x24F8 JUMP JUMPDEST PUSH2 0x253D DUP7 DUP4 PUSH2 0x24F8 JUMP JUMPDEST SWAP6 POP DUP1 NOT DUP5 AND SWAP4 POP DUP1 DUP7 AND DUP5 OR SWAP3 POP POP POP SWAP4 SWAP3 POP POP POP JUMP JUMPDEST PUSH0 DUP2 SWAP1 POP SWAP2 SWAP1 POP JUMP JUMPDEST PUSH0 DUP2 SWAP1 POP SWAP2 SWAP1 POP JUMP JUMPDEST PUSH0 PUSH2 0x2581 PUSH2 0x257C PUSH2 0x2577 DUP5 PUSH2 0x2555 JUMP JUMPDEST PUSH2 0x255E JUMP JUMPDEST PUSH2 0x2555 JUMP JUMPDEST SWAP1 POP SWAP2 SWAP1 POP JUMP JUMPDEST PUSH0 DUP2 SWAP1 POP SWAP2 SWAP1 POP JUMP JUMPDEST PUSH2 0x259A DUP4 PUSH2 0x2567 JUMP JUMPDEST PUSH2 0x25AE PUSH2 0x25A6 DUP3 PUSH2 0x2588 JUMP JUMPDEST DUP5 DUP5 SLOAD PUSH2 0x2504 JUMP JUMPDEST DUP3 SSTORE POP POP POP POP JUMP JUMPDEST PUSH0 SWAP1 JUMP JUMPDEST PUSH2 0x25C2 PUSH2 0x25B6 JUMP JUMPDEST PUSH2 0x25CD DUP2 DUP5 DUP5 PUSH2 0x2591 JUMP JUMPDEST POP POP POP JUMP JUMPDEST JUMPDEST DUP2 DUP2 LT ISZERO PUSH2 0x25F0 JUMPI PUSH2 0x25E5 PUSH0 DUP3 PUSH2 0x25BA JUMP JUMPDEST PUSH1 0x1 DUP2 ADD SWAP1 POP PUSH2 0x25D3 JUMP JUMPDEST POP POP JUMP JUMPDEST PUSH1 0x1F DUP3 GT ISZERO PUSH2 0x2635 JUMPI PUSH2 0x2606 DUP2 PUSH2 0x24D7 JUMP JUMPDEST PUSH2 0x260F DUP5 PUSH2 0x24E9 JUMP JUMPDEST DUP2 ADD PUSH1 0x20 DUP6 LT ISZERO PUSH2 0x261E JUMPI DUP2 SWAP1 POP JUMPDEST PUSH2 0x2632 PUSH2 0x262A DUP6 PUSH2 0x24E9 JUMP JUMPDEST DUP4 ADD DUP3 PUSH2 0x25D2 JUMP JUMPDEST POP POP JUMPDEST POP POP POP JUMP JUMPDEST PUSH0 DUP3 DUP3 SHR SWAP1 POP SWAP3 SWAP2 POP POP JUMP JUMPDEST PUSH0 PUSH2 0x2655 PUSH0 NOT DUP5 PUSH1 0x8 MUL PUSH2 0x263A JUMP JUMPDEST NOT DUP1 DUP4 AND SWAP2 POP POP SWAP3 SWAP2 POP POP JUMP JUMPDEST PUSH0 PUSH2 0x266D DUP4 DUP4 PUSH2 0x2646 JUMP JUMPDEST SWAP2 POP DUP3 PUSH1 0x2 MUL DUP3 OR SWAP1 POP SWAP3 SWAP2 POP POP JUMP JUMPDEST PUSH2 0x2686 DUP3 PUSH2 0x1689 JUMP JUMPDEST PUSH8 0xFFFFFFFFFFFFFFFF DUP2 GT ISZERO PUSH2 0x269F JUMPI PUSH2 0x269E PUSH2 0x14DD JUMP JUMPDEST JUMPDEST PUSH2 0x26A9 DUP3 SLOAD PUSH2 0x187D JUMP JUMPDEST PUSH2 0x26B4 DUP3 DUP3 DUP6 PUSH2 0x25F4 JUMP JUMPDEST PUSH0 PUSH1 0x20 SWAP1 POP PUSH1 0x1F DUP4 GT PUSH1 0x1 DUP2 EQ PUSH2 0x26E5 JUMPI PUSH0 DUP5 ISZERO PUSH2 0x26D3 JUMPI DUP3 DUP8 ADD MLOAD SWAP1 POP JUMPDEST PUSH2 0x26DD DUP6 DUP3 PUSH2 0x2662 JUMP JUMPDEST DUP7 SSTORE POP PUSH2 0x2744 JUMP JUMPDEST PUSH1 0x1F NOT DUP5 AND PUSH2 0x26F3 DUP7 PUSH2 0x24D7 JUMP JUMPDEST PUSH0 JUMPDEST DUP3 DUP2 LT ISZERO PUSH2 0x271A JUMPI DUP5 DUP10 ADD MLOAD DUP3 SSTORE PUSH1 0x1 DUP3 ADD SWAP2 POP PUSH1 0x20 DUP6 ADD SWAP5 POP PUSH1 0x20 DUP2 ADD SWAP1 POP PUSH2 0x26F5 JUMP JUMPDEST DUP7 DUP4 LT ISZERO PUSH2 0x2737 JUMPI DUP5 DUP10 ADD MLOAD PUSH2 0x2733 PUSH1 0x1F DUP10 AND DUP3 PUSH2 0x2646 JUMP JUMPDEST DUP4 SSTORE POP JUMPDEST PUSH1 0x1 PUSH1 0x2 DUP9 MUL ADD DUP9 SSTORE POP POP POP JUMPDEST POP POP POP POP POP POP JUMP JUMPDEST PUSH0 DUP2 SWAP1 POP DUP2 PUSH0 MSTORE PUSH1 0x20 PUSH0 KECCAK256 SWAP1 POP SWAP2 SWAP1 POP JUMP JUMPDEST PUSH1 0x1F DUP3 GT ISZERO PUSH2 0x279F JUMPI PUSH2 0x2770 DUP2 PUSH2 0x274C JUMP JUMPDEST PUSH2 0x2779 DUP5 PUSH2 0x24E9 JUMP JUMPDEST DUP2 ADD PUSH1 0x20 DUP6 LT ISZERO PUSH2 0x2788 JUMPI DUP2 SWAP1 POP JUMPDEST PUSH2 0x279C PUSH2 0x2794 DUP6 PUSH2 0x24E9 JUMP JUMPDEST DUP4 ADD DUP3 PUSH2 0x25D2 JUMP JUMPDEST POP POP JUMPDEST POP POP POP JUMP JUMPDEST PUSH2 0x27AD DUP3 PUSH2 0x1709 JUMP JUMPDEST PUSH8 0xFFFFFFFFFFFFFFFF DUP2 GT ISZERO PUSH2 0x27C6 JUMPI PUSH2 0x27C5 PUSH2 0x14DD JUMP JUMPDEST JUMPDEST PUSH2 0x27D0 DUP3 SLOAD PUSH2 0x187D JUMP JUMPDEST PUSH2 0x27DB DUP3 DUP3 DUP6 PUSH2 0x275E JUMP JUMPDEST PUSH0 PUSH1 0x20 SWAP1 POP PUSH1 0x1F DUP4 GT PUSH1 0x1 DUP2 EQ PUSH2 0x280C JUMPI PUSH0 DUP5 ISZERO PUSH2 0x27FA JUMPI DUP3 DUP8 ADD MLOAD SWAP1 POP JUMPDEST PUSH2 0x2804 DUP6 DUP3 PUSH2 0x2662 JUMP JUMPDEST DUP7 SSTORE POP PUSH2 0x286B JUMP JUMPDEST PUSH1 0x1F NOT DUP5 AND PUSH2 0x281A DUP7 PUSH2 0x274C JUMP JUMPDEST PUSH0 JUMPDEST DUP3 DUP2 LT ISZERO PUSH2 0x2841 JUMPI DUP5 DUP10 ADD MLOAD DUP3 SSTORE PUSH1 0x1 DUP3 ADD SWAP2 POP PUSH1 0x20 DUP6 ADD SWAP5 POP PUSH1 0x20 DUP2 ADD SWAP1 POP PUSH2 0x281C JUMP JUMPDEST DUP7 DUP4 LT ISZERO PUSH2 0x285E JUMPI DUP5 DUP10 ADD MLOAD PUSH2 0x285A PUSH1 0x1F DUP10 AND DUP3 PUSH2 0x2646 JUMP JUMPDEST DUP4 SSTORE POP JUMPDEST PUSH1 0x1 PUSH1 0x2 DUP9 MUL ADD DUP9 SSTORE POP POP POP JUMPDEST POP POP POP POP POP POP JUMP JUMPDEST PUSH0 DUP2 SLOAD PUSH2 0x287F DUP2 PUSH2 0x187D JUMP JUMPDEST PUSH2 0x2889 DUP2 DUP7 PUSH2 0x1693 JUMP JUMPDEST SWAP5 POP PUSH1 0x1 DUP3 AND PUSH0 DUP2 EQ PUSH2 0x28A3 JUMPI PUSH1 0x1 DUP2 EQ PUSH2 0x28B9 JUMPI PUSH2 0x28EB JUMP JUMPDEST PUSH1 0xFF NOT DUP4 AND DUP7 MSTORE DUP2 ISZERO ISZERO PUSH1 0x20 MUL DUP7 ADD SWAP4 POP PUSH2 0x28EB JUMP JUMPDEST PUSH2 0x28C2 DUP6 PUSH2 0x24D7 JUMP JUMPDEST PUSH0 JUMPDEST DUP4 DUP2 LT ISZERO PUSH2 0x28E3 JUMPI DUP2 SLOAD DUP2 DUP10 ADD MSTORE PUSH1 0x1 DUP3 ADD SWAP2 POP PUSH1 0x20 DUP2 ADD SWAP1 POP PUSH2 0x28C4 JUMP JUMPDEST DUP1 DUP9 ADD SWAP6 POP POP POP JUMPDEST POP POP POP SWAP3 SWAP2 POP POP JUMP JUMPDEST PUSH0 PUSH1 0x20 DUP3 ADD SWAP1 POP DUP2 DUP2 SUB PUSH0 DUP4 ADD MSTORE PUSH2 0x290C DUP2 DUP5 PUSH2 0x2873 JUMP JUMPDEST SWAP1 POP SWAP3 SWAP2 POP POP JUMP JUMPDEST PUSH32 0x4F6E6C792063616C6C61626C65206279206F776E657200000000000000000000 PUSH0 DUP3 ADD MSTORE POP JUMP JUMPDEST PUSH0 PUSH2 0x2948 PUSH1 0x16 DUP4 PUSH2 0x1693 JUMP JUMPDEST SWAP2 POP PUSH2 0x2953 DUP3 PUSH2 0x2914 JUMP JUMPDEST PUSH1 0x20 DUP3 ADD SWAP1 POP SWAP2 SWAP1 POP JUMP JUMPDEST PUSH0 PUSH1 0x20 DUP3 ADD SWAP1 POP DUP2 DUP2 SUB PUSH0 DUP4 ADD MSTORE PUSH2 0x2975 DUP2 PUSH2 0x293C JUMP JUMPDEST SWAP1 POP SWAP2 SWAP1 POP JUMP JUMPDEST PUSH32 0x4E487B7100000000000000000000000000000000000000000000000000000000 PUSH0 MSTORE PUSH1 0x21 PUSH1 0x4 MSTORE PUSH1 0x24 PUSH0 REVERT JUMPDEST PUSH32 0x4E487B7100000000000000000000000000000000000000000000000000000000 PUSH0 MSTORE PUSH1 0x32 PUSH1 0x4 MSTORE PUSH1 0x24 PUSH0 REVERT JUMPDEST PUSH0 PUSH8 0xFFFFFFFFFFFFFFFF DUP3 AND SWAP1 POP SWAP2 SWAP1 POP JUMP JUMPDEST PUSH2 0x29F2 DUP2 PUSH2 0x29D6 JUMP JUMPDEST DUP3 MSTORE POP POP JUMP JUMPDEST PUSH0 PUSH2 0xFFFF DUP3 AND SWAP1 POP SWAP2 SWAP1 POP JUMP JUMPDEST PUSH2 0x2A0E DUP2 PUSH2 0x29F8 JUMP JUMPDEST DUP3 MSTORE POP POP JUMP JUMPDEST PUSH0 PUSH4 0xFFFFFFFF DUP3 AND SWAP1 POP SWAP2 SWAP1 POP JUMP JUMPDEST PUSH2 0x2A2C DUP2 PUSH2 0x2A14 JUMP JUMPDEST DUP3 MSTORE POP POP JUMP JUMPDEST PUSH0 PUSH1 0xA0 DUP3 ADD SWAP1 POP PUSH2 0x2A45 PUSH0 DUP4 ADD DUP9 PUSH2 0x29E9 JUMP JUMPDEST DUP2 DUP2 SUB PUSH1 0x20 DUP4 ADD MSTORE PUSH2 0x2A57 DUP2 DUP8 PUSH2 0x1723 JUMP JUMPDEST SWAP1 POP PUSH2 0x2A66 PUSH1 0x40 DUP4 ADD DUP7 PUSH2 0x2A05 JUMP JUMPDEST PUSH2 0x2A73 PUSH1 0x60 DUP4 ADD DUP6 PUSH2 0x2A23 JUMP JUMPDEST PUSH2 0x2A80 PUSH1 0x80 DUP4 ADD DUP5 PUSH2 0x1828 JUMP JUMPDEST SWAP7 SWAP6 POP POP POP POP POP POP JUMP JUMPDEST PUSH0 DUP2 MLOAD SWAP1 POP PUSH2 0x2A98 DUP2 PUSH2 0x149B JUMP JUMPDEST SWAP3 SWAP2 POP POP JUMP JUMPDEST PUSH0 PUSH1 0x20 DUP3 DUP5 SUB SLT ISZERO PUSH2 0x2AB3 JUMPI PUSH2 0x2AB2 PUSH2 0x148A JUMP JUMPDEST JUMPDEST PUSH0 PUSH2 0x2AC0 DUP5 DUP3 DUP6 ADD PUSH2 0x2A8A JUMP JUMPDEST SWAP2 POP POP SWAP3 SWAP2 POP POP JUMP JUMPDEST PUSH32 0x43616E6E6F74207472616E7366657220746F2073656C66000000000000000000 PUSH0 DUP3 ADD MSTORE POP JUMP JUMPDEST PUSH0 PUSH2 0x2AFD PUSH1 0x17 DUP4 PUSH2 0x1693 JUMP JUMPDEST SWAP2 POP PUSH2 0x2B08 DUP3 PUSH2 0x2AC9 JUMP JUMPDEST PUSH1 0x20 DUP3 ADD SWAP1 POP SWAP2 SWAP1 POP JUMP JUMPDEST PUSH0 PUSH1 0x20 DUP3 ADD SWAP1 POP DUP2 DUP2 SUB PUSH0 DUP4 ADD MSTORE PUSH2 0x2B2A DUP2 PUSH2 0x2AF1 JUMP JUMPDEST SWAP1 POP SWAP2 SWAP1 POP JUMP JUMPDEST PUSH2 0x2B3A DUP2 PUSH2 0x2555 JUMP JUMPDEST DUP3 MSTORE POP POP JUMP JUMPDEST PUSH0 PUSH1 0x20 DUP3 ADD SWAP1 POP PUSH2 0x2B53 PUSH0 DUP4 ADD DUP5 PUSH2 0x2B31 JUMP JUMPDEST SWAP3 SWAP2 POP POP JUMP JUMPDEST PUSH32 0x4E487B7100000000000000000000000000000000000000000000000000000000 PUSH0 MSTORE PUSH1 0x11 PUSH1 0x4 MSTORE PUSH1 0x24 PUSH0 REVERT JUMPDEST PUSH0 PUSH2 0x2B90 DUP3 PUSH2 0x2555 JUMP JUMPDEST SWAP2 POP PUSH2 0x2B9B DUP4 PUSH2 0x2555 JUMP JUMPDEST SWAP3 POP DUP3 DUP3 ADD SWAP1 POP DUP1 DUP3 GT ISZERO PUSH2 0x2BB3 JUMPI PUSH2 0x2BB2 PUSH2 0x2B59 JUMP JUMPDEST JUMPDEST SWAP3 SWAP2 POP POP JUMP JUMPDEST PUSH0 PUSH2 0x2BC3 DUP3 PUSH2 0x2555 JUMP JUMPDEST SWAP2 POP PUSH2 0x2BCE DUP4 PUSH2 0x2555 JUMP JUMPDEST SWAP3 POP DUP3 DUP3 SUB SWAP1 POP DUP2 DUP2 GT ISZERO PUSH2 0x2BE6 JUMPI PUSH2 0x2BE5 PUSH2 0x2B59 JUMP JUMPDEST JUMPDEST SWAP3 SWAP2 POP POP JUMP JUMPDEST PUSH32 0x4E487B7100000000000000000000000000000000000000000000000000000000 PUSH0 MSTORE PUSH1 0x12 PUSH1 0x4 MSTORE PUSH1 0x24 PUSH0 REVERT JUMPDEST PUSH0 PUSH2 0x2C23 DUP3 PUSH2 0x2555 JUMP JUMPDEST SWAP2 POP PUSH2 0x2C2E DUP4 PUSH2 0x2555 JUMP JUMPDEST SWAP3 POP DUP3 PUSH2 0x2C3E JUMPI PUSH2 0x2C3D PUSH2 0x2BEC JUMP JUMPDEST JUMPDEST DUP3 DUP3 MOD SWAP1 POP SWAP3 SWAP2 POP POP JUMP JUMPDEST PUSH0 PUSH2 0x2C53 DUP3 PUSH2 0x2555 JUMP JUMPDEST SWAP2 POP PUSH2 0x2C5E DUP4 PUSH2 0x2555 JUMP JUMPDEST SWAP3 POP DUP3 DUP3 MUL PUSH2 0x2C6C DUP2 PUSH2 0x2555 JUMP JUMPDEST SWAP2 POP DUP3 DUP3 DIV DUP5 EQ DUP4 ISZERO OR PUSH2 0x2C83 JUMPI PUSH2 0x2C82 PUSH2 0x2B59 JUMP JUMPDEST JUMPDEST POP SWAP3 SWAP2 POP POP JUMP JUMPDEST PUSH0 DUP2 PUSH1 0x1 SHR SWAP1 POP SWAP2 SWAP1 POP JUMP JUMPDEST PUSH0 DUP1 DUP3 SWAP2 POP DUP4 SWAP1 POP JUMPDEST PUSH1 0x1 DUP6 GT ISZERO PUSH2 0x2CDF JUMPI DUP1 DUP7 DIV DUP2 GT ISZERO PUSH2 0x2CBB JUMPI PUSH2 0x2CBA PUSH2 0x2B59 JUMP JUMPDEST JUMPDEST PUSH1 0x1 DUP6 AND ISZERO PUSH2 0x2CCA JUMPI DUP1 DUP3 MUL SWAP2 POP JUMPDEST DUP1 DUP2 MUL SWAP1 POP PUSH2 0x2CD8 DUP6 PUSH2 0x2C8A JUMP JUMPDEST SWAP5 POP PUSH2 0x2C9F JUMP JUMPDEST SWAP5 POP SWAP5 SWAP3 POP POP POP JUMP JUMPDEST PUSH0 DUP3 PUSH2 0x2CF7 JUMPI PUSH1 0x1 SWAP1 POP PUSH2 0x2DB2 JUMP JUMPDEST DUP2 PUSH2 0x2D04 JUMPI PUSH0 SWAP1 POP PUSH2 0x2DB2 JUMP JUMPDEST DUP2 PUSH1 0x1 DUP2 EQ PUSH2 0x2D1A JUMPI PUSH1 0x2 DUP2 EQ PUSH2 0x2D24 JUMPI PUSH2 0x2D53 JUMP JUMPDEST PUSH1 0x1 SWAP2 POP POP PUSH2 0x2DB2 JUMP JUMPDEST PUSH1 0xFF DUP5 GT ISZERO PUSH2 0x2D36 JUMPI PUSH2 0x2D35 PUSH2 0x2B59 JUMP JUMPDEST JUMPDEST DUP4 PUSH1 0x2 EXP SWAP2 POP DUP5 DUP3 GT ISZERO PUSH2 0x2D4D JUMPI PUSH2 0x2D4C PUSH2 0x2B59 JUMP JUMPDEST JUMPDEST POP PUSH2 0x2DB2 JUMP JUMPDEST POP PUSH1 0x20 DUP4 LT PUSH2 0x133 DUP4 LT AND PUSH1 0x4E DUP5 LT PUSH1 0xB DUP5 LT AND OR ISZERO PUSH2 0x2D88 JUMPI DUP3 DUP3 EXP SWAP1 POP DUP4 DUP2 GT ISZERO PUSH2 0x2D83 JUMPI PUSH2 0x2D82 PUSH2 0x2B59 JUMP JUMPDEST JUMPDEST PUSH2 0x2DB2 JUMP JUMPDEST PUSH2 0x2D95 DUP5 DUP5 DUP5 PUSH1 0x1 PUSH2 0x2C96 JUMP JUMPDEST SWAP3 POP SWAP1 POP DUP2 DUP5 DIV DUP2 GT ISZERO PUSH2 0x2DAC JUMPI PUSH2 0x2DAB PUSH2 0x2B59 JUMP JUMPDEST JUMPDEST DUP2 DUP2 MUL SWAP1 POP JUMPDEST SWAP4 SWAP3 POP POP POP JUMP JUMPDEST PUSH0 PUSH2 0x2DC3 DUP3 PUSH2 0x2555 JUMP JUMPDEST SWAP2 POP PUSH2 0x2DCE DUP4 PUSH2 0x2555 JUMP JUMPDEST SWAP3 POP PUSH2 0x2DFB PUSH32 0xFFFFFFFFFFFFFFFFFFFFFFFFFFFFFFFFFFFFFFFFFFFFFFFFFFFFFFFFFFFFFFFF DUP5 DUP5 PUSH2 0x2CE8 JUMP JUMPDEST SWAP1 POP SWAP3 SWAP2 POP POP JUMP INVALID LOG2 PUSH5 0x6970667358 0x22 SLT KECCAK256 PUSH18 0x8233C60BA7710D34F87572894814A88F5726 SWAP15 0xD7 0xBF 0xAC JUMPDEST SWAP12 0xC0 0xDC CODECOPY 0xCF 0x2C PUSH30 0xCD64736F6C634300081A0033000000000000000000000000000000000000 "
		},
		"gasEstimates": {
			"creation": {
				"codeDepositCost": "2366600",
				"executionCost": "infinite",
				"totalCost": "infinite"
			},
			"external": {
				"acceptOwnership()": "54533",
				"generatedContent()": "infinite",
				"handleOracleFulfillment(bytes32,bytes,bytes)": "infinite",
				"lastError()": "infinite",
				"lastRequestId()": "2513",
				"lastResponse()": "infinite",
				"owner()": "2537",
				"requestGenerativeContent()": "infinite",
				"transferOwnership(address)": "30711"
			},
			"internal": {
				"fulfillRequest(bytes32,bytes memory,bytes memory)": "infinite"
			}
		},
		"methodIdentifiers": {
			"acceptOwnership()": "79ba5097",
			"generatedContent()": "290e60ac",
			"handleOracleFulfillment(bytes32,bytes,bytes)": "0ca76175",
			"lastError()": "29f0de3f",
			"lastRequestId()": "fc2a88c3",
			"lastResponse()": "62747e42",
			"owner()": "8da5cb5b",
			"requestGenerativeContent()": "a758c6cb",
			"transferOwnership(address)": "f2fde38b"
		}
	},
	"abi": [
		{
			"inputs": [
				{
					"internalType": "address",
					"name": "oracle",
					"type": "address"
				}
			],
			"stateMutability": "nonpayable",
			"type": "constructor"
		},
		{
			"inputs": [],
			"name": "EmptySource",
			"type": "error"
		},
		{
			"inputs": [],
			"name": "NoInlineSecrets",
			"type": "error"
		},
		{
			"inputs": [],
			"name": "OnlyRouterCanFulfill",
			"type": "error"
		},
		{
			"anonymous": false,
			"inputs": [
				{
					"indexed": true,
					"internalType": "bytes32",
					"name": "requestId",
					"type": "bytes32"
				}
			],
			"name": "GenerativeContentRequestSent",
			"type": "event"
		},
		{
			"anonymous": false,
			"inputs": [
				{
					"indexed": true,
					"internalType": "address",
					"name": "from",
					"type": "address"
				},
				{
					"indexed": true,
					"internalType": "address",
					"name": "to",
					"type": "address"
				}
			],
			"name": "OwnershipTransferRequested",
			"type": "event"
		},
		{
			"anonymous": false,
			"inputs": [
				{
					"indexed": true,
					"internalType": "address",
					"name": "from",
					"type": "address"
				},
				{
					"indexed": true,
					"internalType": "address",
					"name": "to",
					"type": "address"
				}
			],
			"name": "OwnershipTransferred",
			"type": "event"
		},
		{
			"anonymous": false,
			"inputs": [
				{
					"indexed": true,
					"internalType": "bytes32",
					"name": "requestId",
					"type": "bytes32"
				},
				{
					"indexed": false,
					"internalType": "string",
					"name": "reason",
					"type": "string"
				}
			],
			"name": "RequestFailed",
			"type": "event"
		},
		{
			"anonymous": false,
			"inputs": [
				{
					"indexed": true,
					"internalType": "bytes32",
					"name": "id",
					"type": "bytes32"
				}
			],
			"name": "RequestFulfilled",
			"type": "event"
		},
		{
			"anonymous": false,
			"inputs": [
				{
					"indexed": true,
					"internalType": "bytes32",
					"name": "requestId",
					"type": "bytes32"
				},
				{
					"indexed": false,
					"internalType": "string",
					"name": "content",
					"type": "string"
				}
			],
			"name": "RequestFulfilled",
			"type": "event"
		},
		{
			"anonymous": false,
			"inputs": [
				{
					"indexed": true,
					"internalType": "bytes32",
					"name": "id",
					"type": "bytes32"
				}
			],
			"name": "RequestSent",
			"type": "event"
		},
		{
			"inputs": [],
			"name": "acceptOwnership",
			"outputs": [],
			"stateMutability": "nonpayable",
			"type": "function"
		},
		{
			"inputs": [],
			"name": "generatedContent",
			"outputs": [
				{
					"internalType": "string",
					"name": "",
					"type": "string"
				}
			],
			"stateMutability": "view",
			"type": "function"
		},
		{
			"inputs": [
				{
					"internalType": "bytes32",
					"name": "requestId",
					"type": "bytes32"
				},
				{
					"internalType": "bytes",
					"name": "response",
					"type": "bytes"
				},
				{
					"internalType": "bytes",
					"name": "err",
					"type": "bytes"
				}
			],
			"name": "handleOracleFulfillment",
			"outputs": [],
			"stateMutability": "nonpayable",
			"type": "function"
		},
		{
			"inputs": [],
			"name": "lastError",
			"outputs": [
				{
					"internalType": "bytes",
					"name": "",
					"type": "bytes"
				}
			],
			"stateMutability": "view",
			"type": "function"
		},
		{
			"inputs": [],
			"name": "lastRequestId",
			"outputs": [
				{
					"internalType": "bytes32",
					"name": "",
					"type": "bytes32"
				}
			],
			"stateMutability": "view",
			"type": "function"
		},
		{
			"inputs": [],
			"name": "lastResponse",
			"outputs": [
				{
					"internalType": "bytes",
					"name": "",
					"type": "bytes"
				}
			],
			"stateMutability": "view",
			"type": "function"
		},
		{
			"inputs": [],
			"name": "owner",
			"outputs": [
				{
					"internalType": "address",
					"name": "",
					"type": "address"
				}
			],
			"stateMutability": "view",
			"type": "function"
		},
		{
			"inputs": [],
			"name": "requestGenerativeContent",
			"outputs": [],
			"stateMutability": "nonpayable",
			"type": "function"
		},
		{
			"inputs": [
				{
					"internalType": "address",
					"name": "to",
					"type": "address"
				}
			],
			"name": "transferOwnership",
			"outputs": [],
			"stateMutability": "nonpayable",
			"type": "function"
		}
	]
}