{
	"data": {
		"bytecode": {
			"linkReferences": {},
			"object": "608060405234801561000f575f80fd5b50613f808061001d5f395ff3fe608060405234801562000010575f80fd5b506004361062000068575f3560e01c80636f8d757d146200006c57806371bdce55146200008c57806380f6ce0814620000c35780638f96910c14620000e357806397348b34146200011d578063ae3a302b146200013d575b5f80fd5b6200008a600480360381019062000084919062000d94565b6200015f565b005b620000aa6004803603810190620000a4919062000d94565b620002bf565b604051620000ba92919062000f32565b60405180910390f35b620000e16004803603810190620000db9190620011a4565b620003e1565b005b620001016004803603810190620000fb919062000d94565b6200048b565b604051620001149594939291906200130a565b60405180910390f35b6200013b600480360381019062000135919062001381565b62000677565b005b6200014762000931565b604051620001569190620015d7565b60405180910390f35b5f8190508073ffffffffffffffffffffffffffffffffffffffff16637cc9e4f0336040518263ffffffff1660e01b81526004016200019e9190620015f9565b5f604051808303815f87803b158015620001b6575f80fd5b505af1158015620001c9573d5f803e3d5ffd5b5050505060015f8373ffffffffffffffffffffffffffffffffffffffff1673ffffffffffffffffffffffffffffffffffffffff1681526020019081526020015f2060030133908060018154018082558091505060019003905f5260205f20015f9091909190916101000a81548173ffffffffffffffffffffffffffffffffffffffff021916908373ffffffffffffffffffffffffffffffffffffffff1602179055508173ffffffffffffffffffffffffffffffffffffffff167fec647c6c46734cd6c239cdefb4ebe06b8fd33872eb455c8c3de49bd1fd14511433604051620002b39190620015f9565b60405180910390a25050565b5f60608260025f8573ffffffffffffffffffffffffffffffffffffffff1673ffffffffffffffffffffffffffffffffffffffff1681526020019081526020015f2080805480602002602001604051908101604052809291908181526020015f905b82821015620003d2578382905f5260205f20018054620003409062001641565b80601f01602080910402602001604051908101604052809291908181526020018280546200036e9062001641565b8015620003bd5780601f106200039357610100808354040283529160200191620003bd565b820191905f5260205f20905b8154815290600101906020018083116200039f57829003601f168201915b50505050508152602001906001019062000320565b50505050905091509150915091565b5f5b8151811015620004875760025f3373ffffffffffffffffffffffffffffffffffffffff1673ffffffffffffffffffffffffffffffffffffffff1681526020019081526020015f2082828151811062000440576200043f62001675565b5b6020026020010151908060018154018082558091505060019003905f5260205f20015f9091909190915090816200047891906200186e565b508080600101915050620003e3565b5050565b5f6060806060805f869050868173ffffffffffffffffffffffffffffffffffffffff16634a79d50c6040518163ffffffff1660e01b81526004015f60405180830381865afa158015620004e0573d5f803e3d5ffd5b505050506040513d5f823e3d601f19601f820116820180604052508101906200050a9190620019ce565b8273ffffffffffffffffffffffffffffffffffffffff16631df028286040518163ffffffff1660e01b81526004015f60405180830381865afa15801562000553573d5f803e3d5ffd5b505050506040513d5f823e3d601f19601f820116820180604052508101906200057d9190620019ce565b8373ffffffffffffffffffffffffffffffffffffffff16634a481eb76040518163ffffffff1660e01b81526004015f60405180830381865afa158015620005c6573d5f803e3d5ffd5b505050506040513d5f823e3d601f19601f82011682018060405250810190620005f0919062001b06565b8473ffffffffffffffffffffffffffffffffffffffff16630d1d8d6d6040518163ffffffff1660e01b81526004015f60405180830381865afa15801562000639573d5f803e3d5ffd5b505050506040513d5f823e3d601f19601f8201168201806040525081019062000663919062001b06565b955095509550955095505091939590929450565b5f828233604051620006899062000c27565b620006979392919062001b55565b604051809103905ff080158015620006b1573d5f803e3d5ffd5b5090505f81908060018154018082558091505060019003905f5260205f20015f9091909190916101000a81548173ffffffffffffffffffffffffffffffffffffffff021916908373ffffffffffffffffffffffffffffffffffffffff1602179055506040518060a001604052808273ffffffffffffffffffffffffffffffffffffffff1681526020018481526020018381526020015f67ffffffffffffffff81111562000763576200076262000f68565b5b604051908082528060200260200182016040528015620007925781602001602082028036833780820191505090505b5081526020015f67ffffffffffffffff811115620007b557620007b462000f68565b5b604051908082528060200260200182016040528015620007e45781602001602082028036833780820191505090505b5081525060015f8373ffffffffffffffffffffffffffffffffffffffff1673ffffffffffffffffffffffffffffffffffffffff1681526020019081526020015f205f820151815f015f6101000a81548173ffffffffffffffffffffffffffffffffffffffff021916908373ffffffffffffffffffffffffffffffffffffffff16021790555060208201518160010190816200088091906200186e565b5060408201518160020190816200089891906200186e565b506060820151816003019080519060200190620008b792919062000c35565b506080820151816004019080519060200190620008d692919062000c35565b509050508073ffffffffffffffffffffffffffffffffffffffff167fdbaa2a3cb725a3b49a08ffd6227e27893c1052a6528092f064df01beb16393af84846040516200092492919062001b9e565b60405180910390a2505050565b60605f808054905067ffffffffffffffff81111562000955576200095462000f68565b5b6040519080825280602002602001820160405280156200099257816020015b6200097e62000cc1565b815260200190600190039081620009745790505b5090505f5b5f8054905081101562000c1f575f808281548110620009bb57620009ba62001675565b5b905f5260205f20015f9054906101000a900473ffffffffffffffffffffffffffffffffffffffff1690505f8190506040518060a001604052808373ffffffffffffffffffffffffffffffffffffffff1681526020018273ffffffffffffffffffffffffffffffffffffffff16634a79d50c6040518163ffffffff1660e01b81526004015f60405180830381865afa15801562000a59573d5f803e3d5ffd5b505050506040513d5f823e3d601f19601f8201168201806040525081019062000a839190620019ce565b81526020018273ffffffffffffffffffffffffffffffffffffffff16631df028286040518163ffffffff1660e01b81526004015f60405180830381865afa15801562000ad1573d5f803e3d5ffd5b505050506040513d5f823e3d601f19601f8201168201806040525081019062000afb9190620019ce565b81526020018273ffffffffffffffffffffffffffffffffffffffff16634a481eb76040518163ffffffff1660e01b81526004015f60405180830381865afa15801562000b49573d5f803e3d5ffd5b505050506040513d5f823e3d601f19601f8201168201806040525081019062000b73919062001b06565b81526020018273ffffffffffffffffffffffffffffffffffffffff16630d1d8d6d6040518163ffffffff1660e01b81526004015f60405180830381865afa15801562000bc1573d5f803e3d5ffd5b505050506040513d5f823e3d601f19601f8201168201806040525081019062000beb919062001b06565b81525084848151811062000c045762000c0362001675565b5b60200260200101819052505050808060010191505062000997565b508091505090565b6123738062001bd883390190565b828054828255905f5260205f2090810192821562000cae579160200282015b8281111562000cad578251825f6101000a81548173ffffffffffffffffffffffffffffffffffffffff021916908373ffffffffffffffffffffffffffffffffffffffff1602179055509160200191906001019062000c54565b5b50905062000cbd919062000d05565b5090565b6040518060a001604052805f73ffffffffffffffffffffffffffffffffffffffff168152602001606081526020016060815260200160608152602001606081525090565b5b8082111562000d1e575f815f90555060010162000d06565b5090565b5f604051905090565b5f80fd5b5f80fd5b5f73ffffffffffffffffffffffffffffffffffffffff82169050919050565b5f62000d5e8262000d33565b9050919050565b62000d708162000d52565b811462000d7b575f80fd5b50565b5f8135905062000d8e8162000d65565b92915050565b5f6020828403121562000dac5762000dab62000d2b565b5b5f62000dbb8482850162000d7e565b91505092915050565b62000dcf8162000d52565b82525050565b5f81519050919050565b5f82825260208201905092915050565b5f819050602082019050919050565b5f81519050919050565b5f82825260208201905092915050565b5f5b8381101562000e3757808201518184015260208101905062000e1a565b5f8484015250505050565b5f601f19601f8301169050919050565b5f62000e5e8262000dfe565b62000e6a818562000e08565b935062000e7c81856020860162000e18565b62000e878162000e42565b840191505092915050565b5f62000e9f838362000e52565b905092915050565b5f602082019050919050565b5f62000ebf8262000dd5565b62000ecb818562000ddf565b93508360208202850162000edf8562000def565b805f5b8581101562000f20578484038952815162000efe858262000e92565b945062000f0b8362000ea7565b925060208a0199505060018101905062000ee2565b50829750879550505050505092915050565b5f60408201905062000f475f83018562000dc4565b818103602083015262000f5b818462000eb3565b90509392505050565b5f80fd5b7f4e487b71000000000000000000000000000000000000000000000000000000005f52604160045260245ffd5b62000fa08262000e42565b810181811067ffffffffffffffff8211171562000fc25762000fc162000f68565b5b80604052505050565b5f62000fd662000d22565b905062000fe4828262000f95565b919050565b5f67ffffffffffffffff82111562001006576200100562000f68565b5b602082029050602081019050919050565b5f80fd5b5f80fd5b5f67ffffffffffffffff8211156200103c576200103b62000f68565b5b620010478262000e42565b9050602081019050919050565b828183375f83830152505050565b5f6200107862001072846200101f565b62000fcb565b9050828152602081018484840111156200109757620010966200101b565b5b620010a484828562001054565b509392505050565b5f82601f830112620010c357620010c262000f64565b5b8135620010d584826020860162001062565b91505092915050565b5f620010f4620010ee8462000fe9565b62000fcb565b905080838252602082019050602084028301858111156200111a576200111962001017565b5b835b818110156200116857803567ffffffffffffffff81111562001143576200114262000f64565b5b808601620011528982620010ac565b855260208501945050506020810190506200111c565b5050509392505050565b5f82601f83011262001189576200118862000f64565b5b81356200119b848260208601620010de565b91505092915050565b5f60208284031215620011bc57620011bb62000d2b565b5b5f82013567ffffffffffffffff811115620011dc57620011db62000d2f565b5b620011ea8482850162001172565b91505092915050565b5f82825260208201905092915050565b5f6200120f8262000dfe565b6200121b8185620011f3565b93506200122d81856020860162000e18565b620012388162000e42565b840191505092915050565b5f81519050919050565b5f82825260208201905092915050565b5f819050602082019050919050565b620012778162000d52565b82525050565b5f6200128a83836200126c565b60208301905092915050565b5f602082019050919050565b5f620012ae8262001243565b620012ba81856200124d565b9350620012c7836200125d565b805f5b83811015620012fd578151620012e188826200127d565b9750620012ee8362001296565b925050600181019050620012ca565b5085935050505092915050565b5f60a0820190506200131f5f83018862000dc4565b818103602083015262001333818762001203565b9050818103604083015262001349818662001203565b905081810360608301526200135f8185620012a2565b90508181036080830152620013758184620012a2565b90509695505050505050565b5f80604083850312156200139a576200139962000d2b565b5b5f83013567ffffffffffffffff811115620013ba57620013b962000d2f565b5b620013c885828601620010ac565b925050602083013567ffffffffffffffff811115620013ec57620013eb62000d2f565b5b620013fa85828601620010ac565b9150509250929050565b5f81519050919050565b5f82825260208201905092915050565b5f819050602082019050919050565b5f82825260208201905092915050565b5f620014498262001243565b6200145581856200142d565b935062001462836200125d565b805f5b83811015620014985781516200147c88826200127d565b9750620014898362001296565b92505060018101905062001465565b5085935050505092915050565b5f60a083015f830151620014bc5f8601826200126c565b5060208301518482036020860152620014d6828262000e52565b91505060408301518482036040860152620014f2828262000e52565b915050606083015184820360608601526200150e82826200143d565b915050608083015184820360808601526200152a82826200143d565b9150508091505092915050565b5f620015448383620014a5565b905092915050565b5f602082019050919050565b5f620015648262001404565b6200157081856200140e565b93508360208202850162001584856200141e565b805f5b85811015620015c55784840389528151620015a3858262001537565b9450620015b0836200154c565b925060208a0199505060018101905062001587565b50829750879550505050505092915050565b5f6020820190508181035f830152620015f1818462001558565b905092915050565b5f6020820190506200160e5f83018462000dc4565b92915050565b7f4e487b71000000000000000000000000000000000000000000000000000000005f52602260045260245ffd5b5f60028204905060018216806200165957607f821691505b6020821081036200166f576200166e62001614565b5b50919050565b7f4e487b71000000000000000000000000000000000000000000000000000000005f52603260045260245ffd5b5f819050815f5260205f209050919050565b5f6020601f8301049050919050565b5f82821b905092915050565b5f60088302620017007fffffffffffffffffffffffffffffffffffffffffffffffffffffffffffffffff82620016c3565b6200170c8683620016c3565b95508019841693508086168417925050509392505050565b5f819050919050565b5f819050919050565b5f62001756620017506200174a8462001724565b6200172d565b62001724565b9050919050565b5f819050919050565b620017718362001736565b6200178962001780826200175d565b848454620016cf565b825550505050565b5f90565b6200179f62001791565b620017ac81848462001766565b505050565b5b81811015620017d357620017c75f8262001795565b600181019050620017b2565b5050565b601f8211156200182257620017ec81620016a2565b620017f784620016b4565b8101602085101562001807578190505b6200181f6200181685620016b4565b830182620017b1565b50505b505050565b5f82821c905092915050565b5f620018445f198460080262001827565b1980831691505092915050565b5f6200185e838362001833565b9150826002028217905092915050565b620018798262000dfe565b67ffffffffffffffff81111562001895576200189462000f68565b5b620018a1825462001641565b620018ae828285620017d7565b5f60209050601f831160018114620018e4575f8415620018cf578287015190505b620018db858262001851565b8655506200194a565b601f198416620018f486620016a2565b5f5b828110156200191d57848901518255600182019150602085019450602081019050620018f6565b868310156200193d578489015162001939601f89168262001833565b8355505b6001600288020188555050505b505050505050565b5f6200196862001962846200101f565b62000fcb565b9050828152602081018484840111156200198757620019866200101b565b5b6200199484828562000e18565b509392505050565b5f82601f830112620019b357620019b262000f64565b5b8151620019c584826020860162001952565b91505092915050565b5f60208284031215620019e657620019e562000d2b565b5b5f82015167ffffffffffffffff81111562001a065762001a0562000d2f565b5b62001a14848285016200199c565b91505092915050565b5f67ffffffffffffffff82111562001a3a5762001a3962000f68565b5b602082029050602081019050919050565b5f8151905062001a5b8162000d65565b92915050565b5f62001a7762001a718462001a1d565b62000fcb565b9050808382526020820190506020840283018581111562001a9d5762001a9c62001017565b5b835b8181101562001aca578062001ab5888262001a4b565b84526020840193505060208101905062001a9f565b5050509392505050565b5f82601f83011262001aeb5762001aea62000f64565b5b815162001afd84826020860162001a61565b91505092915050565b5f6020828403121562001b1e5762001b1d62000d2b565b5b5f82015167ffffffffffffffff81111562001b3e5762001b3d62000d2f565b5b62001b4c8482850162001ad4565b91505092915050565b5f6060820190508181035f83015262001b6f818662001203565b9050818103602083015262001b85818562001203565b905062001b96604083018462000dc4565b949350505050565b5f6040820190508181035f83015262001bb8818562001203565b9050818103602083015262001bce818462001203565b9050939250505056fe608060405234801562000010575f80fd5b506040516200237338038062002373833981810160405281019062000036919062000288565b825f908162000046919062000556565b50816001908162000058919062000556565b508060025f6101000a81548173ffffffffffffffffffffffffffffffffffffffff021916908373ffffffffffffffffffffffffffffffffffffffff1602179055505050506200063a565b5f604051905090565b5f80fd5b5f80fd5b5f80fd5b5f80fd5b5f601f19601f8301169050919050565b7f4e487b71000000000000000000000000000000000000000000000000000000005f52604160045260245ffd5b6200010382620000bb565b810181811067ffffffffffffffff82111715620001255762000124620000cb565b5b80604052505050565b5f62000139620000a2565b9050620001478282620000f8565b919050565b5f67ffffffffffffffff821115620001695762000168620000cb565b5b6200017482620000bb565b9050602081019050919050565b5f5b83811015620001a057808201518184015260208101905062000183565b5f8484015250505050565b5f620001c1620001bb846200014c565b6200012e565b905082815260208101848484011115620001e057620001df620000b7565b5b620001ed84828562000181565b509392505050565b5f82601f8301126200020c576200020b620000b3565b5b81516200021e848260208601620001ab565b91505092915050565b5f73ffffffffffffffffffffffffffffffffffffffff82169050919050565b5f620002528262000227565b9050919050565b620002648162000246565b81146200026f575f80fd5b50565b5f81519050620002828162000259565b92915050565b5f805f60608486031215620002a257620002a1620000ab565b5b5f84015167ffffffffffffffff811115620002c257620002c1620000af565b5b620002d086828701620001f5565b935050602084015167ffffffffffffffff811115620002f457620002f3620000af565b5b6200030286828701620001f5565b9250506040620003158682870162000272565b9150509250925092565b5f81519050919050565b7f4e487b71000000000000000000000000000000000000000000000000000000005f52602260045260245ffd5b5f60028204905060018216806200036e57607f821691505b60208210810362000384576200038362000329565b5b50919050565b5f819050815f5260205f209050919050565b5f6020601f8301049050919050565b5f82821b905092915050565b5f60088302620003e87fffffffffffffffffffffffffffffffffffffffffffffffffffffffffffffffff82620003ab565b620003f48683620003ab565b95508019841693508086168417925050509392505050565b5f819050919050565b5f819050919050565b5f6200043e6200043862000432846200040c565b62000415565b6200040c565b9050919050565b5f819050919050565b62000459836200041e565b62000471620004688262000445565b848454620003b7565b825550505050565b5f90565b6200048762000479565b620004948184846200044e565b505050565b5b81811015620004bb57620004af5f826200047d565b6001810190506200049a565b5050565b601f8211156200050a57620004d4816200038a565b620004df846200039c565b81016020851015620004ef578190505b62000507620004fe856200039c565b83018262000499565b50505b505050565b5f82821c905092915050565b5f6200052c5f19846008026200050f565b1980831691505092915050565b5f6200054683836200051b565b9150826002028217905092915050565b62000561826200031f565b67ffffffffffffffff8111156200057d576200057c620000cb565b5b62000589825462000356565b62000596828285620004bf565b5f60209050601f831160018114620005cc575f8415620005b7578287015190505b620005c3858262000539565b86555062000632565b601f198416620005dc866200038a565b5f5b828110156200060557848901518255600182019150602085019450602081019050620005de565b8683101562000625578489015162000621601f8916826200051b565b8355505b6001600288020188555050505b505050505050565b611d2b80620006485f395ff3fe608060405234801562000010575f80fd5b5060043610620000aa575f3560e01c80634a79d50c116200006d5780634a79d50c14620001805780635414e8c714620001a25780636120326514620001d85780637cc9e4f014620001fa578063da73630e146200021a57620000aa565b806309e69ede14620000ae5780630d1d8d6d14620000e45780631df0282814620001065780633ed2b77a14620001285780634a481eb7146200015e575b5f80fd5b620000cc6004803603810190620000c6919062000ae6565b62000250565b604051620000db919062000b32565b60405180910390f35b620000ee6200026d565b604051620000fd919062000c14565b60405180910390f35b6200011062000379565b6040516200011f919062000cca565b60405180910390f35b62000146600480360381019062000140919062000d24565b6200040d565b60405162000155919062000dbb565b60405180910390f35b6200016862000449565b60405162000177919062000c14565b60405180910390f35b6200018a620004d6565b60405162000199919062000cca565b60405180910390f35b620001c06004803603810190620001ba919062000ae6565b62000569565b604051620001cf919062000de7565b60405180910390f35b620001e262000599565b604051620001f1919062000de7565b60405180910390f35b62000218600480360381019062000212919062000ae6565b620005be565b005b62000238600480360381019062000232919062000f4a565b62000746565b60405162000247919062000de7565b60405180910390f35b6004602052805f5260405f205f915054906101000a900460ff1681565b60605f60038054905067ffffffffffffffff81111562000292576200029162000e0a565b5b604051908082528060200260200182016040528015620002c15781602001602082028036833780820191505090505b5090505f5b600380549050811015620003715760038181548110620002eb57620002ea62000fae565b5b905f5260205f20015f9054906101000a900473ffffffffffffffffffffffffffffffffffffffff1682828151811062000329576200032862000fae565b5b602002602001019073ffffffffffffffffffffffffffffffffffffffff16908173ffffffffffffffffffffffffffffffffffffffff16815250508080600101915050620002c6565b508091505090565b60018054620003889062001008565b80601f0160208091040260200160405190810160405280929190818152602001828054620003b69062001008565b8015620004055780601f10620003db5761010080835404028352916020019162000405565b820191905f5260205f20905b815481529060010190602001808311620003e757829003601f168201915b505050505081565b600381815481106200041d575f80fd5b905f5260205f20015f915054906101000a900473ffffffffffffffffffffffffffffffffffffffff1681565b60606006805480602002602001604051908101604052809291908181526020018280548015620004cc57602002820191905f5260205f20905b815f9054906101000a900473ffffffffffffffffffffffffffffffffffffffff1673ffffffffffffffffffffffffffffffffffffffff168152602001906001019080831162000482575b5050505050905090565b5f8054620004e49062001008565b80601f0160208091040260200160405190810160405280929190818152602001828054620005129062001008565b8015620005615780601f10620005375761010080835404028352916020019162000561565b820191905f5260205f20905b8154815290600101906020018083116200054357829003601f168201915b505050505081565b6005602052805f5260405f205f915054906101000a900473ffffffffffffffffffffffffffffffffffffffff1681565b60025f9054906101000a900473ffffffffffffffffffffffffffffffffffffffff1681565b60045f8273ffffffffffffffffffffffffffffffffffffffff1673ffffffffffffffffffffffffffffffffffffffff1681526020019081526020015f205f9054906101000a900460ff16156200064b576040517f08c379a000000000000000000000000000000000000000000000000000000000815260040162000642906200108a565b60405180910390fd5b600160045f8373ffffffffffffffffffffffffffffffffffffffff1673ffffffffffffffffffffffffffffffffffffffff1681526020019081526020015f205f6101000a81548160ff021916908315150217905550600681908060018154018082558091505060019003905f5260205f20015f9091909190916101000a81548173ffffffffffffffffffffffffffffffffffffffff021916908373ffffffffffffffffffffffffffffffffffffffff1602179055508073ffffffffffffffffffffffffffffffffffffffff167fe11711cd714e06fbbbea301a8e90822f2f2ea4808e37e3adf06038f33c53ff2760405160405180910390a250565b5f60025f9054906101000a900473ffffffffffffffffffffffffffffffffffffffff1673ffffffffffffffffffffffffffffffffffffffff168373ffffffffffffffffffffffffffffffffffffffff161480620007e9575060045f8473ffffffffffffffffffffffffffffffffffffffff1673ffffffffffffffffffffffffffffffffffffffff1681526020019081526020015f205f9054906101000a900460ff165b6200082b576040517f08c379a000000000000000000000000000000000000000000000000000000000815260040162000822906200111e565b60405180910390fd5b5f73ffffffffffffffffffffffffffffffffffffffff1660055f8573ffffffffffffffffffffffffffffffffffffffff1673ffffffffffffffffffffffffffffffffffffffff1681526020019081526020015f205f9054906101000a900473ffffffffffffffffffffffffffffffffffffffff1673ffffffffffffffffffffffffffffffffffffffff1614620008f8576040517f08c379a0000000000000000000000000000000000000000000000000000000008152600401620008ef906200118c565b60405180910390fd5b5f82604051620009089062000a66565b62000914919062000cca565b604051809103905ff0801580156200092e573d5f803e3d5ffd5b509050600381908060018154018082558091505060019003905f5260205f20015f9091909190916101000a81548173ffffffffffffffffffffffffffffffffffffffff021916908373ffffffffffffffffffffffffffffffffffffffff1602179055508060055f8673ffffffffffffffffffffffffffffffffffffffff1673ffffffffffffffffffffffffffffffffffffffff1681526020019081526020015f205f6101000a81548173ffffffffffffffffffffffffffffffffffffffff021916908373ffffffffffffffffffffffffffffffffffffffff1602179055508073ffffffffffffffffffffffffffffffffffffffff167f3613f8ac0cc52c4428042fe442f289fc083df030de5859192dce0bfb7bc387958460405162000a54919062000cca565b60405180910390a28091505092915050565b610b4980620011ad83390190565b5f604051905090565b5f80fd5b5f80fd5b5f73ffffffffffffffffffffffffffffffffffffffff82169050919050565b5f62000ab08262000a85565b9050919050565b62000ac28162000aa4565b811462000acd575f80fd5b50565b5f8135905062000ae08162000ab7565b92915050565b5f6020828403121562000afe5762000afd62000a7d565b5b5f62000b0d8482850162000ad0565b91505092915050565b5f8115159050919050565b62000b2c8162000b16565b82525050565b5f60208201905062000b475f83018462000b21565b92915050565b5f81519050919050565b5f82825260208201905092915050565b5f819050602082019050919050565b62000b818162000aa4565b82525050565b5f62000b94838362000b76565b60208301905092915050565b5f602082019050919050565b5f62000bb88262000b4d565b62000bc4818562000b57565b935062000bd18362000b67565b805f5b8381101562000c0757815162000beb888262000b87565b975062000bf88362000ba0565b92505060018101905062000bd4565b5085935050505092915050565b5f6020820190508181035f83015262000c2e818462000bac565b905092915050565b5f81519050919050565b5f82825260208201905092915050565b5f5b8381101562000c6f57808201518184015260208101905062000c52565b5f8484015250505050565b5f601f19601f8301169050919050565b5f62000c968262000c36565b62000ca2818562000c40565b935062000cb481856020860162000c50565b62000cbf8162000c7a565b840191505092915050565b5f6020820190508181035f83015262000ce4818462000c8a565b905092915050565b5f819050919050565b62000d008162000cec565b811462000d0b575f80fd5b50565b5f8135905062000d1e8162000cf5565b92915050565b5f6020828403121562000d3c5762000d3b62000a7d565b5b5f62000d4b8482850162000d0e565b91505092915050565b5f819050919050565b5f62000d7d62000d7762000d718462000a85565b62000d54565b62000a85565b9050919050565b5f62000d908262000d5d565b9050919050565b5f62000da38262000d84565b9050919050565b62000db58162000d97565b82525050565b5f60208201905062000dd05f83018462000daa565b92915050565b62000de18162000aa4565b82525050565b5f60208201905062000dfc5f83018462000dd6565b92915050565b5f80fd5b5f80fd5b7f4e487b71000000000000000000000000000000000000000000000000000000005f52604160045260245ffd5b62000e428262000c7a565b810181811067ffffffffffffffff8211171562000e645762000e6362000e0a565b5b80604052505050565b5f62000e7862000a74565b905062000e86828262000e37565b919050565b5f67ffffffffffffffff82111562000ea85762000ea762000e0a565b5b62000eb38262000c7a565b9050602081019050919050565b828183375f83830152505050565b5f62000ee462000ede8462000e8b565b62000e6d565b90508281526020810184848401111562000f035762000f0262000e06565b5b62000f1084828562000ec0565b509392505050565b5f82601f83011262000f2f5762000f2e62000e02565b5b813562000f4184826020860162000ece565b91505092915050565b5f806040838503121562000f635762000f6262000a7d565b5b5f62000f728582860162000ad0565b925050602083013567ffffffffffffffff81111562000f965762000f9562000a81565b5b62000fa48582860162000f18565b9150509250929050565b7f4e487b71000000000000000000000000000000000000000000000000000000005f52603260045260245ffd5b7f4e487b71000000000000000000000000000000000000000000000000000000005f52602260045260245ffd5b5f60028204905060018216806200102057607f821691505b60208210810362001036576200103562000fdb565b5b50919050565b7f416c7265616479207265676973746572656400000000000000000000000000005f82015250565b5f6200107260128362000c40565b91506200107f826200103c565b602082019050919050565b5f6020820190508181035f830152620010a38162001064565b9050919050565b7f4f6e6c79207061727469636970616e7473206f72206f7267616e697a657220635f8201527f616e20637265617465207465616d730000000000000000000000000000000000602082015250565b5f62001106602f8362000c40565b91506200111382620010aa565b604082019050919050565b5f6020820190508181035f8301526200113781620010f8565b9050919050565b7f416c726561647920696e2061207465616d0000000000000000000000000000005f82015250565b5f6200117460118362000c40565b915062001181826200113e565b602082019050919050565b5f6020820190508181035f830152620011a58162001166565b905091905056fe608060405234801562000010575f80fd5b5060405162000b4938038062000b498339818101604052810190620000369190620001d3565b805f908162000046919062000459565b50506200053d565b5f604051905090565b5f80fd5b5f80fd5b5f80fd5b5f80fd5b5f601f19601f8301169050919050565b7f4e487b71000000000000000000000000000000000000000000000000000000005f52604160045260245ffd5b620000af8262000067565b810181811067ffffffffffffffff82111715620000d157620000d062000077565b5b80604052505050565b5f620000e56200004e565b9050620000f38282620000a4565b919050565b5f67ffffffffffffffff82111562000115576200011462000077565b5b620001208262000067565b9050602081019050919050565b5f5b838110156200014c5780820151818401526020810190506200012f565b5f8484015250505050565b5f6200016d6200016784620000f8565b620000da565b9050828152602081018484840111156200018c576200018b62000063565b5b620001998482856200012d565b509392505050565b5f82601f830112620001b857620001b76200005f565b5b8151620001ca84826020860162000157565b91505092915050565b5f60208284031215620001eb57620001ea62000057565b5b5f82015167ffffffffffffffff8111156200020b576200020a6200005b565b5b6200021984828501620001a1565b91505092915050565b5f81519050919050565b7f4e487b71000000000000000000000000000000000000000000000000000000005f52602260045260245ffd5b5f60028204905060018216806200027157607f821691505b6020821081036200028757620002866200022c565b5b50919050565b5f819050815f5260205f209050919050565b5f6020601f8301049050919050565b5f82821b905092915050565b5f60088302620002eb7fffffffffffffffffffffffffffffffffffffffffffffffffffffffffffffffff82620002ae565b620002f78683620002ae565b95508019841693508086168417925050509392505050565b5f819050919050565b5f819050919050565b5f620003416200033b62000335846200030f565b62000318565b6200030f565b9050919050565b5f819050919050565b6200035c8362000321565b620003746200036b8262000348565b848454620002ba565b825550505050565b5f90565b6200038a6200037c565b6200039781848462000351565b505050565b5b81811015620003be57620003b25f8262000380565b6001810190506200039d565b5050565b601f8211156200040d57620003d7816200028d565b620003e2846200029f565b81016020851015620003f2578190505b6200040a62000401856200029f565b8301826200039c565b50505b505050565b5f82821c905092915050565b5f6200042f5f198460080262000412565b1980831691505092915050565b5f6200044983836200041e565b9150826002028217905092915050565b620004648262000222565b67ffffffffffffffff81111562000480576200047f62000077565b5b6200048c825462000259565b62000499828285620003c2565b5f60209050601f831160018114620004cf575f8415620004ba578287015190505b620004c685826200043c565b86555062000535565b601f198416620004df866200028d565b5f5b828110156200050857848901518255600182019150602085019450602081019050620004e1565b8683101562000528578489015162000524601f8916826200041e565b8355505b6001600288020188555050505b505050505050565b6105fe806200054b5f395ff3fe608060405234801561000f575f80fd5b506004361061004a575f3560e01c806306fdde031461004e5780635daf08ca1461006c578063b6afd2ca1461009c578063ca6d56dc146100ba575b5f80fd5b6100566100d6565b6040516100639190610319565b60405180910390f35b61008660048036038101906100819190610370565b610161565b6040516100939190610415565b60405180910390f35b6100a461019c565b6040516100b191906104e5565b60405180910390f35b6100d460048036038101906100cf9190610540565b610227565b005b5f80546100e290610598565b80601f016020809104026020016040519081016040528092919081815260200182805461010e90610598565b80156101595780601f1061013057610100808354040283529160200191610159565b820191905f5260205f20905b81548152906001019060200180831161013c57829003601f168201915b505050505081565b60018181548110610170575f80fd5b905f5260205f20015f915054906101000a900473ffffffffffffffffffffffffffffffffffffffff1681565b6060600180548060200260200160405190810160405280929190818152602001828054801561021d57602002820191905f5260205f20905b815f9054906101000a900473ffffffffffffffffffffffffffffffffffffffff1673ffffffffffffffffffffffffffffffffffffffff16815260200190600101908083116101d4575b5050505050905090565b5f819050600181908060018154018082558091505060019003905f5260205f20015f9091909190916101000a81548173ffffffffffffffffffffffffffffffffffffffff021916908373ffffffffffffffffffffffffffffffffffffffff1602179055505050565b5f81519050919050565b5f82825260208201905092915050565b5f5b838110156102c65780820151818401526020810190506102ab565b5f8484015250505050565b5f601f19601f8301169050919050565b5f6102eb8261028f565b6102f58185610299565b93506103058185602086016102a9565b61030e816102d1565b840191505092915050565b5f6020820190508181035f83015261033181846102e1565b905092915050565b5f80fd5b5f819050919050565b61034f8161033d565b8114610359575f80fd5b50565b5f8135905061036a81610346565b92915050565b5f6020828403121561038557610384610339565b5b5f6103928482850161035c565b91505092915050565b5f73ffffffffffffffffffffffffffffffffffffffff82169050919050565b5f819050919050565b5f6103dd6103d86103d38461039b565b6103ba565b61039b565b9050919050565b5f6103ee826103c3565b9050919050565b5f6103ff826103e4565b9050919050565b61040f816103f5565b82525050565b5f6020820190506104285f830184610406565b92915050565b5f81519050919050565b5f82825260208201905092915050565b5f819050602082019050919050565b610460816103f5565b82525050565b5f6104718383610457565b60208301905092915050565b5f602082019050919050565b5f6104938261042e565b61049d8185610438565b93506104a883610448565b805f5b838110156104d85781516104bf8882610466565b97506104ca8361047d565b9250506001810190506104ab565b5085935050505092915050565b5f6020820190508181035f8301526104fd8184610489565b905092915050565b5f61050f8261039b565b9050919050565b61051f81610505565b8114610529575f80fd5b50565b5f8135905061053a81610516565b92915050565b5f6020828403121561055557610554610339565b5b5f6105628482850161052c565b91505092915050565b7f4e487b71000000000000000000000000000000000000000000000000000000005f52602260045260245ffd5b5f60028204905060018216806105af57607f821691505b6020821081036105c2576105c161056b565b5b5091905056fea26469706673582212202bb1679735fad801588fbd65c68501f8aedc48bfa96dbf67ddd72248fc97c5f964736f6c63430008180033a2646970667358221220713e9a2245dd90c8cf48211f68b905b2a1f6be6ee1f9ccf4865ea41d1d99bbd764736f6c63430008180033a264697066735822122007b0b031b037635d03da2a48e64cb850d3db3c0a5b11be2772f54e956374372564736f6c63430008180033",
			"opcodes": "PUSH1 0x80 PUSH1 0x40 MSTORE CALLVALUE DUP1 ISZERO PUSH2 0xF JUMPI PUSH0 DUP1 REVERT JUMPDEST POP PUSH2 0x3F80 DUP1 PUSH2 0x1D PUSH0 CODECOPY PUSH0 RETURN INVALID PUSH1 0x80 PUSH1 0x40 MSTORE CALLVALUE DUP1 ISZERO PUSH3 0x10 JUMPI PUSH0 DUP1 REVERT JUMPDEST POP PUSH1 0x4 CALLDATASIZE LT PUSH3 0x68 JUMPI PUSH0 CALLDATALOAD PUSH1 0xE0 SHR DUP1 PUSH4 0x6F8D757D EQ PUSH3 0x6C JUMPI DUP1 PUSH4 0x71BDCE55 EQ PUSH3 0x8C JUMPI DUP1 PUSH4 0x80F6CE08 EQ PUSH3 0xC3 JUMPI DUP1 PUSH4 0x8F96910C EQ PUSH3 0xE3 JUMPI DUP1 PUSH4 0x97348B34 EQ PUSH3 0x11D JUMPI DUP1 PUSH4 0xAE3A302B EQ PUSH3 0x13D JUMPI JUMPDEST PUSH0 DUP1 REVERT JUMPDEST PUSH3 0x8A PUSH1 0x4 DUP1 CALLDATASIZE SUB DUP2 ADD SWAP1 PUSH3 0x84 SWAP2 SWAP1 PUSH3 0xD94 JUMP JUMPDEST PUSH3 0x15F JUMP JUMPDEST STOP JUMPDEST PUSH3 0xAA PUSH1 0x4 DUP1 CALLDATASIZE SUB DUP2 ADD SWAP1 PUSH3 0xA4 SWAP2 SWAP1 PUSH3 0xD94 JUMP JUMPDEST PUSH3 0x2BF JUMP JUMPDEST PUSH1 0x40 MLOAD PUSH3 0xBA SWAP3 SWAP2 SWAP1 PUSH3 0xF32 JUMP JUMPDEST PUSH1 0x40 MLOAD DUP1 SWAP2 SUB SWAP1 RETURN JUMPDEST PUSH3 0xE1 PUSH1 0x4 DUP1 CALLDATASIZE SUB DUP2 ADD SWAP1 PUSH3 0xDB SWAP2 SWAP1 PUSH3 0x11A4 JUMP JUMPDEST PUSH3 0x3E1 JUMP JUMPDEST STOP JUMPDEST PUSH3 0x101 PUSH1 0x4 DUP1 CALLDATASIZE SUB DUP2 ADD SWAP1 PUSH3 0xFB SWAP2 SWAP1 PUSH3 0xD94 JUMP JUMPDEST PUSH3 0x48B JUMP JUMPDEST PUSH1 0x40 MLOAD PUSH3 0x114 SWAP6 SWAP5 SWAP4 SWAP3 SWAP2 SWAP1 PUSH3 0x130A JUMP JUMPDEST PUSH1 0x40 MLOAD DUP1 SWAP2 SUB SWAP1 RETURN JUMPDEST PUSH3 0x13B PUSH1 0x4 DUP1 CALLDATASIZE SUB DUP2 ADD SWAP1 PUSH3 0x135 SWAP2 SWAP1 PUSH3 0x1381 JUMP JUMPDEST PUSH3 0x677 JUMP JUMPDEST STOP JUMPDEST PUSH3 0x147 PUSH3 0x931 JUMP JUMPDEST PUSH1 0x40 MLOAD PUSH3 0x156 SWAP2 SWAP1 PUSH3 0x15D7 JUMP JUMPDEST PUSH1 0x40 MLOAD DUP1 SWAP2 SUB SWAP1 RETURN JUMPDEST PUSH0 DUP2 SWAP1 POP DUP1 PUSH20 0xFFFFFFFFFFFFFFFFFFFFFFFFFFFFFFFFFFFFFFFF AND PUSH4 0x7CC9E4F0 CALLER PUSH1 0x40 MLOAD DUP3 PUSH4 0xFFFFFFFF AND PUSH1 0xE0 SHL DUP2 MSTORE PUSH1 0x4 ADD PUSH3 0x19E SWAP2 SWAP1 PUSH3 0x15F9 JUMP JUMPDEST PUSH0 PUSH1 0x40 MLOAD DUP1 DUP4 SUB DUP2 PUSH0 DUP8 DUP1 EXTCODESIZE ISZERO DUP1 ISZERO PUSH3 0x1B6 JUMPI PUSH0 DUP1 REVERT JUMPDEST POP GAS CALL ISZERO DUP1 ISZERO PUSH3 0x1C9 JUMPI RETURNDATASIZE PUSH0 DUP1 RETURNDATACOPY RETURNDATASIZE PUSH0 REVERT JUMPDEST POP POP POP POP PUSH1 0x1 PUSH0 DUP4 PUSH20 0xFFFFFFFFFFFFFFFFFFFFFFFFFFFFFFFFFFFFFFFF AND PUSH20 0xFFFFFFFFFFFFFFFFFFFFFFFFFFFFFFFFFFFFFFFF AND DUP2 MSTORE PUSH1 0x20 ADD SWAP1 DUP2 MSTORE PUSH1 0x20 ADD PUSH0 KECCAK256 PUSH1 0x3 ADD CALLER SWAP1 DUP1 PUSH1 0x1 DUP2 SLOAD ADD DUP1 DUP3 SSTORE DUP1 SWAP2 POP POP PUSH1 0x1 SWAP1 SUB SWAP1 PUSH0 MSTORE PUSH1 0x20 PUSH0 KECCAK256 ADD PUSH0 SWAP1 SWAP2 SWAP1 SWAP2 SWAP1 SWAP2 PUSH2 0x100 EXP DUP2 SLOAD DUP2 PUSH20 0xFFFFFFFFFFFFFFFFFFFFFFFFFFFFFFFFFFFFFFFF MUL NOT AND SWAP1 DUP4 PUSH20 0xFFFFFFFFFFFFFFFFFFFFFFFFFFFFFFFFFFFFFFFF AND MUL OR SWAP1 SSTORE POP DUP2 PUSH20 0xFFFFFFFFFFFFFFFFFFFFFFFFFFFFFFFFFFFFFFFF AND PUSH32 0xEC647C6C46734CD6C239CDEFB4EBE06B8FD33872EB455C8C3DE49BD1FD145114 CALLER PUSH1 0x40 MLOAD PUSH3 0x2B3 SWAP2 SWAP1 PUSH3 0x15F9 JUMP JUMPDEST PUSH1 0x40 MLOAD DUP1 SWAP2 SUB SWAP1 LOG2 POP POP JUMP JUMPDEST PUSH0 PUSH1 0x60 DUP3 PUSH1 0x2 PUSH0 DUP6 PUSH20 0xFFFFFFFFFFFFFFFFFFFFFFFFFFFFFFFFFFFFFFFF AND PUSH20 0xFFFFFFFFFFFFFFFFFFFFFFFFFFFFFFFFFFFFFFFF AND DUP2 MSTORE PUSH1 0x20 ADD SWAP1 DUP2 MSTORE PUSH1 0x20 ADD PUSH0 KECCAK256 DUP1 DUP1 SLOAD DUP1 PUSH1 0x20 MUL PUSH1 0x20 ADD PUSH1 0x40 MLOAD SWAP1 DUP2 ADD PUSH1 0x40 MSTORE DUP1 SWAP3 SWAP2 SWAP1 DUP2 DUP2 MSTORE PUSH1 0x20 ADD PUSH0 SWAP1 JUMPDEST DUP3 DUP3 LT ISZERO PUSH3 0x3D2 JUMPI DUP4 DUP3 SWAP1 PUSH0 MSTORE PUSH1 0x20 PUSH0 KECCAK256 ADD DUP1 SLOAD PUSH3 0x340 SWAP1 PUSH3 0x1641 JUMP JUMPDEST DUP1 PUSH1 0x1F ADD PUSH1 0x20 DUP1 SWAP2 DIV MUL PUSH1 0x20 ADD PUSH1 0x40 MLOAD SWAP1 DUP2 ADD PUSH1 0x40 MSTORE DUP1 SWAP3 SWAP2 SWAP1 DUP2 DUP2 MSTORE PUSH1 0x20 ADD DUP3 DUP1 SLOAD PUSH3 0x36E SWAP1 PUSH3 0x1641 JUMP JUMPDEST DUP1 ISZERO PUSH3 0x3BD JUMPI DUP1 PUSH1 0x1F LT PUSH3 0x393 JUMPI PUSH2 0x100 DUP1 DUP4 SLOAD DIV MUL DUP4 MSTORE SWAP2 PUSH1 0x20 ADD SWAP2 PUSH3 0x3BD JUMP JUMPDEST DUP3 ADD SWAP2 SWAP1 PUSH0 MSTORE PUSH1 0x20 PUSH0 KECCAK256 SWAP1 JUMPDEST DUP2 SLOAD DUP2 MSTORE SWAP1 PUSH1 0x1 ADD SWAP1 PUSH1 0x20 ADD DUP1 DUP4 GT PUSH3 0x39F JUMPI DUP3 SWAP1 SUB PUSH1 0x1F AND DUP3 ADD SWAP2 JUMPDEST POP POP POP POP POP DUP2 MSTORE PUSH1 0x20 ADD SWAP1 PUSH1 0x1 ADD SWAP1 PUSH3 0x320 JUMP JUMPDEST POP POP POP POP SWAP1 POP SWAP2 POP SWAP2 POP SWAP2 POP SWAP2 JUMP JUMPDEST PUSH0 JUMPDEST DUP2 MLOAD DUP2 LT ISZERO PUSH3 0x487 JUMPI PUSH1 0x2 PUSH0 CALLER PUSH20 0xFFFFFFFFFFFFFFFFFFFFFFFFFFFFFFFFFFFFFFFF AND PUSH20 0xFFFFFFFFFFFFFFFFFFFFFFFFFFFFFFFFFFFFFFFF AND DUP2 MSTORE PUSH1 0x20 ADD SWAP1 DUP2 MSTORE PUSH1 0x20 ADD PUSH0 KECCAK256 DUP3 DUP3 DUP2 MLOAD DUP2 LT PUSH3 0x440 JUMPI PUSH3 0x43F PUSH3 0x1675 JUMP JUMPDEST JUMPDEST PUSH1 0x20 MUL PUSH1 0x20 ADD ADD MLOAD SWAP1 DUP1 PUSH1 0x1 DUP2 SLOAD ADD DUP1 DUP3 SSTORE DUP1 SWAP2 POP POP PUSH1 0x1 SWAP1 SUB SWAP1 PUSH0 MSTORE PUSH1 0x20 PUSH0 KECCAK256 ADD PUSH0 SWAP1 SWAP2 SWAP1 SWAP2 SWAP1 SWAP2 POP SWAP1 DUP2 PUSH3 0x478 SWAP2 SWAP1 PUSH3 0x186E JUMP JUMPDEST POP DUP1 DUP1 PUSH1 0x1 ADD SWAP2 POP POP PUSH3 0x3E3 JUMP JUMPDEST POP POP JUMP JUMPDEST PUSH0 PUSH1 0x60 DUP1 PUSH1 0x60 DUP1 PUSH0 DUP7 SWAP1 POP DUP7 DUP2 PUSH20 0xFFFFFFFFFFFFFFFFFFFFFFFFFFFFFFFFFFFFFFFF AND PUSH4 0x4A79D50C PUSH1 0x40 MLOAD DUP2 PUSH4 0xFFFFFFFF AND PUSH1 0xE0 SHL DUP2 MSTORE PUSH1 0x4 ADD PUSH0 PUSH1 0x40 MLOAD DUP1 DUP4 SUB DUP2 DUP7 GAS STATICCALL ISZERO DUP1 ISZERO PUSH3 0x4E0 JUMPI RETURNDATASIZE PUSH0 DUP1 RETURNDATACOPY RETURNDATASIZE PUSH0 REVERT JUMPDEST POP POP POP POP PUSH1 0x40 MLOAD RETURNDATASIZE PUSH0 DUP3 RETURNDATACOPY RETURNDATASIZE PUSH1 0x1F NOT PUSH1 0x1F DUP3 ADD AND DUP3 ADD DUP1 PUSH1 0x40 MSTORE POP DUP2 ADD SWAP1 PUSH3 0x50A SWAP2 SWAP1 PUSH3 0x19CE JUMP JUMPDEST DUP3 PUSH20 0xFFFFFFFFFFFFFFFFFFFFFFFFFFFFFFFFFFFFFFFF AND PUSH4 0x1DF02828 PUSH1 0x40 MLOAD DUP2 PUSH4 0xFFFFFFFF AND PUSH1 0xE0 SHL DUP2 MSTORE PUSH1 0x4 ADD PUSH0 PUSH1 0x40 MLOAD DUP1 DUP4 SUB DUP2 DUP7 GAS STATICCALL ISZERO DUP1 ISZERO PUSH3 0x553 JUMPI RETURNDATASIZE PUSH0 DUP1 RETURNDATACOPY RETURNDATASIZE PUSH0 REVERT JUMPDEST POP POP POP POP PUSH1 0x40 MLOAD RETURNDATASIZE PUSH0 DUP3 RETURNDATACOPY RETURNDATASIZE PUSH1 0x1F NOT PUSH1 0x1F DUP3 ADD AND DUP3 ADD DUP1 PUSH1 0x40 MSTORE POP DUP2 ADD SWAP1 PUSH3 0x57D SWAP2 SWAP1 PUSH3 0x19CE JUMP JUMPDEST DUP4 PUSH20 0xFFFFFFFFFFFFFFFFFFFFFFFFFFFFFFFFFFFFFFFF AND PUSH4 0x4A481EB7 PUSH1 0x40 MLOAD DUP2 PUSH4 0xFFFFFFFF AND PUSH1 0xE0 SHL DUP2 MSTORE PUSH1 0x4 ADD PUSH0 PUSH1 0x40 MLOAD DUP1 DUP4 SUB DUP2 DUP7 GAS STATICCALL ISZERO DUP1 ISZERO PUSH3 0x5C6 JUMPI RETURNDATASIZE PUSH0 DUP1 RETURNDATACOPY RETURNDATASIZE PUSH0 REVERT JUMPDEST POP POP POP POP PUSH1 0x40 MLOAD RETURNDATASIZE PUSH0 DUP3 RETURNDATACOPY RETURNDATASIZE PUSH1 0x1F NOT PUSH1 0x1F DUP3 ADD AND DUP3 ADD DUP1 PUSH1 0x40 MSTORE POP DUP2 ADD SWAP1 PUSH3 0x5F0 SWAP2 SWAP1 PUSH3 0x1B06 JUMP JUMPDEST DUP5 PUSH20 0xFFFFFFFFFFFFFFFFFFFFFFFFFFFFFFFFFFFFFFFF AND PUSH4 0xD1D8D6D PUSH1 0x40 MLOAD DUP2 PUSH4 0xFFFFFFFF AND PUSH1 0xE0 SHL DUP2 MSTORE PUSH1 0x4 ADD PUSH0 PUSH1 0x40 MLOAD DUP1 DUP4 SUB DUP2 DUP7 GAS STATICCALL ISZERO DUP1 ISZERO PUSH3 0x639 JUMPI RETURNDATASIZE PUSH0 DUP1 RETURNDATACOPY RETURNDATASIZE PUSH0 REVERT JUMPDEST POP POP POP POP PUSH1 0x40 MLOAD RETURNDATASIZE PUSH0 DUP3 RETURNDATACOPY RETURNDATASIZE PUSH1 0x1F NOT PUSH1 0x1F DUP3 ADD AND DUP3 ADD DUP1 PUSH1 0x40 MSTORE POP DUP2 ADD SWAP1 PUSH3 0x663 SWAP2 SWAP1 PUSH3 0x1B06 JUMP JUMPDEST SWAP6 POP SWAP6 POP SWAP6 POP SWAP6 POP SWAP6 POP POP SWAP2 SWAP4 SWAP6 SWAP1 SWAP3 SWAP5 POP JUMP JUMPDEST PUSH0 DUP3 DUP3 CALLER PUSH1 0x40 MLOAD PUSH3 0x689 SWAP1 PUSH3 0xC27 JUMP JUMPDEST PUSH3 0x697 SWAP4 SWAP3 SWAP2 SWAP1 PUSH3 0x1B55 JUMP JUMPDEST PUSH1 0x40 MLOAD DUP1 SWAP2 SUB SWAP1 PUSH0 CREATE DUP1 ISZERO DUP1 ISZERO PUSH3 0x6B1 JUMPI RETURNDATASIZE PUSH0 DUP1 RETURNDATACOPY RETURNDATASIZE PUSH0 REVERT JUMPDEST POP SWAP1 POP PUSH0 DUP2 SWAP1 DUP1 PUSH1 0x1 DUP2 SLOAD ADD DUP1 DUP3 SSTORE DUP1 SWAP2 POP POP PUSH1 0x1 SWAP1 SUB SWAP1 PUSH0 MSTORE PUSH1 0x20 PUSH0 KECCAK256 ADD PUSH0 SWAP1 SWAP2 SWAP1 SWAP2 SWAP1 SWAP2 PUSH2 0x100 EXP DUP2 SLOAD DUP2 PUSH20 0xFFFFFFFFFFFFFFFFFFFFFFFFFFFFFFFFFFFFFFFF MUL NOT AND SWAP1 DUP4 PUSH20 0xFFFFFFFFFFFFFFFFFFFFFFFFFFFFFFFFFFFFFFFF AND MUL OR SWAP1 SSTORE POP PUSH1 0x40 MLOAD DUP1 PUSH1 0xA0 ADD PUSH1 0x40 MSTORE DUP1 DUP3 PUSH20 0xFFFFFFFFFFFFFFFFFFFFFFFFFFFFFFFFFFFFFFFF AND DUP2 MSTORE PUSH1 0x20 ADD DUP5 DUP2 MSTORE PUSH1 0x20 ADD DUP4 DUP2 MSTORE PUSH1 0x20 ADD PUSH0 PUSH8 0xFFFFFFFFFFFFFFFF DUP2 GT ISZERO PUSH3 0x763 JUMPI PUSH3 0x762 PUSH3 0xF68 JUMP JUMPDEST JUMPDEST PUSH1 0x40 MLOAD SWAP1 DUP1 DUP3 MSTORE DUP1 PUSH1 0x20 MUL PUSH1 0x20 ADD DUP3 ADD PUSH1 0x40 MSTORE DUP1 ISZERO PUSH3 0x792 JUMPI DUP2 PUSH1 0x20 ADD PUSH1 0x20 DUP3 MUL DUP1 CALLDATASIZE DUP4 CALLDATACOPY DUP1 DUP3 ADD SWAP2 POP POP SWAP1 POP JUMPDEST POP DUP2 MSTORE PUSH1 0x20 ADD PUSH0 PUSH8 0xFFFFFFFFFFFFFFFF DUP2 GT ISZERO PUSH3 0x7B5 JUMPI PUSH3 0x7B4 PUSH3 0xF68 JUMP JUMPDEST JUMPDEST PUSH1 0x40 MLOAD SWAP1 DUP1 DUP3 MSTORE DUP1 PUSH1 0x20 MUL PUSH1 0x20 ADD DUP3 ADD PUSH1 0x40 MSTORE DUP1 ISZERO PUSH3 0x7E4 JUMPI DUP2 PUSH1 0x20 ADD PUSH1 0x20 DUP3 MUL DUP1 CALLDATASIZE DUP4 CALLDATACOPY DUP1 DUP3 ADD SWAP2 POP POP SWAP1 POP JUMPDEST POP DUP2 MSTORE POP PUSH1 0x1 PUSH0 DUP4 PUSH20 0xFFFFFFFFFFFFFFFFFFFFFFFFFFFFFFFFFFFFFFFF AND PUSH20 0xFFFFFFFFFFFFFFFFFFFFFFFFFFFFFFFFFFFFFFFF AND DUP2 MSTORE PUSH1 0x20 ADD SWAP1 DUP2 MSTORE PUSH1 0x20 ADD PUSH0 KECCAK256 PUSH0 DUP3 ADD MLOAD DUP2 PUSH0 ADD PUSH0 PUSH2 0x100 EXP DUP2 SLOAD DUP2 PUSH20 0xFFFFFFFFFFFFFFFFFFFFFFFFFFFFFFFFFFFFFFFF MUL NOT AND SWAP1 DUP4 PUSH20 0xFFFFFFFFFFFFFFFFFFFFFFFFFFFFFFFFFFFFFFFF AND MUL OR SWAP1 SSTORE POP PUSH1 0x20 DUP3 ADD MLOAD DUP2 PUSH1 0x1 ADD SWAP1 DUP2 PUSH3 0x880 SWAP2 SWAP1 PUSH3 0x186E JUMP JUMPDEST POP PUSH1 0x40 DUP3 ADD MLOAD DUP2 PUSH1 0x2 ADD SWAP1 DUP2 PUSH3 0x898 SWAP2 SWAP1 PUSH3 0x186E JUMP JUMPDEST POP PUSH1 0x60 DUP3 ADD MLOAD DUP2 PUSH1 0x3 ADD SWAP1 DUP1 MLOAD SWAP1 PUSH1 0x20 ADD SWAP1 PUSH3 0x8B7 SWAP3 SWAP2 SWAP1 PUSH3 0xC35 JUMP JUMPDEST POP PUSH1 0x80 DUP3 ADD MLOAD DUP2 PUSH1 0x4 ADD SWAP1 DUP1 MLOAD SWAP1 PUSH1 0x20 ADD SWAP1 PUSH3 0x8D6 SWAP3 SWAP2 SWAP1 PUSH3 0xC35 JUMP JUMPDEST POP SWAP1 POP POP DUP1 PUSH20 0xFFFFFFFFFFFFFFFFFFFFFFFFFFFFFFFFFFFFFFFF AND PUSH32 0xDBAA2A3CB725A3B49A08FFD6227E27893C1052A6528092F064DF01BEB16393AF DUP5 DUP5 PUSH1 0x40 MLOAD PUSH3 0x924 SWAP3 SWAP2 SWAP1 PUSH3 0x1B9E JUMP JUMPDEST PUSH1 0x40 MLOAD DUP1 SWAP2 SUB SWAP1 LOG2 POP POP POP JUMP JUMPDEST PUSH1 0x60 PUSH0 DUP1 DUP1 SLOAD SWAP1 POP PUSH8 0xFFFFFFFFFFFFFFFF DUP2 GT ISZERO PUSH3 0x955 JUMPI PUSH3 0x954 PUSH3 0xF68 JUMP JUMPDEST JUMPDEST PUSH1 0x40 MLOAD SWAP1 DUP1 DUP3 MSTORE DUP1 PUSH1 0x20 MUL PUSH1 0x20 ADD DUP3 ADD PUSH1 0x40 MSTORE DUP1 ISZERO PUSH3 0x992 JUMPI DUP2 PUSH1 0x20 ADD JUMPDEST PUSH3 0x97E PUSH3 0xCC1 JUMP JUMPDEST DUP2 MSTORE PUSH1 0x20 ADD SWAP1 PUSH1 0x1 SWAP1 SUB SWAP1 DUP2 PUSH3 0x974 JUMPI SWAP1 POP JUMPDEST POP SWAP1 POP PUSH0 JUMPDEST PUSH0 DUP1 SLOAD SWAP1 POP DUP2 LT ISZERO PUSH3 0xC1F JUMPI PUSH0 DUP1 DUP3 DUP2 SLOAD DUP2 LT PUSH3 0x9BB JUMPI PUSH3 0x9BA PUSH3 0x1675 JUMP JUMPDEST JUMPDEST SWAP1 PUSH0 MSTORE PUSH1 0x20 PUSH0 KECCAK256 ADD PUSH0 SWAP1 SLOAD SWAP1 PUSH2 0x100 EXP SWAP1 DIV PUSH20 0xFFFFFFFFFFFFFFFFFFFFFFFFFFFFFFFFFFFFFFFF AND SWAP1 POP PUSH0 DUP2 SWAP1 POP PUSH1 0x40 MLOAD DUP1 PUSH1 0xA0 ADD PUSH1 0x40 MSTORE DUP1 DUP4 PUSH20 0xFFFFFFFFFFFFFFFFFFFFFFFFFFFFFFFFFFFFFFFF AND DUP2 MSTORE PUSH1 0x20 ADD DUP3 PUSH20 0xFFFFFFFFFFFFFFFFFFFFFFFFFFFFFFFFFFFFFFFF AND PUSH4 0x4A79D50C PUSH1 0x40 MLOAD DUP2 PUSH4 0xFFFFFFFF AND PUSH1 0xE0 SHL DUP2 MSTORE PUSH1 0x4 ADD PUSH0 PUSH1 0x40 MLOAD DUP1 DUP4 SUB DUP2 DUP7 GAS STATICCALL ISZERO DUP1 ISZERO PUSH3 0xA59 JUMPI RETURNDATASIZE PUSH0 DUP1 RETURNDATACOPY RETURNDATASIZE PUSH0 REVERT JUMPDEST POP POP POP POP PUSH1 0x40 MLOAD RETURNDATASIZE PUSH0 DUP3 RETURNDATACOPY RETURNDATASIZE PUSH1 0x1F NOT PUSH1 0x1F DUP3 ADD AND DUP3 ADD DUP1 PUSH1 0x40 MSTORE POP DUP2 ADD SWAP1 PUSH3 0xA83 SWAP2 SWAP1 PUSH3 0x19CE JUMP JUMPDEST DUP2 MSTORE PUSH1 0x20 ADD DUP3 PUSH20 0xFFFFFFFFFFFFFFFFFFFFFFFFFFFFFFFFFFFFFFFF AND PUSH4 0x1DF02828 PUSH1 0x40 MLOAD DUP2 PUSH4 0xFFFFFFFF AND PUSH1 0xE0 SHL DUP2 MSTORE PUSH1 0x4 ADD PUSH0 PUSH1 0x40 MLOAD DUP1 DUP4 SUB DUP2 DUP7 GAS STATICCALL ISZERO DUP1 ISZERO PUSH3 0xAD1 JUMPI RETURNDATASIZE PUSH0 DUP1 RETURNDATACOPY RETURNDATASIZE PUSH0 REVERT JUMPDEST POP POP POP POP PUSH1 0x40 MLOAD RETURNDATASIZE PUSH0 DUP3 RETURNDATACOPY RETURNDATASIZE PUSH1 0x1F NOT PUSH1 0x1F DUP3 ADD AND DUP3 ADD DUP1 PUSH1 0x40 MSTORE POP DUP2 ADD SWAP1 PUSH3 0xAFB SWAP2 SWAP1 PUSH3 0x19CE JUMP JUMPDEST DUP2 MSTORE PUSH1 0x20 ADD DUP3 PUSH20 0xFFFFFFFFFFFFFFFFFFFFFFFFFFFFFFFFFFFFFFFF AND PUSH4 0x4A481EB7 PUSH1 0x40 MLOAD DUP2 PUSH4 0xFFFFFFFF AND PUSH1 0xE0 SHL DUP2 MSTORE PUSH1 0x4 ADD PUSH0 PUSH1 0x40 MLOAD DUP1 DUP4 SUB DUP2 DUP7 GAS STATICCALL ISZERO DUP1 ISZERO PUSH3 0xB49 JUMPI RETURNDATASIZE PUSH0 DUP1 RETURNDATACOPY RETURNDATASIZE PUSH0 REVERT JUMPDEST POP POP POP POP PUSH1 0x40 MLOAD RETURNDATASIZE PUSH0 DUP3 RETURNDATACOPY RETURNDATASIZE PUSH1 0x1F NOT PUSH1 0x1F DUP3 ADD AND DUP3 ADD DUP1 PUSH1 0x40 MSTORE POP DUP2 ADD SWAP1 PUSH3 0xB73 SWAP2 SWAP1 PUSH3 0x1B06 JUMP JUMPDEST DUP2 MSTORE PUSH1 0x20 ADD DUP3 PUSH20 0xFFFFFFFFFFFFFFFFFFFFFFFFFFFFFFFFFFFFFFFF AND PUSH4 0xD1D8D6D PUSH1 0x40 MLOAD DUP2 PUSH4 0xFFFFFFFF AND PUSH1 0xE0 SHL DUP2 MSTORE PUSH1 0x4 ADD PUSH0 PUSH1 0x40 MLOAD DUP1 DUP4 SUB DUP2 DUP7 GAS STATICCALL ISZERO DUP1 ISZERO PUSH3 0xBC1 JUMPI RETURNDATASIZE PUSH0 DUP1 RETURNDATACOPY RETURNDATASIZE PUSH0 REVERT JUMPDEST POP POP POP POP PUSH1 0x40 MLOAD RETURNDATASIZE PUSH0 DUP3 RETURNDATACOPY RETURNDATASIZE PUSH1 0x1F NOT PUSH1 0x1F DUP3 ADD AND DUP3 ADD DUP1 PUSH1 0x40 MSTORE POP DUP2 ADD SWAP1 PUSH3 0xBEB SWAP2 SWAP1 PUSH3 0x1B06 JUMP JUMPDEST DUP2 MSTORE POP DUP5 DUP5 DUP2 MLOAD DUP2 LT PUSH3 0xC04 JUMPI PUSH3 0xC03 PUSH3 0x1675 JUMP JUMPDEST JUMPDEST PUSH1 0x20 MUL PUSH1 0x20 ADD ADD DUP2 SWAP1 MSTORE POP POP POP DUP1 DUP1 PUSH1 0x1 ADD SWAP2 POP POP PUSH3 0x997 JUMP JUMPDEST POP DUP1 SWAP2 POP POP SWAP1 JUMP JUMPDEST PUSH2 0x2373 DUP1 PUSH3 0x1BD8 DUP4 CODECOPY ADD SWAP1 JUMP JUMPDEST DUP3 DUP1 SLOAD DUP3 DUP3 SSTORE SWAP1 PUSH0 MSTORE PUSH1 0x20 PUSH0 KECCAK256 SWAP1 DUP2 ADD SWAP3 DUP3 ISZERO PUSH3 0xCAE JUMPI SWAP2 PUSH1 0x20 MUL DUP3 ADD JUMPDEST DUP3 DUP2 GT ISZERO PUSH3 0xCAD JUMPI DUP3 MLOAD DUP3 PUSH0 PUSH2 0x100 EXP DUP2 SLOAD DUP2 PUSH20 0xFFFFFFFFFFFFFFFFFFFFFFFFFFFFFFFFFFFFFFFF MUL NOT AND SWAP1 DUP4 PUSH20 0xFFFFFFFFFFFFFFFFFFFFFFFFFFFFFFFFFFFFFFFF AND MUL OR SWAP1 SSTORE POP SWAP2 PUSH1 0x20 ADD SWAP2 SWAP1 PUSH1 0x1 ADD SWAP1 PUSH3 0xC54 JUMP JUMPDEST JUMPDEST POP SWAP1 POP PUSH3 0xCBD SWAP2 SWAP1 PUSH3 0xD05 JUMP JUMPDEST POP SWAP1 JUMP JUMPDEST PUSH1 0x40 MLOAD DUP1 PUSH1 0xA0 ADD PUSH1 0x40 MSTORE DUP1 PUSH0 PUSH20 0xFFFFFFFFFFFFFFFFFFFFFFFFFFFFFFFFFFFFFFFF AND DUP2 MSTORE PUSH1 0x20 ADD PUSH1 0x60 DUP2 MSTORE PUSH1 0x20 ADD PUSH1 0x60 DUP2 MSTORE PUSH1 0x20 ADD PUSH1 0x60 DUP2 MSTORE PUSH1 0x20 ADD PUSH1 0x60 DUP2 MSTORE POP SWAP1 JUMP JUMPDEST JUMPDEST DUP1 DUP3 GT ISZERO PUSH3 0xD1E JUMPI PUSH0 DUP2 PUSH0 SWAP1 SSTORE POP PUSH1 0x1 ADD PUSH3 0xD06 JUMP JUMPDEST POP SWAP1 JUMP JUMPDEST PUSH0 PUSH1 0x40 MLOAD SWAP1 POP SWAP1 JUMP JUMPDEST PUSH0 DUP1 REVERT JUMPDEST PUSH0 DUP1 REVERT JUMPDEST PUSH0 PUSH20 0xFFFFFFFFFFFFFFFFFFFFFFFFFFFFFFFFFFFFFFFF DUP3 AND SWAP1 POP SWAP2 SWAP1 POP JUMP JUMPDEST PUSH0 PUSH3 0xD5E DUP3 PUSH3 0xD33 JUMP JUMPDEST SWAP1 POP SWAP2 SWAP1 POP JUMP JUMPDEST PUSH3 0xD70 DUP2 PUSH3 0xD52 JUMP JUMPDEST DUP2 EQ PUSH3 0xD7B JUMPI PUSH0 DUP1 REVERT JUMPDEST POP JUMP JUMPDEST PUSH0 DUP2 CALLDATALOAD SWAP1 POP PUSH3 0xD8E DUP2 PUSH3 0xD65 JUMP JUMPDEST SWAP3 SWAP2 POP POP JUMP JUMPDEST PUSH0 PUSH1 0x20 DUP3 DUP5 SUB SLT ISZERO PUSH3 0xDAC JUMPI PUSH3 0xDAB PUSH3 0xD2B JUMP JUMPDEST JUMPDEST PUSH0 PUSH3 0xDBB DUP5 DUP3 DUP6 ADD PUSH3 0xD7E JUMP JUMPDEST SWAP2 POP POP SWAP3 SWAP2 POP POP JUMP JUMPDEST PUSH3 0xDCF DUP2 PUSH3 0xD52 JUMP JUMPDEST DUP3 MSTORE POP POP JUMP JUMPDEST PUSH0 DUP2 MLOAD SWAP1 POP SWAP2 SWAP1 POP JUMP JUMPDEST PUSH0 DUP3 DUP3 MSTORE PUSH1 0x20 DUP3 ADD SWAP1 POP SWAP3 SWAP2 POP POP JUMP JUMPDEST PUSH0 DUP2 SWAP1 POP PUSH1 0x20 DUP3 ADD SWAP1 POP SWAP2 SWAP1 POP JUMP JUMPDEST PUSH0 DUP2 MLOAD SWAP1 POP SWAP2 SWAP1 POP JUMP JUMPDEST PUSH0 DUP3 DUP3 MSTORE PUSH1 0x20 DUP3 ADD SWAP1 POP SWAP3 SWAP2 POP POP JUMP JUMPDEST PUSH0 JUMPDEST DUP4 DUP2 LT ISZERO PUSH3 0xE37 JUMPI DUP1 DUP3 ADD MLOAD DUP2 DUP5 ADD MSTORE PUSH1 0x20 DUP2 ADD SWAP1 POP PUSH3 0xE1A JUMP JUMPDEST PUSH0 DUP5 DUP5 ADD MSTORE POP POP POP POP JUMP JUMPDEST PUSH0 PUSH1 0x1F NOT PUSH1 0x1F DUP4 ADD AND SWAP1 POP SWAP2 SWAP1 POP JUMP JUMPDEST PUSH0 PUSH3 0xE5E DUP3 PUSH3 0xDFE JUMP JUMPDEST PUSH3 0xE6A DUP2 DUP6 PUSH3 0xE08 JUMP JUMPDEST SWAP4 POP PUSH3 0xE7C DUP2 DUP6 PUSH1 0x20 DUP7 ADD PUSH3 0xE18 JUMP JUMPDEST PUSH3 0xE87 DUP2 PUSH3 0xE42 JUMP JUMPDEST DUP5 ADD SWAP2 POP POP SWAP3 SWAP2 POP POP JUMP JUMPDEST PUSH0 PUSH3 0xE9F DUP4 DUP4 PUSH3 0xE52 JUMP JUMPDEST SWAP1 POP SWAP3 SWAP2 POP POP JUMP JUMPDEST PUSH0 PUSH1 0x20 DUP3 ADD SWAP1 POP SWAP2 SWAP1 POP JUMP JUMPDEST PUSH0 PUSH3 0xEBF DUP3 PUSH3 0xDD5 JUMP JUMPDEST PUSH3 0xECB DUP2 DUP6 PUSH3 0xDDF JUMP JUMPDEST SWAP4 POP DUP4 PUSH1 0x20 DUP3 MUL DUP6 ADD PUSH3 0xEDF DUP6 PUSH3 0xDEF JUMP JUMPDEST DUP1 PUSH0 JUMPDEST DUP6 DUP2 LT ISZERO PUSH3 0xF20 JUMPI DUP5 DUP5 SUB DUP10 MSTORE DUP2 MLOAD PUSH3 0xEFE DUP6 DUP3 PUSH3 0xE92 JUMP JUMPDEST SWAP5 POP PUSH3 0xF0B DUP4 PUSH3 0xEA7 JUMP JUMPDEST SWAP3 POP PUSH1 0x20 DUP11 ADD SWAP10 POP POP PUSH1 0x1 DUP2 ADD SWAP1 POP PUSH3 0xEE2 JUMP JUMPDEST POP DUP3 SWAP8 POP DUP8 SWAP6 POP POP POP POP POP POP SWAP3 SWAP2 POP POP JUMP JUMPDEST PUSH0 PUSH1 0x40 DUP3 ADD SWAP1 POP PUSH3 0xF47 PUSH0 DUP4 ADD DUP6 PUSH3 0xDC4 JUMP JUMPDEST DUP2 DUP2 SUB PUSH1 0x20 DUP4 ADD MSTORE PUSH3 0xF5B DUP2 DUP5 PUSH3 0xEB3 JUMP JUMPDEST SWAP1 POP SWAP4 SWAP3 POP POP POP JUMP JUMPDEST PUSH0 DUP1 REVERT JUMPDEST PUSH32 0x4E487B7100000000000000000000000000000000000000000000000000000000 PUSH0 MSTORE PUSH1 0x41 PUSH1 0x4 MSTORE PUSH1 0x24 PUSH0 REVERT JUMPDEST PUSH3 0xFA0 DUP3 PUSH3 0xE42 JUMP JUMPDEST DUP2 ADD DUP2 DUP2 LT PUSH8 0xFFFFFFFFFFFFFFFF DUP3 GT OR ISZERO PUSH3 0xFC2 JUMPI PUSH3 0xFC1 PUSH3 0xF68 JUMP JUMPDEST JUMPDEST DUP1 PUSH1 0x40 MSTORE POP POP POP JUMP JUMPDEST PUSH0 PUSH3 0xFD6 PUSH3 0xD22 JUMP JUMPDEST SWAP1 POP PUSH3 0xFE4 DUP3 DUP3 PUSH3 0xF95 JUMP JUMPDEST SWAP2 SWAP1 POP JUMP JUMPDEST PUSH0 PUSH8 0xFFFFFFFFFFFFFFFF DUP3 GT ISZERO PUSH3 0x1006 JUMPI PUSH3 0x1005 PUSH3 0xF68 JUMP JUMPDEST JUMPDEST PUSH1 0x20 DUP3 MUL SWAP1 POP PUSH1 0x20 DUP2 ADD SWAP1 POP SWAP2 SWAP1 POP JUMP JUMPDEST PUSH0 DUP1 REVERT JUMPDEST PUSH0 DUP1 REVERT JUMPDEST PUSH0 PUSH8 0xFFFFFFFFFFFFFFFF DUP3 GT ISZERO PUSH3 0x103C JUMPI PUSH3 0x103B PUSH3 0xF68 JUMP JUMPDEST JUMPDEST PUSH3 0x1047 DUP3 PUSH3 0xE42 JUMP JUMPDEST SWAP1 POP PUSH1 0x20 DUP2 ADD SWAP1 POP SWAP2 SWAP1 POP JUMP JUMPDEST DUP3 DUP2 DUP4 CALLDATACOPY PUSH0 DUP4 DUP4 ADD MSTORE POP POP POP JUMP JUMPDEST PUSH0 PUSH3 0x1078 PUSH3 0x1072 DUP5 PUSH3 0x101F JUMP JUMPDEST PUSH3 0xFCB JUMP JUMPDEST SWAP1 POP DUP3 DUP2 MSTORE PUSH1 0x20 DUP2 ADD DUP5 DUP5 DUP5 ADD GT ISZERO PUSH3 0x1097 JUMPI PUSH3 0x1096 PUSH3 0x101B JUMP JUMPDEST JUMPDEST PUSH3 0x10A4 DUP5 DUP3 DUP6 PUSH3 0x1054 JUMP JUMPDEST POP SWAP4 SWAP3 POP POP POP JUMP JUMPDEST PUSH0 DUP3 PUSH1 0x1F DUP4 ADD SLT PUSH3 0x10C3 JUMPI PUSH3 0x10C2 PUSH3 0xF64 JUMP JUMPDEST JUMPDEST DUP2 CALLDATALOAD PUSH3 0x10D5 DUP5 DUP3 PUSH1 0x20 DUP7 ADD PUSH3 0x1062 JUMP JUMPDEST SWAP2 POP POP SWAP3 SWAP2 POP POP JUMP JUMPDEST PUSH0 PUSH3 0x10F4 PUSH3 0x10EE DUP5 PUSH3 0xFE9 JUMP JUMPDEST PUSH3 0xFCB JUMP JUMPDEST SWAP1 POP DUP1 DUP4 DUP3 MSTORE PUSH1 0x20 DUP3 ADD SWAP1 POP PUSH1 0x20 DUP5 MUL DUP4 ADD DUP6 DUP2 GT ISZERO PUSH3 0x111A JUMPI PUSH3 0x1119 PUSH3 0x1017 JUMP JUMPDEST JUMPDEST DUP4 JUMPDEST DUP2 DUP2 LT ISZERO PUSH3 0x1168 JUMPI DUP1 CALLDATALOAD PUSH8 0xFFFFFFFFFFFFFFFF DUP2 GT ISZERO PUSH3 0x1143 JUMPI PUSH3 0x1142 PUSH3 0xF64 JUMP JUMPDEST JUMPDEST DUP1 DUP7 ADD PUSH3 0x1152 DUP10 DUP3 PUSH3 0x10AC JUMP JUMPDEST DUP6 MSTORE PUSH1 0x20 DUP6 ADD SWAP5 POP POP POP PUSH1 0x20 DUP2 ADD SWAP1 POP PUSH3 0x111C JUMP JUMPDEST POP POP POP SWAP4 SWAP3 POP POP POP JUMP JUMPDEST PUSH0 DUP3 PUSH1 0x1F DUP4 ADD SLT PUSH3 0x1189 JUMPI PUSH3 0x1188 PUSH3 0xF64 JUMP JUMPDEST JUMPDEST DUP2 CALLDATALOAD PUSH3 0x119B DUP5 DUP3 PUSH1 0x20 DUP7 ADD PUSH3 0x10DE JUMP JUMPDEST SWAP2 POP POP SWAP3 SWAP2 POP POP JUMP JUMPDEST PUSH0 PUSH1 0x20 DUP3 DUP5 SUB SLT ISZERO PUSH3 0x11BC JUMPI PUSH3 0x11BB PUSH3 0xD2B JUMP JUMPDEST JUMPDEST PUSH0 DUP3 ADD CALLDATALOAD PUSH8 0xFFFFFFFFFFFFFFFF DUP2 GT ISZERO PUSH3 0x11DC JUMPI PUSH3 0x11DB PUSH3 0xD2F JUMP JUMPDEST JUMPDEST PUSH3 0x11EA DUP5 DUP3 DUP6 ADD PUSH3 0x1172 JUMP JUMPDEST SWAP2 POP POP SWAP3 SWAP2 POP POP JUMP JUMPDEST PUSH0 DUP3 DUP3 MSTORE PUSH1 0x20 DUP3 ADD SWAP1 POP SWAP3 SWAP2 POP POP JUMP JUMPDEST PUSH0 PUSH3 0x120F DUP3 PUSH3 0xDFE JUMP JUMPDEST PUSH3 0x121B DUP2 DUP6 PUSH3 0x11F3 JUMP JUMPDEST SWAP4 POP PUSH3 0x122D DUP2 DUP6 PUSH1 0x20 DUP7 ADD PUSH3 0xE18 JUMP JUMPDEST PUSH3 0x1238 DUP2 PUSH3 0xE42 JUMP JUMPDEST DUP5 ADD SWAP2 POP POP SWAP3 SWAP2 POP POP JUMP JUMPDEST PUSH0 DUP2 MLOAD SWAP1 POP SWAP2 SWAP1 POP JUMP JUMPDEST PUSH0 DUP3 DUP3 MSTORE PUSH1 0x20 DUP3 ADD SWAP1 POP SWAP3 SWAP2 POP POP JUMP JUMPDEST PUSH0 DUP2 SWAP1 POP PUSH1 0x20 DUP3 ADD SWAP1 POP SWAP2 SWAP1 POP JUMP JUMPDEST PUSH3 0x1277 DUP2 PUSH3 0xD52 JUMP JUMPDEST DUP3 MSTORE POP POP JUMP JUMPDEST PUSH0 PUSH3 0x128A DUP4 DUP4 PUSH3 0x126C JUMP JUMPDEST PUSH1 0x20 DUP4 ADD SWAP1 POP SWAP3 SWAP2 POP POP JUMP JUMPDEST PUSH0 PUSH1 0x20 DUP3 ADD SWAP1 POP SWAP2 SWAP1 POP JUMP JUMPDEST PUSH0 PUSH3 0x12AE DUP3 PUSH3 0x1243 JUMP JUMPDEST PUSH3 0x12BA DUP2 DUP6 PUSH3 0x124D JUMP JUMPDEST SWAP4 POP PUSH3 0x12C7 DUP4 PUSH3 0x125D JUMP JUMPDEST DUP1 PUSH0 JUMPDEST DUP4 DUP2 LT ISZERO PUSH3 0x12FD JUMPI DUP2 MLOAD PUSH3 0x12E1 DUP9 DUP3 PUSH3 0x127D JUMP JUMPDEST SWAP8 POP PUSH3 0x12EE DUP4 PUSH3 0x1296 JUMP JUMPDEST SWAP3 POP POP PUSH1 0x1 DUP2 ADD SWAP1 POP PUSH3 0x12CA JUMP JUMPDEST POP DUP6 SWAP4 POP POP POP POP SWAP3 SWAP2 POP POP JUMP JUMPDEST PUSH0 PUSH1 0xA0 DUP3 ADD SWAP1 POP PUSH3 0x131F PUSH0 DUP4 ADD DUP9 PUSH3 0xDC4 JUMP JUMPDEST DUP2 DUP2 SUB PUSH1 0x20 DUP4 ADD MSTORE PUSH3 0x1333 DUP2 DUP8 PUSH3 0x1203 JUMP JUMPDEST SWAP1 POP DUP2 DUP2 SUB PUSH1 0x40 DUP4 ADD MSTORE PUSH3 0x1349 DUP2 DUP7 PUSH3 0x1203 JUMP JUMPDEST SWAP1 POP DUP2 DUP2 SUB PUSH1 0x60 DUP4 ADD MSTORE PUSH3 0x135F DUP2 DUP6 PUSH3 0x12A2 JUMP JUMPDEST SWAP1 POP DUP2 DUP2 SUB PUSH1 0x80 DUP4 ADD MSTORE PUSH3 0x1375 DUP2 DUP5 PUSH3 0x12A2 JUMP JUMPDEST SWAP1 POP SWAP7 SWAP6 POP POP POP POP POP POP JUMP JUMPDEST PUSH0 DUP1 PUSH1 0x40 DUP4 DUP6 SUB SLT ISZERO PUSH3 0x139A JUMPI PUSH3 0x1399 PUSH3 0xD2B JUMP JUMPDEST JUMPDEST PUSH0 DUP4 ADD CALLDATALOAD PUSH8 0xFFFFFFFFFFFFFFFF DUP2 GT ISZERO PUSH3 0x13BA JUMPI PUSH3 0x13B9 PUSH3 0xD2F JUMP JUMPDEST JUMPDEST PUSH3 0x13C8 DUP6 DUP3 DUP7 ADD PUSH3 0x10AC JUMP JUMPDEST SWAP3 POP POP PUSH1 0x20 DUP4 ADD CALLDATALOAD PUSH8 0xFFFFFFFFFFFFFFFF DUP2 GT ISZERO PUSH3 0x13EC JUMPI PUSH3 0x13EB PUSH3 0xD2F JUMP JUMPDEST JUMPDEST PUSH3 0x13FA DUP6 DUP3 DUP7 ADD PUSH3 0x10AC JUMP JUMPDEST SWAP2 POP POP SWAP3 POP SWAP3 SWAP1 POP JUMP JUMPDEST PUSH0 DUP2 MLOAD SWAP1 POP SWAP2 SWAP1 POP JUMP JUMPDEST PUSH0 DUP3 DUP3 MSTORE PUSH1 0x20 DUP3 ADD SWAP1 POP SWAP3 SWAP2 POP POP JUMP JUMPDEST PUSH0 DUP2 SWAP1 POP PUSH1 0x20 DUP3 ADD SWAP1 POP SWAP2 SWAP1 POP JUMP JUMPDEST PUSH0 DUP3 DUP3 MSTORE PUSH1 0x20 DUP3 ADD SWAP1 POP SWAP3 SWAP2 POP POP JUMP JUMPDEST PUSH0 PUSH3 0x1449 DUP3 PUSH3 0x1243 JUMP JUMPDEST PUSH3 0x1455 DUP2 DUP6 PUSH3 0x142D JUMP JUMPDEST SWAP4 POP PUSH3 0x1462 DUP4 PUSH3 0x125D JUMP JUMPDEST DUP1 PUSH0 JUMPDEST DUP4 DUP2 LT ISZERO PUSH3 0x1498 JUMPI DUP2 MLOAD PUSH3 0x147C DUP9 DUP3 PUSH3 0x127D JUMP JUMPDEST SWAP8 POP PUSH3 0x1489 DUP4 PUSH3 0x1296 JUMP JUMPDEST SWAP3 POP POP PUSH1 0x1 DUP2 ADD SWAP1 POP PUSH3 0x1465 JUMP JUMPDEST POP DUP6 SWAP4 POP POP POP POP SWAP3 SWAP2 POP POP JUMP JUMPDEST PUSH0 PUSH1 0xA0 DUP4 ADD PUSH0 DUP4 ADD MLOAD PUSH3 0x14BC PUSH0 DUP7 ADD DUP3 PUSH3 0x126C JUMP JUMPDEST POP PUSH1 0x20 DUP4 ADD MLOAD DUP5 DUP3 SUB PUSH1 0x20 DUP7 ADD MSTORE PUSH3 0x14D6 DUP3 DUP3 PUSH3 0xE52 JUMP JUMPDEST SWAP2 POP POP PUSH1 0x40 DUP4 ADD MLOAD DUP5 DUP3 SUB PUSH1 0x40 DUP7 ADD MSTORE PUSH3 0x14F2 DUP3 DUP3 PUSH3 0xE52 JUMP JUMPDEST SWAP2 POP POP PUSH1 0x60 DUP4 ADD MLOAD DUP5 DUP3 SUB PUSH1 0x60 DUP7 ADD MSTORE PUSH3 0x150E DUP3 DUP3 PUSH3 0x143D JUMP JUMPDEST SWAP2 POP POP PUSH1 0x80 DUP4 ADD MLOAD DUP5 DUP3 SUB PUSH1 0x80 DUP7 ADD MSTORE PUSH3 0x152A DUP3 DUP3 PUSH3 0x143D JUMP JUMPDEST SWAP2 POP POP DUP1 SWAP2 POP POP SWAP3 SWAP2 POP POP JUMP JUMPDEST PUSH0 PUSH3 0x1544 DUP4 DUP4 PUSH3 0x14A5 JUMP JUMPDEST SWAP1 POP SWAP3 SWAP2 POP POP JUMP JUMPDEST PUSH0 PUSH1 0x20 DUP3 ADD SWAP1 POP SWAP2 SWAP1 POP JUMP JUMPDEST PUSH0 PUSH3 0x1564 DUP3 PUSH3 0x1404 JUMP JUMPDEST PUSH3 0x1570 DUP2 DUP6 PUSH3 0x140E JUMP JUMPDEST SWAP4 POP DUP4 PUSH1 0x20 DUP3 MUL DUP6 ADD PUSH3 0x1584 DUP6 PUSH3 0x141E JUMP JUMPDEST DUP1 PUSH0 JUMPDEST DUP6 DUP2 LT ISZERO PUSH3 0x15C5 JUMPI DUP5 DUP5 SUB DUP10 MSTORE DUP2 MLOAD PUSH3 0x15A3 DUP6 DUP3 PUSH3 0x1537 JUMP JUMPDEST SWAP5 POP PUSH3 0x15B0 DUP4 PUSH3 0x154C JUMP JUMPDEST SWAP3 POP PUSH1 0x20 DUP11 ADD SWAP10 POP POP PUSH1 0x1 DUP2 ADD SWAP1 POP PUSH3 0x1587 JUMP JUMPDEST POP DUP3 SWAP8 POP DUP8 SWAP6 POP POP POP POP POP POP SWAP3 SWAP2 POP POP JUMP JUMPDEST PUSH0 PUSH1 0x20 DUP3 ADD SWAP1 POP DUP2 DUP2 SUB PUSH0 DUP4 ADD MSTORE PUSH3 0x15F1 DUP2 DUP5 PUSH3 0x1558 JUMP JUMPDEST SWAP1 POP SWAP3 SWAP2 POP POP JUMP JUMPDEST PUSH0 PUSH1 0x20 DUP3 ADD SWAP1 POP PUSH3 0x160E PUSH0 DUP4 ADD DUP5 PUSH3 0xDC4 JUMP JUMPDEST SWAP3 SWAP2 POP POP JUMP JUMPDEST PUSH32 0x4E487B7100000000000000000000000000000000000000000000000000000000 PUSH0 MSTORE PUSH1 0x22 PUSH1 0x4 MSTORE PUSH1 0x24 PUSH0 REVERT JUMPDEST PUSH0 PUSH1 0x2 DUP3 DIV SWAP1 POP PUSH1 0x1 DUP3 AND DUP1 PUSH3 0x1659 JUMPI PUSH1 0x7F DUP3 AND SWAP2 POP JUMPDEST PUSH1 0x20 DUP3 LT DUP2 SUB PUSH3 0x166F JUMPI PUSH3 0x166E PUSH3 0x1614 JUMP JUMPDEST JUMPDEST POP SWAP2 SWAP1 POP JUMP JUMPDEST PUSH32 0x4E487B7100000000000000000000000000000000000000000000000000000000 PUSH0 MSTORE PUSH1 0x32 PUSH1 0x4 MSTORE PUSH1 0x24 PUSH0 REVERT JUMPDEST PUSH0 DUP2 SWAP1 POP DUP2 PUSH0 MSTORE PUSH1 0x20 PUSH0 KECCAK256 SWAP1 POP SWAP2 SWAP1 POP JUMP JUMPDEST PUSH0 PUSH1 0x20 PUSH1 0x1F DUP4 ADD DIV SWAP1 POP SWAP2 SWAP1 POP JUMP JUMPDEST PUSH0 DUP3 DUP3 SHL SWAP1 POP SWAP3 SWAP2 POP POP JUMP JUMPDEST PUSH0 PUSH1 0x8 DUP4 MUL PUSH3 0x1700 PUSH32 0xFFFFFFFFFFFFFFFFFFFFFFFFFFFFFFFFFFFFFFFFFFFFFFFFFFFFFFFFFFFFFFFF DUP3 PUSH3 0x16C3 JUMP JUMPDEST PUSH3 0x170C DUP7 DUP4 PUSH3 0x16C3 JUMP JUMPDEST SWAP6 POP DUP1 NOT DUP5 AND SWAP4 POP DUP1 DUP7 AND DUP5 OR SWAP3 POP POP POP SWAP4 SWAP3 POP POP POP JUMP JUMPDEST PUSH0 DUP2 SWAP1 POP SWAP2 SWAP1 POP JUMP JUMPDEST PUSH0 DUP2 SWAP1 POP SWAP2 SWAP1 POP JUMP JUMPDEST PUSH0 PUSH3 0x1756 PUSH3 0x1750 PUSH3 0x174A DUP5 PUSH3 0x1724 JUMP JUMPDEST PUSH3 0x172D JUMP JUMPDEST PUSH3 0x1724 JUMP JUMPDEST SWAP1 POP SWAP2 SWAP1 POP JUMP JUMPDEST PUSH0 DUP2 SWAP1 POP SWAP2 SWAP1 POP JUMP JUMPDEST PUSH3 0x1771 DUP4 PUSH3 0x1736 JUMP JUMPDEST PUSH3 0x1789 PUSH3 0x1780 DUP3 PUSH3 0x175D JUMP JUMPDEST DUP5 DUP5 SLOAD PUSH3 0x16CF JUMP JUMPDEST DUP3 SSTORE POP POP POP POP JUMP JUMPDEST PUSH0 SWAP1 JUMP JUMPDEST PUSH3 0x179F PUSH3 0x1791 JUMP JUMPDEST PUSH3 0x17AC DUP2 DUP5 DUP5 PUSH3 0x1766 JUMP JUMPDEST POP POP POP JUMP JUMPDEST JUMPDEST DUP2 DUP2 LT ISZERO PUSH3 0x17D3 JUMPI PUSH3 0x17C7 PUSH0 DUP3 PUSH3 0x1795 JUMP JUMPDEST PUSH1 0x1 DUP2 ADD SWAP1 POP PUSH3 0x17B2 JUMP JUMPDEST POP POP JUMP JUMPDEST PUSH1 0x1F DUP3 GT ISZERO PUSH3 0x1822 JUMPI PUSH3 0x17EC DUP2 PUSH3 0x16A2 JUMP JUMPDEST PUSH3 0x17F7 DUP5 PUSH3 0x16B4 JUMP JUMPDEST DUP2 ADD PUSH1 0x20 DUP6 LT ISZERO PUSH3 0x1807 JUMPI DUP2 SWAP1 POP JUMPDEST PUSH3 0x181F PUSH3 0x1816 DUP6 PUSH3 0x16B4 JUMP JUMPDEST DUP4 ADD DUP3 PUSH3 0x17B1 JUMP JUMPDEST POP POP JUMPDEST POP POP POP JUMP JUMPDEST PUSH0 DUP3 DUP3 SHR SWAP1 POP SWAP3 SWAP2 POP POP JUMP JUMPDEST PUSH0 PUSH3 0x1844 PUSH0 NOT DUP5 PUSH1 0x8 MUL PUSH3 0x1827 JUMP JUMPDEST NOT DUP1 DUP4 AND SWAP2 POP POP SWAP3 SWAP2 POP POP JUMP JUMPDEST PUSH0 PUSH3 0x185E DUP4 DUP4 PUSH3 0x1833 JUMP JUMPDEST SWAP2 POP DUP3 PUSH1 0x2 MUL DUP3 OR SWAP1 POP SWAP3 SWAP2 POP POP JUMP JUMPDEST PUSH3 0x1879 DUP3 PUSH3 0xDFE JUMP JUMPDEST PUSH8 0xFFFFFFFFFFFFFFFF DUP2 GT ISZERO PUSH3 0x1895 JUMPI PUSH3 0x1894 PUSH3 0xF68 JUMP JUMPDEST JUMPDEST PUSH3 0x18A1 DUP3 SLOAD PUSH3 0x1641 JUMP JUMPDEST PUSH3 0x18AE DUP3 DUP3 DUP6 PUSH3 0x17D7 JUMP JUMPDEST PUSH0 PUSH1 0x20 SWAP1 POP PUSH1 0x1F DUP4 GT PUSH1 0x1 DUP2 EQ PUSH3 0x18E4 JUMPI PUSH0 DUP5 ISZERO PUSH3 0x18CF JUMPI DUP3 DUP8 ADD MLOAD SWAP1 POP JUMPDEST PUSH3 0x18DB DUP6 DUP3 PUSH3 0x1851 JUMP JUMPDEST DUP7 SSTORE POP PUSH3 0x194A JUMP JUMPDEST PUSH1 0x1F NOT DUP5 AND PUSH3 0x18F4 DUP7 PUSH3 0x16A2 JUMP JUMPDEST PUSH0 JUMPDEST DUP3 DUP2 LT ISZERO PUSH3 0x191D JUMPI DUP5 DUP10 ADD MLOAD DUP3 SSTORE PUSH1 0x1 DUP3 ADD SWAP2 POP PUSH1 0x20 DUP6 ADD SWAP5 POP PUSH1 0x20 DUP2 ADD SWAP1 POP PUSH3 0x18F6 JUMP JUMPDEST DUP7 DUP4 LT ISZERO PUSH3 0x193D JUMPI DUP5 DUP10 ADD MLOAD PUSH3 0x1939 PUSH1 0x1F DUP10 AND DUP3 PUSH3 0x1833 JUMP JUMPDEST DUP4 SSTORE POP JUMPDEST PUSH1 0x1 PUSH1 0x2 DUP9 MUL ADD DUP9 SSTORE POP POP POP JUMPDEST POP POP POP POP POP POP JUMP JUMPDEST PUSH0 PUSH3 0x1968 PUSH3 0x1962 DUP5 PUSH3 0x101F JUMP JUMPDEST PUSH3 0xFCB JUMP JUMPDEST SWAP1 POP DUP3 DUP2 MSTORE PUSH1 0x20 DUP2 ADD DUP5 DUP5 DUP5 ADD GT ISZERO PUSH3 0x1987 JUMPI PUSH3 0x1986 PUSH3 0x101B JUMP JUMPDEST JUMPDEST PUSH3 0x1994 DUP5 DUP3 DUP6 PUSH3 0xE18 JUMP JUMPDEST POP SWAP4 SWAP3 POP POP POP JUMP JUMPDEST PUSH0 DUP3 PUSH1 0x1F DUP4 ADD SLT PUSH3 0x19B3 JUMPI PUSH3 0x19B2 PUSH3 0xF64 JUMP JUMPDEST JUMPDEST DUP2 MLOAD PUSH3 0x19C5 DUP5 DUP3 PUSH1 0x20 DUP7 ADD PUSH3 0x1952 JUMP JUMPDEST SWAP2 POP POP SWAP3 SWAP2 POP POP JUMP JUMPDEST PUSH0 PUSH1 0x20 DUP3 DUP5 SUB SLT ISZERO PUSH3 0x19E6 JUMPI PUSH3 0x19E5 PUSH3 0xD2B JUMP JUMPDEST JUMPDEST PUSH0 DUP3 ADD MLOAD PUSH8 0xFFFFFFFFFFFFFFFF DUP2 GT ISZERO PUSH3 0x1A06 JUMPI PUSH3 0x1A05 PUSH3 0xD2F JUMP JUMPDEST JUMPDEST PUSH3 0x1A14 DUP5 DUP3 DUP6 ADD PUSH3 0x199C JUMP JUMPDEST SWAP2 POP POP SWAP3 SWAP2 POP POP JUMP JUMPDEST PUSH0 PUSH8 0xFFFFFFFFFFFFFFFF DUP3 GT ISZERO PUSH3 0x1A3A JUMPI PUSH3 0x1A39 PUSH3 0xF68 JUMP JUMPDEST JUMPDEST PUSH1 0x20 DUP3 MUL SWAP1 POP PUSH1 0x20 DUP2 ADD SWAP1 POP SWAP2 SWAP1 POP JUMP JUMPDEST PUSH0 DUP2 MLOAD SWAP1 POP PUSH3 0x1A5B DUP2 PUSH3 0xD65 JUMP JUMPDEST SWAP3 SWAP2 POP POP JUMP JUMPDEST PUSH0 PUSH3 0x1A77 PUSH3 0x1A71 DUP5 PUSH3 0x1A1D JUMP JUMPDEST PUSH3 0xFCB JUMP JUMPDEST SWAP1 POP DUP1 DUP4 DUP3 MSTORE PUSH1 0x20 DUP3 ADD SWAP1 POP PUSH1 0x20 DUP5 MUL DUP4 ADD DUP6 DUP2 GT ISZERO PUSH3 0x1A9D JUMPI PUSH3 0x1A9C PUSH3 0x1017 JUMP JUMPDEST JUMPDEST DUP4 JUMPDEST DUP2 DUP2 LT ISZERO PUSH3 0x1ACA JUMPI DUP1 PUSH3 0x1AB5 DUP9 DUP3 PUSH3 0x1A4B JUMP JUMPDEST DUP5 MSTORE PUSH1 0x20 DUP5 ADD SWAP4 POP POP PUSH1 0x20 DUP2 ADD SWAP1 POP PUSH3 0x1A9F JUMP JUMPDEST POP POP POP SWAP4 SWAP3 POP POP POP JUMP JUMPDEST PUSH0 DUP3 PUSH1 0x1F DUP4 ADD SLT PUSH3 0x1AEB JUMPI PUSH3 0x1AEA PUSH3 0xF64 JUMP JUMPDEST JUMPDEST DUP2 MLOAD PUSH3 0x1AFD DUP5 DUP3 PUSH1 0x20 DUP7 ADD PUSH3 0x1A61 JUMP JUMPDEST SWAP2 POP POP SWAP3 SWAP2 POP POP JUMP JUMPDEST PUSH0 PUSH1 0x20 DUP3 DUP5 SUB SLT ISZERO PUSH3 0x1B1E JUMPI PUSH3 0x1B1D PUSH3 0xD2B JUMP JUMPDEST JUMPDEST PUSH0 DUP3 ADD MLOAD PUSH8 0xFFFFFFFFFFFFFFFF DUP2 GT ISZERO PUSH3 0x1B3E JUMPI PUSH3 0x1B3D PUSH3 0xD2F JUMP JUMPDEST JUMPDEST PUSH3 0x1B4C DUP5 DUP3 DUP6 ADD PUSH3 0x1AD4 JUMP JUMPDEST SWAP2 POP POP SWAP3 SWAP2 POP POP JUMP JUMPDEST PUSH0 PUSH1 0x60 DUP3 ADD SWAP1 POP DUP2 DUP2 SUB PUSH0 DUP4 ADD MSTORE PUSH3 0x1B6F DUP2 DUP7 PUSH3 0x1203 JUMP JUMPDEST SWAP1 POP DUP2 DUP2 SUB PUSH1 0x20 DUP4 ADD MSTORE PUSH3 0x1B85 DUP2 DUP6 PUSH3 0x1203 JUMP JUMPDEST SWAP1 POP PUSH3 0x1B96 PUSH1 0x40 DUP4 ADD DUP5 PUSH3 0xDC4 JUMP JUMPDEST SWAP5 SWAP4 POP POP POP POP JUMP JUMPDEST PUSH0 PUSH1 0x40 DUP3 ADD SWAP1 POP DUP2 DUP2 SUB PUSH0 DUP4 ADD MSTORE PUSH3 0x1BB8 DUP2 DUP6 PUSH3 0x1203 JUMP JUMPDEST SWAP1 POP DUP2 DUP2 SUB PUSH1 0x20 DUP4 ADD MSTORE PUSH3 0x1BCE DUP2 DUP5 PUSH3 0x1203 JUMP JUMPDEST SWAP1 POP SWAP4 SWAP3 POP POP POP JUMP INVALID PUSH1 0x80 PUSH1 0x40 MSTORE CALLVALUE DUP1 ISZERO PUSH3 0x10 JUMPI PUSH0 DUP1 REVERT JUMPDEST POP PUSH1 0x40 MLOAD PUSH3 0x2373 CODESIZE SUB DUP1 PUSH3 0x2373 DUP4 CODECOPY DUP2 DUP2 ADD PUSH1 0x40 MSTORE DUP2 ADD SWAP1 PUSH3 0x36 SWAP2 SWAP1 PUSH3 0x288 JUMP JUMPDEST DUP3 PUSH0 SWAP1 DUP2 PUSH3 0x46 SWAP2 SWAP1 PUSH3 0x556 JUMP JUMPDEST POP DUP2 PUSH1 0x1 SWAP1 DUP2 PUSH3 0x58 SWAP2 SWAP1 PUSH3 0x556 JUMP JUMPDEST POP DUP1 PUSH1 0x2 PUSH0 PUSH2 0x100 EXP DUP2 SLOAD DUP2 PUSH20 0xFFFFFFFFFFFFFFFFFFFFFFFFFFFFFFFFFFFFFFFF MUL NOT AND SWAP1 DUP4 PUSH20 0xFFFFFFFFFFFFFFFFFFFFFFFFFFFFFFFFFFFFFFFF AND MUL OR SWAP1 SSTORE POP POP POP POP PUSH3 0x63A JUMP JUMPDEST PUSH0 PUSH1 0x40 MLOAD SWAP1 POP SWAP1 JUMP JUMPDEST PUSH0 DUP1 REVERT JUMPDEST PUSH0 DUP1 REVERT JUMPDEST PUSH0 DUP1 REVERT JUMPDEST PUSH0 DUP1 REVERT JUMPDEST PUSH0 PUSH1 0x1F NOT PUSH1 0x1F DUP4 ADD AND SWAP1 POP SWAP2 SWAP1 POP JUMP JUMPDEST PUSH32 0x4E487B7100000000000000000000000000000000000000000000000000000000 PUSH0 MSTORE PUSH1 0x41 PUSH1 0x4 MSTORE PUSH1 0x24 PUSH0 REVERT JUMPDEST PUSH3 0x103 DUP3 PUSH3 0xBB JUMP JUMPDEST DUP2 ADD DUP2 DUP2 LT PUSH8 0xFFFFFFFFFFFFFFFF DUP3 GT OR ISZERO PUSH3 0x125 JUMPI PUSH3 0x124 PUSH3 0xCB JUMP JUMPDEST JUMPDEST DUP1 PUSH1 0x40 MSTORE POP POP POP JUMP JUMPDEST PUSH0 PUSH3 0x139 PUSH3 0xA2 JUMP JUMPDEST SWAP1 POP PUSH3 0x147 DUP3 DUP3 PUSH3 0xF8 JUMP JUMPDEST SWAP2 SWAP1 POP JUMP JUMPDEST PUSH0 PUSH8 0xFFFFFFFFFFFFFFFF DUP3 GT ISZERO PUSH3 0x169 JUMPI PUSH3 0x168 PUSH3 0xCB JUMP JUMPDEST JUMPDEST PUSH3 0x174 DUP3 PUSH3 0xBB JUMP JUMPDEST SWAP1 POP PUSH1 0x20 DUP2 ADD SWAP1 POP SWAP2 SWAP1 POP JUMP JUMPDEST PUSH0 JUMPDEST DUP4 DUP2 LT ISZERO PUSH3 0x1A0 JUMPI DUP1 DUP3 ADD MLOAD DUP2 DUP5 ADD MSTORE PUSH1 0x20 DUP2 ADD SWAP1 POP PUSH3 0x183 JUMP JUMPDEST PUSH0 DUP5 DUP5 ADD MSTORE POP POP POP POP JUMP JUMPDEST PUSH0 PUSH3 0x1C1 PUSH3 0x1BB DUP5 PUSH3 0x14C JUMP JUMPDEST PUSH3 0x12E JUMP JUMPDEST SWAP1 POP DUP3 DUP2 MSTORE PUSH1 0x20 DUP2 ADD DUP5 DUP5 DUP5 ADD GT ISZERO PUSH3 0x1E0 JUMPI PUSH3 0x1DF PUSH3 0xB7 JUMP JUMPDEST JUMPDEST PUSH3 0x1ED DUP5 DUP3 DUP6 PUSH3 0x181 JUMP JUMPDEST POP SWAP4 SWAP3 POP POP POP JUMP JUMPDEST PUSH0 DUP3 PUSH1 0x1F DUP4 ADD SLT PUSH3 0x20C JUMPI PUSH3 0x20B PUSH3 0xB3 JUMP JUMPDEST JUMPDEST DUP2 MLOAD PUSH3 0x21E DUP5 DUP3 PUSH1 0x20 DUP7 ADD PUSH3 0x1AB JUMP JUMPDEST SWAP2 POP POP SWAP3 SWAP2 POP POP JUMP JUMPDEST PUSH0 PUSH20 0xFFFFFFFFFFFFFFFFFFFFFFFFFFFFFFFFFFFFFFFF DUP3 AND SWAP1 POP SWAP2 SWAP1 POP JUMP JUMPDEST PUSH0 PUSH3 0x252 DUP3 PUSH3 0x227 JUMP JUMPDEST SWAP1 POP SWAP2 SWAP1 POP JUMP JUMPDEST PUSH3 0x264 DUP2 PUSH3 0x246 JUMP JUMPDEST DUP2 EQ PUSH3 0x26F JUMPI PUSH0 DUP1 REVERT JUMPDEST POP JUMP JUMPDEST PUSH0 DUP2 MLOAD SWAP1 POP PUSH3 0x282 DUP2 PUSH3 0x259 JUMP JUMPDEST SWAP3 SWAP2 POP POP JUMP JUMPDEST PUSH0 DUP1 PUSH0 PUSH1 0x60 DUP5 DUP7 SUB SLT ISZERO PUSH3 0x2A2 JUMPI PUSH3 0x2A1 PUSH3 0xAB JUMP JUMPDEST JUMPDEST PUSH0 DUP5 ADD MLOAD PUSH8 0xFFFFFFFFFFFFFFFF DUP2 GT ISZERO PUSH3 0x2C2 JUMPI PUSH3 0x2C1 PUSH3 0xAF JUMP JUMPDEST JUMPDEST PUSH3 0x2D0 DUP7 DUP3 DUP8 ADD PUSH3 0x1F5 JUMP JUMPDEST SWAP4 POP POP PUSH1 0x20 DUP5 ADD MLOAD PUSH8 0xFFFFFFFFFFFFFFFF DUP2 GT ISZERO PUSH3 0x2F4 JUMPI PUSH3 0x2F3 PUSH3 0xAF JUMP JUMPDEST JUMPDEST PUSH3 0x302 DUP7 DUP3 DUP8 ADD PUSH3 0x1F5 JUMP JUMPDEST SWAP3 POP POP PUSH1 0x40 PUSH3 0x315 DUP7 DUP3 DUP8 ADD PUSH3 0x272 JUMP JUMPDEST SWAP2 POP POP SWAP3 POP SWAP3 POP SWAP3 JUMP JUMPDEST PUSH0 DUP2 MLOAD SWAP1 POP SWAP2 SWAP1 POP JUMP JUMPDEST PUSH32 0x4E487B7100000000000000000000000000000000000000000000000000000000 PUSH0 MSTORE PUSH1 0x22 PUSH1 0x4 MSTORE PUSH1 0x24 PUSH0 REVERT JUMPDEST PUSH0 PUSH1 0x2 DUP3 DIV SWAP1 POP PUSH1 0x1 DUP3 AND DUP1 PUSH3 0x36E JUMPI PUSH1 0x7F DUP3 AND SWAP2 POP JUMPDEST PUSH1 0x20 DUP3 LT DUP2 SUB PUSH3 0x384 JUMPI PUSH3 0x383 PUSH3 0x329 JUMP JUMPDEST JUMPDEST POP SWAP2 SWAP1 POP JUMP JUMPDEST PUSH0 DUP2 SWAP1 POP DUP2 PUSH0 MSTORE PUSH1 0x20 PUSH0 KECCAK256 SWAP1 POP SWAP2 SWAP1 POP JUMP JUMPDEST PUSH0 PUSH1 0x20 PUSH1 0x1F DUP4 ADD DIV SWAP1 POP SWAP2 SWAP1 POP JUMP JUMPDEST PUSH0 DUP3 DUP3 SHL SWAP1 POP SWAP3 SWAP2 POP POP JUMP JUMPDEST PUSH0 PUSH1 0x8 DUP4 MUL PUSH3 0x3E8 PUSH32 0xFFFFFFFFFFFFFFFFFFFFFFFFFFFFFFFFFFFFFFFFFFFFFFFFFFFFFFFFFFFFFFFF DUP3 PUSH3 0x3AB JUMP JUMPDEST PUSH3 0x3F4 DUP7 DUP4 PUSH3 0x3AB JUMP JUMPDEST SWAP6 POP DUP1 NOT DUP5 AND SWAP4 POP DUP1 DUP7 AND DUP5 OR SWAP3 POP POP POP SWAP4 SWAP3 POP POP POP JUMP JUMPDEST PUSH0 DUP2 SWAP1 POP SWAP2 SWAP1 POP JUMP JUMPDEST PUSH0 DUP2 SWAP1 POP SWAP2 SWAP1 POP JUMP JUMPDEST PUSH0 PUSH3 0x43E PUSH3 0x438 PUSH3 0x432 DUP5 PUSH3 0x40C JUMP JUMPDEST PUSH3 0x415 JUMP JUMPDEST PUSH3 0x40C JUMP JUMPDEST SWAP1 POP SWAP2 SWAP1 POP JUMP JUMPDEST PUSH0 DUP2 SWAP1 POP SWAP2 SWAP1 POP JUMP JUMPDEST PUSH3 0x459 DUP4 PUSH3 0x41E JUMP JUMPDEST PUSH3 0x471 PUSH3 0x468 DUP3 PUSH3 0x445 JUMP JUMPDEST DUP5 DUP5 SLOAD PUSH3 0x3B7 JUMP JUMPDEST DUP3 SSTORE POP POP POP POP JUMP JUMPDEST PUSH0 SWAP1 JUMP JUMPDEST PUSH3 0x487 PUSH3 0x479 JUMP JUMPDEST PUSH3 0x494 DUP2 DUP5 DUP5 PUSH3 0x44E JUMP JUMPDEST POP POP POP JUMP JUMPDEST JUMPDEST DUP2 DUP2 LT ISZERO PUSH3 0x4BB JUMPI PUSH3 0x4AF PUSH0 DUP3 PUSH3 0x47D JUMP JUMPDEST PUSH1 0x1 DUP2 ADD SWAP1 POP PUSH3 0x49A JUMP JUMPDEST POP POP JUMP JUMPDEST PUSH1 0x1F DUP3 GT ISZERO PUSH3 0x50A JUMPI PUSH3 0x4D4 DUP2 PUSH3 0x38A JUMP JUMPDEST PUSH3 0x4DF DUP5 PUSH3 0x39C JUMP JUMPDEST DUP2 ADD PUSH1 0x20 DUP6 LT ISZERO PUSH3 0x4EF JUMPI DUP2 SWAP1 POP JUMPDEST PUSH3 0x507 PUSH3 0x4FE DUP6 PUSH3 0x39C JUMP JUMPDEST DUP4 ADD DUP3 PUSH3 0x499 JUMP JUMPDEST POP POP JUMPDEST POP POP POP JUMP JUMPDEST PUSH0 DUP3 DUP3 SHR SWAP1 POP SWAP3 SWAP2 POP POP JUMP JUMPDEST PUSH0 PUSH3 0x52C PUSH0 NOT DUP5 PUSH1 0x8 MUL PUSH3 0x50F JUMP JUMPDEST NOT DUP1 DUP4 AND SWAP2 POP POP SWAP3 SWAP2 POP POP JUMP JUMPDEST PUSH0 PUSH3 0x546 DUP4 DUP4 PUSH3 0x51B JUMP JUMPDEST SWAP2 POP DUP3 PUSH1 0x2 MUL DUP3 OR SWAP1 POP SWAP3 SWAP2 POP POP JUMP JUMPDEST PUSH3 0x561 DUP3 PUSH3 0x31F JUMP JUMPDEST PUSH8 0xFFFFFFFFFFFFFFFF DUP2 GT ISZERO PUSH3 0x57D JUMPI PUSH3 0x57C PUSH3 0xCB JUMP JUMPDEST JUMPDEST PUSH3 0x589 DUP3 SLOAD PUSH3 0x356 JUMP JUMPDEST PUSH3 0x596 DUP3 DUP3 DUP6 PUSH3 0x4BF JUMP JUMPDEST PUSH0 PUSH1 0x20 SWAP1 POP PUSH1 0x1F DUP4 GT PUSH1 0x1 DUP2 EQ PUSH3 0x5CC JUMPI PUSH0 DUP5 ISZERO PUSH3 0x5B7 JUMPI DUP3 DUP8 ADD MLOAD SWAP1 POP JUMPDEST PUSH3 0x5C3 DUP6 DUP3 PUSH3 0x539 JUMP JUMPDEST DUP7 SSTORE POP PUSH3 0x632 JUMP JUMPDEST PUSH1 0x1F NOT DUP5 AND PUSH3 0x5DC DUP7 PUSH3 0x38A JUMP JUMPDEST PUSH0 JUMPDEST DUP3 DUP2 LT ISZERO PUSH3 0x605 JUMPI DUP5 DUP10 ADD MLOAD DUP3 SSTORE PUSH1 0x1 DUP3 ADD SWAP2 POP PUSH1 0x20 DUP6 ADD SWAP5 POP PUSH1 0x20 DUP2 ADD SWAP1 POP PUSH3 0x5DE JUMP JUMPDEST DUP7 DUP4 LT ISZERO PUSH3 0x625 JUMPI DUP5 DUP10 ADD MLOAD PUSH3 0x621 PUSH1 0x1F DUP10 AND DUP3 PUSH3 0x51B JUMP JUMPDEST DUP4 SSTORE POP JUMPDEST PUSH1 0x1 PUSH1 0x2 DUP9 MUL ADD DUP9 SSTORE POP POP POP JUMPDEST POP POP POP POP POP POP JUMP JUMPDEST PUSH2 0x1D2B DUP1 PUSH3 0x648 PUSH0 CODECOPY PUSH0 RETURN INVALID PUSH1 0x80 PUSH1 0x40 MSTORE CALLVALUE DUP1 ISZERO PUSH3 0x10 JUMPI PUSH0 DUP1 REVERT JUMPDEST POP PUSH1 0x4 CALLDATASIZE LT PUSH3 0xAA JUMPI PUSH0 CALLDATALOAD PUSH1 0xE0 SHR DUP1 PUSH4 0x4A79D50C GT PUSH3 0x6D JUMPI DUP1 PUSH4 0x4A79D50C EQ PUSH3 0x180 JUMPI DUP1 PUSH4 0x5414E8C7 EQ PUSH3 0x1A2 JUMPI DUP1 PUSH4 0x61203265 EQ PUSH3 0x1D8 JUMPI DUP1 PUSH4 0x7CC9E4F0 EQ PUSH3 0x1FA JUMPI DUP1 PUSH4 0xDA73630E EQ PUSH3 0x21A JUMPI PUSH3 0xAA JUMP JUMPDEST DUP1 PUSH4 0x9E69EDE EQ PUSH3 0xAE JUMPI DUP1 PUSH4 0xD1D8D6D EQ PUSH3 0xE4 JUMPI DUP1 PUSH4 0x1DF02828 EQ PUSH3 0x106 JUMPI DUP1 PUSH4 0x3ED2B77A EQ PUSH3 0x128 JUMPI DUP1 PUSH4 0x4A481EB7 EQ PUSH3 0x15E JUMPI JUMPDEST PUSH0 DUP1 REVERT JUMPDEST PUSH3 0xCC PUSH1 0x4 DUP1 CALLDATASIZE SUB DUP2 ADD SWAP1 PUSH3 0xC6 SWAP2 SWAP1 PUSH3 0xAE6 JUMP JUMPDEST PUSH3 0x250 JUMP JUMPDEST PUSH1 0x40 MLOAD PUSH3 0xDB SWAP2 SWAP1 PUSH3 0xB32 JUMP JUMPDEST PUSH1 0x40 MLOAD DUP1 SWAP2 SUB SWAP1 RETURN JUMPDEST PUSH3 0xEE PUSH3 0x26D JUMP JUMPDEST PUSH1 0x40 MLOAD PUSH3 0xFD SWAP2 SWAP1 PUSH3 0xC14 JUMP JUMPDEST PUSH1 0x40 MLOAD DUP1 SWAP2 SUB SWAP1 RETURN JUMPDEST PUSH3 0x110 PUSH3 0x379 JUMP JUMPDEST PUSH1 0x40 MLOAD PUSH3 0x11F SWAP2 SWAP1 PUSH3 0xCCA JUMP JUMPDEST PUSH1 0x40 MLOAD DUP1 SWAP2 SUB SWAP1 RETURN JUMPDEST PUSH3 0x146 PUSH1 0x4 DUP1 CALLDATASIZE SUB DUP2 ADD SWAP1 PUSH3 0x140 SWAP2 SWAP1 PUSH3 0xD24 JUMP JUMPDEST PUSH3 0x40D JUMP JUMPDEST PUSH1 0x40 MLOAD PUSH3 0x155 SWAP2 SWAP1 PUSH3 0xDBB JUMP JUMPDEST PUSH1 0x40 MLOAD DUP1 SWAP2 SUB SWAP1 RETURN JUMPDEST PUSH3 0x168 PUSH3 0x449 JUMP JUMPDEST PUSH1 0x40 MLOAD PUSH3 0x177 SWAP2 SWAP1 PUSH3 0xC14 JUMP JUMPDEST PUSH1 0x40 MLOAD DUP1 SWAP2 SUB SWAP1 RETURN JUMPDEST PUSH3 0x18A PUSH3 0x4D6 JUMP JUMPDEST PUSH1 0x40 MLOAD PUSH3 0x199 SWAP2 SWAP1 PUSH3 0xCCA JUMP JUMPDEST PUSH1 0x40 MLOAD DUP1 SWAP2 SUB SWAP1 RETURN JUMPDEST PUSH3 0x1C0 PUSH1 0x4 DUP1 CALLDATASIZE SUB DUP2 ADD SWAP1 PUSH3 0x1BA SWAP2 SWAP1 PUSH3 0xAE6 JUMP JUMPDEST PUSH3 0x569 JUMP JUMPDEST PUSH1 0x40 MLOAD PUSH3 0x1CF SWAP2 SWAP1 PUSH3 0xDE7 JUMP JUMPDEST PUSH1 0x40 MLOAD DUP1 SWAP2 SUB SWAP1 RETURN JUMPDEST PUSH3 0x1E2 PUSH3 0x599 JUMP JUMPDEST PUSH1 0x40 MLOAD PUSH3 0x1F1 SWAP2 SWAP1 PUSH3 0xDE7 JUMP JUMPDEST PUSH1 0x40 MLOAD DUP1 SWAP2 SUB SWAP1 RETURN JUMPDEST PUSH3 0x218 PUSH1 0x4 DUP1 CALLDATASIZE SUB DUP2 ADD SWAP1 PUSH3 0x212 SWAP2 SWAP1 PUSH3 0xAE6 JUMP JUMPDEST PUSH3 0x5BE JUMP JUMPDEST STOP JUMPDEST PUSH3 0x238 PUSH1 0x4 DUP1 CALLDATASIZE SUB DUP2 ADD SWAP1 PUSH3 0x232 SWAP2 SWAP1 PUSH3 0xF4A JUMP JUMPDEST PUSH3 0x746 JUMP JUMPDEST PUSH1 0x40 MLOAD PUSH3 0x247 SWAP2 SWAP1 PUSH3 0xDE7 JUMP JUMPDEST PUSH1 0x40 MLOAD DUP1 SWAP2 SUB SWAP1 RETURN JUMPDEST PUSH1 0x4 PUSH1 0x20 MSTORE DUP1 PUSH0 MSTORE PUSH1 0x40 PUSH0 KECCAK256 PUSH0 SWAP2 POP SLOAD SWAP1 PUSH2 0x100 EXP SWAP1 DIV PUSH1 0xFF AND DUP2 JUMP JUMPDEST PUSH1 0x60 PUSH0 PUSH1 0x3 DUP1 SLOAD SWAP1 POP PUSH8 0xFFFFFFFFFFFFFFFF DUP2 GT ISZERO PUSH3 0x292 JUMPI PUSH3 0x291 PUSH3 0xE0A JUMP JUMPDEST JUMPDEST PUSH1 0x40 MLOAD SWAP1 DUP1 DUP3 MSTORE DUP1 PUSH1 0x20 MUL PUSH1 0x20 ADD DUP3 ADD PUSH1 0x40 MSTORE DUP1 ISZERO PUSH3 0x2C1 JUMPI DUP2 PUSH1 0x20 ADD PUSH1 0x20 DUP3 MUL DUP1 CALLDATASIZE DUP4 CALLDATACOPY DUP1 DUP3 ADD SWAP2 POP POP SWAP1 POP JUMPDEST POP SWAP1 POP PUSH0 JUMPDEST PUSH1 0x3 DUP1 SLOAD SWAP1 POP DUP2 LT ISZERO PUSH3 0x371 JUMPI PUSH1 0x3 DUP2 DUP2 SLOAD DUP2 LT PUSH3 0x2EB JUMPI PUSH3 0x2EA PUSH3 0xFAE JUMP JUMPDEST JUMPDEST SWAP1 PUSH0 MSTORE PUSH1 0x20 PUSH0 KECCAK256 ADD PUSH0 SWAP1 SLOAD SWAP1 PUSH2 0x100 EXP SWAP1 DIV PUSH20 0xFFFFFFFFFFFFFFFFFFFFFFFFFFFFFFFFFFFFFFFF AND DUP3 DUP3 DUP2 MLOAD DUP2 LT PUSH3 0x329 JUMPI PUSH3 0x328 PUSH3 0xFAE JUMP JUMPDEST JUMPDEST PUSH1 0x20 MUL PUSH1 0x20 ADD ADD SWAP1 PUSH20 0xFFFFFFFFFFFFFFFFFFFFFFFFFFFFFFFFFFFFFFFF AND SWAP1 DUP2 PUSH20 0xFFFFFFFFFFFFFFFFFFFFFFFFFFFFFFFFFFFFFFFF AND DUP2 MSTORE POP POP DUP1 DUP1 PUSH1 0x1 ADD SWAP2 POP POP PUSH3 0x2C6 JUMP JUMPDEST POP DUP1 SWAP2 POP POP SWAP1 JUMP JUMPDEST PUSH1 0x1 DUP1 SLOAD PUSH3 0x388 SWAP1 PUSH3 0x1008 JUMP JUMPDEST DUP1 PUSH1 0x1F ADD PUSH1 0x20 DUP1 SWAP2 DIV MUL PUSH1 0x20 ADD PUSH1 0x40 MLOAD SWAP1 DUP2 ADD PUSH1 0x40 MSTORE DUP1 SWAP3 SWAP2 SWAP1 DUP2 DUP2 MSTORE PUSH1 0x20 ADD DUP3 DUP1 SLOAD PUSH3 0x3B6 SWAP1 PUSH3 0x1008 JUMP JUMPDEST DUP1 ISZERO PUSH3 0x405 JUMPI DUP1 PUSH1 0x1F LT PUSH3 0x3DB JUMPI PUSH2 0x100 DUP1 DUP4 SLOAD DIV MUL DUP4 MSTORE SWAP2 PUSH1 0x20 ADD SWAP2 PUSH3 0x405 JUMP JUMPDEST DUP3 ADD SWAP2 SWAP1 PUSH0 MSTORE PUSH1 0x20 PUSH0 KECCAK256 SWAP1 JUMPDEST DUP2 SLOAD DUP2 MSTORE SWAP1 PUSH1 0x1 ADD SWAP1 PUSH1 0x20 ADD DUP1 DUP4 GT PUSH3 0x3E7 JUMPI DUP3 SWAP1 SUB PUSH1 0x1F AND DUP3 ADD SWAP2 JUMPDEST POP POP POP POP POP DUP2 JUMP JUMPDEST PUSH1 0x3 DUP2 DUP2 SLOAD DUP2 LT PUSH3 0x41D JUMPI PUSH0 DUP1 REVERT JUMPDEST SWAP1 PUSH0 MSTORE PUSH1 0x20 PUSH0 KECCAK256 ADD PUSH0 SWAP2 POP SLOAD SWAP1 PUSH2 0x100 EXP SWAP1 DIV PUSH20 0xFFFFFFFFFFFFFFFFFFFFFFFFFFFFFFFFFFFFFFFF AND DUP2 JUMP JUMPDEST PUSH1 0x60 PUSH1 0x6 DUP1 SLOAD DUP1 PUSH1 0x20 MUL PUSH1 0x20 ADD PUSH1 0x40 MLOAD SWAP1 DUP2 ADD PUSH1 0x40 MSTORE DUP1 SWAP3 SWAP2 SWAP1 DUP2 DUP2 MSTORE PUSH1 0x20 ADD DUP3 DUP1 SLOAD DUP1 ISZERO PUSH3 0x4CC JUMPI PUSH1 0x20 MUL DUP3 ADD SWAP2 SWAP1 PUSH0 MSTORE PUSH1 0x20 PUSH0 KECCAK256 SWAP1 JUMPDEST DUP2 PUSH0 SWAP1 SLOAD SWAP1 PUSH2 0x100 EXP SWAP1 DIV PUSH20 0xFFFFFFFFFFFFFFFFFFFFFFFFFFFFFFFFFFFFFFFF AND PUSH20 0xFFFFFFFFFFFFFFFFFFFFFFFFFFFFFFFFFFFFFFFF AND DUP2 MSTORE PUSH1 0x20 ADD SWAP1 PUSH1 0x1 ADD SWAP1 DUP1 DUP4 GT PUSH3 0x482 JUMPI JUMPDEST POP POP POP POP POP SWAP1 POP SWAP1 JUMP JUMPDEST PUSH0 DUP1 SLOAD PUSH3 0x4E4 SWAP1 PUSH3 0x1008 JUMP JUMPDEST DUP1 PUSH1 0x1F ADD PUSH1 0x20 DUP1 SWAP2 DIV MUL PUSH1 0x20 ADD PUSH1 0x40 MLOAD SWAP1 DUP2 ADD PUSH1 0x40 MSTORE DUP1 SWAP3 SWAP2 SWAP1 DUP2 DUP2 MSTORE PUSH1 0x20 ADD DUP3 DUP1 SLOAD PUSH3 0x512 SWAP1 PUSH3 0x1008 JUMP JUMPDEST DUP1 ISZERO PUSH3 0x561 JUMPI DUP1 PUSH1 0x1F LT PUSH3 0x537 JUMPI PUSH2 0x100 DUP1 DUP4 SLOAD DIV MUL DUP4 MSTORE SWAP2 PUSH1 0x20 ADD SWAP2 PUSH3 0x561 JUMP JUMPDEST DUP3 ADD SWAP2 SWAP1 PUSH0 MSTORE PUSH1 0x20 PUSH0 KECCAK256 SWAP1 JUMPDEST DUP2 SLOAD DUP2 MSTORE SWAP1 PUSH1 0x1 ADD SWAP1 PUSH1 0x20 ADD DUP1 DUP4 GT PUSH3 0x543 JUMPI DUP3 SWAP1 SUB PUSH1 0x1F AND DUP3 ADD SWAP2 JUMPDEST POP POP POP POP POP DUP2 JUMP JUMPDEST PUSH1 0x5 PUSH1 0x20 MSTORE DUP1 PUSH0 MSTORE PUSH1 0x40 PUSH0 KECCAK256 PUSH0 SWAP2 POP SLOAD SWAP1 PUSH2 0x100 EXP SWAP1 DIV PUSH20 0xFFFFFFFFFFFFFFFFFFFFFFFFFFFFFFFFFFFFFFFF AND DUP2 JUMP JUMPDEST PUSH1 0x2 PUSH0 SWAP1 SLOAD SWAP1 PUSH2 0x100 EXP SWAP1 DIV PUSH20 0xFFFFFFFFFFFFFFFFFFFFFFFFFFFFFFFFFFFFFFFF AND DUP2 JUMP JUMPDEST PUSH1 0x4 PUSH0 DUP3 PUSH20 0xFFFFFFFFFFFFFFFFFFFFFFFFFFFFFFFFFFFFFFFF AND PUSH20 0xFFFFFFFFFFFFFFFFFFFFFFFFFFFFFFFFFFFFFFFF AND DUP2 MSTORE PUSH1 0x20 ADD SWAP1 DUP2 MSTORE PUSH1 0x20 ADD PUSH0 KECCAK256 PUSH0 SWAP1 SLOAD SWAP1 PUSH2 0x100 EXP SWAP1 DIV PUSH1 0xFF AND ISZERO PUSH3 0x64B JUMPI PUSH1 0x40 MLOAD PUSH32 0x8C379A000000000000000000000000000000000000000000000000000000000 DUP2 MSTORE PUSH1 0x4 ADD PUSH3 0x642 SWAP1 PUSH3 0x108A JUMP JUMPDEST PUSH1 0x40 MLOAD DUP1 SWAP2 SUB SWAP1 REVERT JUMPDEST PUSH1 0x1 PUSH1 0x4 PUSH0 DUP4 PUSH20 0xFFFFFFFFFFFFFFFFFFFFFFFFFFFFFFFFFFFFFFFF AND PUSH20 0xFFFFFFFFFFFFFFFFFFFFFFFFFFFFFFFFFFFFFFFF AND DUP2 MSTORE PUSH1 0x20 ADD SWAP1 DUP2 MSTORE PUSH1 0x20 ADD PUSH0 KECCAK256 PUSH0 PUSH2 0x100 EXP DUP2 SLOAD DUP2 PUSH1 0xFF MUL NOT AND SWAP1 DUP4 ISZERO ISZERO MUL OR SWAP1 SSTORE POP PUSH1 0x6 DUP2 SWAP1 DUP1 PUSH1 0x1 DUP2 SLOAD ADD DUP1 DUP3 SSTORE DUP1 SWAP2 POP POP PUSH1 0x1 SWAP1 SUB SWAP1 PUSH0 MSTORE PUSH1 0x20 PUSH0 KECCAK256 ADD PUSH0 SWAP1 SWAP2 SWAP1 SWAP2 SWAP1 SWAP2 PUSH2 0x100 EXP DUP2 SLOAD DUP2 PUSH20 0xFFFFFFFFFFFFFFFFFFFFFFFFFFFFFFFFFFFFFFFF MUL NOT AND SWAP1 DUP4 PUSH20 0xFFFFFFFFFFFFFFFFFFFFFFFFFFFFFFFFFFFFFFFF AND MUL OR SWAP1 SSTORE POP DUP1 PUSH20 0xFFFFFFFFFFFFFFFFFFFFFFFFFFFFFFFFFFFFFFFF AND PUSH32 0xE11711CD714E06FBBBEA301A8E90822F2F2EA4808E37E3ADF06038F33C53FF27 PUSH1 0x40 MLOAD PUSH1 0x40 MLOAD DUP1 SWAP2 SUB SWAP1 LOG2 POP JUMP JUMPDEST PUSH0 PUSH1 0x2 PUSH0 SWAP1 SLOAD SWAP1 PUSH2 0x100 EXP SWAP1 DIV PUSH20 0xFFFFFFFFFFFFFFFFFFFFFFFFFFFFFFFFFFFFFFFF AND PUSH20 0xFFFFFFFFFFFFFFFFFFFFFFFFFFFFFFFFFFFFFFFF AND DUP4 PUSH20 0xFFFFFFFFFFFFFFFFFFFFFFFFFFFFFFFFFFFFFFFF AND EQ DUP1 PUSH3 0x7E9 JUMPI POP PUSH1 0x4 PUSH0 DUP5 PUSH20 0xFFFFFFFFFFFFFFFFFFFFFFFFFFFFFFFFFFFFFFFF AND PUSH20 0xFFFFFFFFFFFFFFFFFFFFFFFFFFFFFFFFFFFFFFFF AND DUP2 MSTORE PUSH1 0x20 ADD SWAP1 DUP2 MSTORE PUSH1 0x20 ADD PUSH0 KECCAK256 PUSH0 SWAP1 SLOAD SWAP1 PUSH2 0x100 EXP SWAP1 DIV PUSH1 0xFF AND JUMPDEST PUSH3 0x82B JUMPI PUSH1 0x40 MLOAD PUSH32 0x8C379A000000000000000000000000000000000000000000000000000000000 DUP2 MSTORE PUSH1 0x4 ADD PUSH3 0x822 SWAP1 PUSH3 0x111E JUMP JUMPDEST PUSH1 0x40 MLOAD DUP1 SWAP2 SUB SWAP1 REVERT JUMPDEST PUSH0 PUSH20 0xFFFFFFFFFFFFFFFFFFFFFFFFFFFFFFFFFFFFFFFF AND PUSH1 0x5 PUSH0 DUP6 PUSH20 0xFFFFFFFFFFFFFFFFFFFFFFFFFFFFFFFFFFFFFFFF AND PUSH20 0xFFFFFFFFFFFFFFFFFFFFFFFFFFFFFFFFFFFFFFFF AND DUP2 MSTORE PUSH1 0x20 ADD SWAP1 DUP2 MSTORE PUSH1 0x20 ADD PUSH0 KECCAK256 PUSH0 SWAP1 SLOAD SWAP1 PUSH2 0x100 EXP SWAP1 DIV PUSH20 0xFFFFFFFFFFFFFFFFFFFFFFFFFFFFFFFFFFFFFFFF AND PUSH20 0xFFFFFFFFFFFFFFFFFFFFFFFFFFFFFFFFFFFFFFFF AND EQ PUSH3 0x8F8 JUMPI PUSH1 0x40 MLOAD PUSH32 0x8C379A000000000000000000000000000000000000000000000000000000000 DUP2 MSTORE PUSH1 0x4 ADD PUSH3 0x8EF SWAP1 PUSH3 0x118C JUMP JUMPDEST PUSH1 0x40 MLOAD DUP1 SWAP2 SUB SWAP1 REVERT JUMPDEST PUSH0 DUP3 PUSH1 0x40 MLOAD PUSH3 0x908 SWAP1 PUSH3 0xA66 JUMP JUMPDEST PUSH3 0x914 SWAP2 SWAP1 PUSH3 0xCCA JUMP JUMPDEST PUSH1 0x40 MLOAD DUP1 SWAP2 SUB SWAP1 PUSH0 CREATE DUP1 ISZERO DUP1 ISZERO PUSH3 0x92E JUMPI RETURNDATASIZE PUSH0 DUP1 RETURNDATACOPY RETURNDATASIZE PUSH0 REVERT JUMPDEST POP SWAP1 POP PUSH1 0x3 DUP2 SWAP1 DUP1 PUSH1 0x1 DUP2 SLOAD ADD DUP1 DUP3 SSTORE DUP1 SWAP2 POP POP PUSH1 0x1 SWAP1 SUB SWAP1 PUSH0 MSTORE PUSH1 0x20 PUSH0 KECCAK256 ADD PUSH0 SWAP1 SWAP2 SWAP1 SWAP2 SWAP1 SWAP2 PUSH2 0x100 EXP DUP2 SLOAD DUP2 PUSH20 0xFFFFFFFFFFFFFFFFFFFFFFFFFFFFFFFFFFFFFFFF MUL NOT AND SWAP1 DUP4 PUSH20 0xFFFFFFFFFFFFFFFFFFFFFFFFFFFFFFFFFFFFFFFF AND MUL OR SWAP1 SSTORE POP DUP1 PUSH1 0x5 PUSH0 DUP7 PUSH20 0xFFFFFFFFFFFFFFFFFFFFFFFFFFFFFFFFFFFFFFFF AND PUSH20 0xFFFFFFFFFFFFFFFFFFFFFFFFFFFFFFFFFFFFFFFF AND DUP2 MSTORE PUSH1 0x20 ADD SWAP1 DUP2 MSTORE PUSH1 0x20 ADD PUSH0 KECCAK256 PUSH0 PUSH2 0x100 EXP DUP2 SLOAD DUP2 PUSH20 0xFFFFFFFFFFFFFFFFFFFFFFFFFFFFFFFFFFFFFFFF MUL NOT AND SWAP1 DUP4 PUSH20 0xFFFFFFFFFFFFFFFFFFFFFFFFFFFFFFFFFFFFFFFF AND MUL OR SWAP1 SSTORE POP DUP1 PUSH20 0xFFFFFFFFFFFFFFFFFFFFFFFFFFFFFFFFFFFFFFFF AND PUSH32 0x3613F8AC0CC52C4428042FE442F289FC083DF030DE5859192DCE0BFB7BC38795 DUP5 PUSH1 0x40 MLOAD PUSH3 0xA54 SWAP2 SWAP1 PUSH3 0xCCA JUMP JUMPDEST PUSH1 0x40 MLOAD DUP1 SWAP2 SUB SWAP1 LOG2 DUP1 SWAP2 POP POP SWAP3 SWAP2 POP POP JUMP JUMPDEST PUSH2 0xB49 DUP1 PUSH3 0x11AD DUP4 CODECOPY ADD SWAP1 JUMP JUMPDEST PUSH0 PUSH1 0x40 MLOAD SWAP1 POP SWAP1 JUMP JUMPDEST PUSH0 DUP1 REVERT JUMPDEST PUSH0 DUP1 REVERT JUMPDEST PUSH0 PUSH20 0xFFFFFFFFFFFFFFFFFFFFFFFFFFFFFFFFFFFFFFFF DUP3 AND SWAP1 POP SWAP2 SWAP1 POP JUMP JUMPDEST PUSH0 PUSH3 0xAB0 DUP3 PUSH3 0xA85 JUMP JUMPDEST SWAP1 POP SWAP2 SWAP1 POP JUMP JUMPDEST PUSH3 0xAC2 DUP2 PUSH3 0xAA4 JUMP JUMPDEST DUP2 EQ PUSH3 0xACD JUMPI PUSH0 DUP1 REVERT JUMPDEST POP JUMP JUMPDEST PUSH0 DUP2 CALLDATALOAD SWAP1 POP PUSH3 0xAE0 DUP2 PUSH3 0xAB7 JUMP JUMPDEST SWAP3 SWAP2 POP POP JUMP JUMPDEST PUSH0 PUSH1 0x20 DUP3 DUP5 SUB SLT ISZERO PUSH3 0xAFE JUMPI PUSH3 0xAFD PUSH3 0xA7D JUMP JUMPDEST JUMPDEST PUSH0 PUSH3 0xB0D DUP5 DUP3 DUP6 ADD PUSH3 0xAD0 JUMP JUMPDEST SWAP2 POP POP SWAP3 SWAP2 POP POP JUMP JUMPDEST PUSH0 DUP2 ISZERO ISZERO SWAP1 POP SWAP2 SWAP1 POP JUMP JUMPDEST PUSH3 0xB2C DUP2 PUSH3 0xB16 JUMP JUMPDEST DUP3 MSTORE POP POP JUMP JUMPDEST PUSH0 PUSH1 0x20 DUP3 ADD SWAP1 POP PUSH3 0xB47 PUSH0 DUP4 ADD DUP5 PUSH3 0xB21 JUMP JUMPDEST SWAP3 SWAP2 POP POP JUMP JUMPDEST PUSH0 DUP2 MLOAD SWAP1 POP SWAP2 SWAP1 POP JUMP JUMPDEST PUSH0 DUP3 DUP3 MSTORE PUSH1 0x20 DUP3 ADD SWAP1 POP SWAP3 SWAP2 POP POP JUMP JUMPDEST PUSH0 DUP2 SWAP1 POP PUSH1 0x20 DUP3 ADD SWAP1 POP SWAP2 SWAP1 POP JUMP JUMPDEST PUSH3 0xB81 DUP2 PUSH3 0xAA4 JUMP JUMPDEST DUP3 MSTORE POP POP JUMP JUMPDEST PUSH0 PUSH3 0xB94 DUP4 DUP4 PUSH3 0xB76 JUMP JUMPDEST PUSH1 0x20 DUP4 ADD SWAP1 POP SWAP3 SWAP2 POP POP JUMP JUMPDEST PUSH0 PUSH1 0x20 DUP3 ADD SWAP1 POP SWAP2 SWAP1 POP JUMP JUMPDEST PUSH0 PUSH3 0xBB8 DUP3 PUSH3 0xB4D JUMP JUMPDEST PUSH3 0xBC4 DUP2 DUP6 PUSH3 0xB57 JUMP JUMPDEST SWAP4 POP PUSH3 0xBD1 DUP4 PUSH3 0xB67 JUMP JUMPDEST DUP1 PUSH0 JUMPDEST DUP4 DUP2 LT ISZERO PUSH3 0xC07 JUMPI DUP2 MLOAD PUSH3 0xBEB DUP9 DUP3 PUSH3 0xB87 JUMP JUMPDEST SWAP8 POP PUSH3 0xBF8 DUP4 PUSH3 0xBA0 JUMP JUMPDEST SWAP3 POP POP PUSH1 0x1 DUP2 ADD SWAP1 POP PUSH3 0xBD4 JUMP JUMPDEST POP DUP6 SWAP4 POP POP POP POP SWAP3 SWAP2 POP POP JUMP JUMPDEST PUSH0 PUSH1 0x20 DUP3 ADD SWAP1 POP DUP2 DUP2 SUB PUSH0 DUP4 ADD MSTORE PUSH3 0xC2E DUP2 DUP5 PUSH3 0xBAC JUMP JUMPDEST SWAP1 POP SWAP3 SWAP2 POP POP JUMP JUMPDEST PUSH0 DUP2 MLOAD SWAP1 POP SWAP2 SWAP1 POP JUMP JUMPDEST PUSH0 DUP3 DUP3 MSTORE PUSH1 0x20 DUP3 ADD SWAP1 POP SWAP3 SWAP2 POP POP JUMP JUMPDEST PUSH0 JUMPDEST DUP4 DUP2 LT ISZERO PUSH3 0xC6F JUMPI DUP1 DUP3 ADD MLOAD DUP2 DUP5 ADD MSTORE PUSH1 0x20 DUP2 ADD SWAP1 POP PUSH3 0xC52 JUMP JUMPDEST PUSH0 DUP5 DUP5 ADD MSTORE POP POP POP POP JUMP JUMPDEST PUSH0 PUSH1 0x1F NOT PUSH1 0x1F DUP4 ADD AND SWAP1 POP SWAP2 SWAP1 POP JUMP JUMPDEST PUSH0 PUSH3 0xC96 DUP3 PUSH3 0xC36 JUMP JUMPDEST PUSH3 0xCA2 DUP2 DUP6 PUSH3 0xC40 JUMP JUMPDEST SWAP4 POP PUSH3 0xCB4 DUP2 DUP6 PUSH1 0x20 DUP7 ADD PUSH3 0xC50 JUMP JUMPDEST PUSH3 0xCBF DUP2 PUSH3 0xC7A JUMP JUMPDEST DUP5 ADD SWAP2 POP POP SWAP3 SWAP2 POP POP JUMP JUMPDEST PUSH0 PUSH1 0x20 DUP3 ADD SWAP1 POP DUP2 DUP2 SUB PUSH0 DUP4 ADD MSTORE PUSH3 0xCE4 DUP2 DUP5 PUSH3 0xC8A JUMP JUMPDEST SWAP1 POP SWAP3 SWAP2 POP POP JUMP JUMPDEST PUSH0 DUP2 SWAP1 POP SWAP2 SWAP1 POP JUMP JUMPDEST PUSH3 0xD00 DUP2 PUSH3 0xCEC JUMP JUMPDEST DUP2 EQ PUSH3 0xD0B JUMPI PUSH0 DUP1 REVERT JUMPDEST POP JUMP JUMPDEST PUSH0 DUP2 CALLDATALOAD SWAP1 POP PUSH3 0xD1E DUP2 PUSH3 0xCF5 JUMP JUMPDEST SWAP3 SWAP2 POP POP JUMP JUMPDEST PUSH0 PUSH1 0x20 DUP3 DUP5 SUB SLT ISZERO PUSH3 0xD3C JUMPI PUSH3 0xD3B PUSH3 0xA7D JUMP JUMPDEST JUMPDEST PUSH0 PUSH3 0xD4B DUP5 DUP3 DUP6 ADD PUSH3 0xD0E JUMP JUMPDEST SWAP2 POP POP SWAP3 SWAP2 POP POP JUMP JUMPDEST PUSH0 DUP2 SWAP1 POP SWAP2 SWAP1 POP JUMP JUMPDEST PUSH0 PUSH3 0xD7D PUSH3 0xD77 PUSH3 0xD71 DUP5 PUSH3 0xA85 JUMP JUMPDEST PUSH3 0xD54 JUMP JUMPDEST PUSH3 0xA85 JUMP JUMPDEST SWAP1 POP SWAP2 SWAP1 POP JUMP JUMPDEST PUSH0 PUSH3 0xD90 DUP3 PUSH3 0xD5D JUMP JUMPDEST SWAP1 POP SWAP2 SWAP1 POP JUMP JUMPDEST PUSH0 PUSH3 0xDA3 DUP3 PUSH3 0xD84 JUMP JUMPDEST SWAP1 POP SWAP2 SWAP1 POP JUMP JUMPDEST PUSH3 0xDB5 DUP2 PUSH3 0xD97 JUMP JUMPDEST DUP3 MSTORE POP POP JUMP JUMPDEST PUSH0 PUSH1 0x20 DUP3 ADD SWAP1 POP PUSH3 0xDD0 PUSH0 DUP4 ADD DUP5 PUSH3 0xDAA JUMP JUMPDEST SWAP3 SWAP2 POP POP JUMP JUMPDEST PUSH3 0xDE1 DUP2 PUSH3 0xAA4 JUMP JUMPDEST DUP3 MSTORE POP POP JUMP JUMPDEST PUSH0 PUSH1 0x20 DUP3 ADD SWAP1 POP PUSH3 0xDFC PUSH0 DUP4 ADD DUP5 PUSH3 0xDD6 JUMP JUMPDEST SWAP3 SWAP2 POP POP JUMP JUMPDEST PUSH0 DUP1 REVERT JUMPDEST PUSH0 DUP1 REVERT JUMPDEST PUSH32 0x4E487B7100000000000000000000000000000000000000000000000000000000 PUSH0 MSTORE PUSH1 0x41 PUSH1 0x4 MSTORE PUSH1 0x24 PUSH0 REVERT JUMPDEST PUSH3 0xE42 DUP3 PUSH3 0xC7A JUMP JUMPDEST DUP2 ADD DUP2 DUP2 LT PUSH8 0xFFFFFFFFFFFFFFFF DUP3 GT OR ISZERO PUSH3 0xE64 JUMPI PUSH3 0xE63 PUSH3 0xE0A JUMP JUMPDEST JUMPDEST DUP1 PUSH1 0x40 MSTORE POP POP POP JUMP JUMPDEST PUSH0 PUSH3 0xE78 PUSH3 0xA74 JUMP JUMPDEST SWAP1 POP PUSH3 0xE86 DUP3 DUP3 PUSH3 0xE37 JUMP JUMPDEST SWAP2 SWAP1 POP JUMP JUMPDEST PUSH0 PUSH8 0xFFFFFFFFFFFFFFFF DUP3 GT ISZERO PUSH3 0xEA8 JUMPI PUSH3 0xEA7 PUSH3 0xE0A JUMP JUMPDEST JUMPDEST PUSH3 0xEB3 DUP3 PUSH3 0xC7A JUMP JUMPDEST SWAP1 POP PUSH1 0x20 DUP2 ADD SWAP1 POP SWAP2 SWAP1 POP JUMP JUMPDEST DUP3 DUP2 DUP4 CALLDATACOPY PUSH0 DUP4 DUP4 ADD MSTORE POP POP POP JUMP JUMPDEST PUSH0 PUSH3 0xEE4 PUSH3 0xEDE DUP5 PUSH3 0xE8B JUMP JUMPDEST PUSH3 0xE6D JUMP JUMPDEST SWAP1 POP DUP3 DUP2 MSTORE PUSH1 0x20 DUP2 ADD DUP5 DUP5 DUP5 ADD GT ISZERO PUSH3 0xF03 JUMPI PUSH3 0xF02 PUSH3 0xE06 JUMP JUMPDEST JUMPDEST PUSH3 0xF10 DUP5 DUP3 DUP6 PUSH3 0xEC0 JUMP JUMPDEST POP SWAP4 SWAP3 POP POP POP JUMP JUMPDEST PUSH0 DUP3 PUSH1 0x1F DUP4 ADD SLT PUSH3 0xF2F JUMPI PUSH3 0xF2E PUSH3 0xE02 JUMP JUMPDEST JUMPDEST DUP2 CALLDATALOAD PUSH3 0xF41 DUP5 DUP3 PUSH1 0x20 DUP7 ADD PUSH3 0xECE JUMP JUMPDEST SWAP2 POP POP SWAP3 SWAP2 POP POP JUMP JUMPDEST PUSH0 DUP1 PUSH1 0x40 DUP4 DUP6 SUB SLT ISZERO PUSH3 0xF63 JUMPI PUSH3 0xF62 PUSH3 0xA7D JUMP JUMPDEST JUMPDEST PUSH0 PUSH3 0xF72 DUP6 DUP3 DUP7 ADD PUSH3 0xAD0 JUMP JUMPDEST SWAP3 POP POP PUSH1 0x20 DUP4 ADD CALLDATALOAD PUSH8 0xFFFFFFFFFFFFFFFF DUP2 GT ISZERO PUSH3 0xF96 JUMPI PUSH3 0xF95 PUSH3 0xA81 JUMP JUMPDEST JUMPDEST PUSH3 0xFA4 DUP6 DUP3 DUP7 ADD PUSH3 0xF18 JUMP JUMPDEST SWAP2 POP POP SWAP3 POP SWAP3 SWAP1 POP JUMP JUMPDEST PUSH32 0x4E487B7100000000000000000000000000000000000000000000000000000000 PUSH0 MSTORE PUSH1 0x32 PUSH1 0x4 MSTORE PUSH1 0x24 PUSH0 REVERT JUMPDEST PUSH32 0x4E487B7100000000000000000000000000000000000000000000000000000000 PUSH0 MSTORE PUSH1 0x22 PUSH1 0x4 MSTORE PUSH1 0x24 PUSH0 REVERT JUMPDEST PUSH0 PUSH1 0x2 DUP3 DIV SWAP1 POP PUSH1 0x1 DUP3 AND DUP1 PUSH3 0x1020 JUMPI PUSH1 0x7F DUP3 AND SWAP2 POP JUMPDEST PUSH1 0x20 DUP3 LT DUP2 SUB PUSH3 0x1036 JUMPI PUSH3 0x1035 PUSH3 0xFDB JUMP JUMPDEST JUMPDEST POP SWAP2 SWAP1 POP JUMP JUMPDEST PUSH32 0x416C726561647920726567697374657265640000000000000000000000000000 PUSH0 DUP3 ADD MSTORE POP JUMP JUMPDEST PUSH0 PUSH3 0x1072 PUSH1 0x12 DUP4 PUSH3 0xC40 JUMP JUMPDEST SWAP2 POP PUSH3 0x107F DUP3 PUSH3 0x103C JUMP JUMPDEST PUSH1 0x20 DUP3 ADD SWAP1 POP SWAP2 SWAP1 POP JUMP JUMPDEST PUSH0 PUSH1 0x20 DUP3 ADD SWAP1 POP DUP2 DUP2 SUB PUSH0 DUP4 ADD MSTORE PUSH3 0x10A3 DUP2 PUSH3 0x1064 JUMP JUMPDEST SWAP1 POP SWAP2 SWAP1 POP JUMP JUMPDEST PUSH32 0x4F6E6C79207061727469636970616E7473206F72206F7267616E697A65722063 PUSH0 DUP3 ADD MSTORE PUSH32 0x616E20637265617465207465616D730000000000000000000000000000000000 PUSH1 0x20 DUP3 ADD MSTORE POP JUMP JUMPDEST PUSH0 PUSH3 0x1106 PUSH1 0x2F DUP4 PUSH3 0xC40 JUMP JUMPDEST SWAP2 POP PUSH3 0x1113 DUP3 PUSH3 0x10AA JUMP JUMPDEST PUSH1 0x40 DUP3 ADD SWAP1 POP SWAP2 SWAP1 POP JUMP JUMPDEST PUSH0 PUSH1 0x20 DUP3 ADD SWAP1 POP DUP2 DUP2 SUB PUSH0 DUP4 ADD MSTORE PUSH3 0x1137 DUP2 PUSH3 0x10F8 JUMP JUMPDEST SWAP1 POP SWAP2 SWAP1 POP JUMP JUMPDEST PUSH32 0x416C726561647920696E2061207465616D000000000000000000000000000000 PUSH0 DUP3 ADD MSTORE POP JUMP JUMPDEST PUSH0 PUSH3 0x1174 PUSH1 0x11 DUP4 PUSH3 0xC40 JUMP JUMPDEST SWAP2 POP PUSH3 0x1181 DUP3 PUSH3 0x113E JUMP JUMPDEST PUSH1 0x20 DUP3 ADD SWAP1 POP SWAP2 SWAP1 POP JUMP JUMPDEST PUSH0 PUSH1 0x20 DUP3 ADD SWAP1 POP DUP2 DUP2 SUB PUSH0 DUP4 ADD MSTORE PUSH3 0x11A5 DUP2 PUSH3 0x1166 JUMP JUMPDEST SWAP1 POP SWAP2 SWAP1 POP JUMP INVALID PUSH1 0x80 PUSH1 0x40 MSTORE CALLVALUE DUP1 ISZERO PUSH3 0x10 JUMPI PUSH0 DUP1 REVERT JUMPDEST POP PUSH1 0x40 MLOAD PUSH3 0xB49 CODESIZE SUB DUP1 PUSH3 0xB49 DUP4 CODECOPY DUP2 DUP2 ADD PUSH1 0x40 MSTORE DUP2 ADD SWAP1 PUSH3 0x36 SWAP2 SWAP1 PUSH3 0x1D3 JUMP JUMPDEST DUP1 PUSH0 SWAP1 DUP2 PUSH3 0x46 SWAP2 SWAP1 PUSH3 0x459 JUMP JUMPDEST POP POP PUSH3 0x53D JUMP JUMPDEST PUSH0 PUSH1 0x40 MLOAD SWAP1 POP SWAP1 JUMP JUMPDEST PUSH0 DUP1 REVERT JUMPDEST PUSH0 DUP1 REVERT JUMPDEST PUSH0 DUP1 REVERT JUMPDEST PUSH0 DUP1 REVERT JUMPDEST PUSH0 PUSH1 0x1F NOT PUSH1 0x1F DUP4 ADD AND SWAP1 POP SWAP2 SWAP1 POP JUMP JUMPDEST PUSH32 0x4E487B7100000000000000000000000000000000000000000000000000000000 PUSH0 MSTORE PUSH1 0x41 PUSH1 0x4 MSTORE PUSH1 0x24 PUSH0 REVERT JUMPDEST PUSH3 0xAF DUP3 PUSH3 0x67 JUMP JUMPDEST DUP2 ADD DUP2 DUP2 LT PUSH8 0xFFFFFFFFFFFFFFFF DUP3 GT OR ISZERO PUSH3 0xD1 JUMPI PUSH3 0xD0 PUSH3 0x77 JUMP JUMPDEST JUMPDEST DUP1 PUSH1 0x40 MSTORE POP POP POP JUMP JUMPDEST PUSH0 PUSH3 0xE5 PUSH3 0x4E JUMP JUMPDEST SWAP1 POP PUSH3 0xF3 DUP3 DUP3 PUSH3 0xA4 JUMP JUMPDEST SWAP2 SWAP1 POP JUMP JUMPDEST PUSH0 PUSH8 0xFFFFFFFFFFFFFFFF DUP3 GT ISZERO PUSH3 0x115 JUMPI PUSH3 0x114 PUSH3 0x77 JUMP JUMPDEST JUMPDEST PUSH3 0x120 DUP3 PUSH3 0x67 JUMP JUMPDEST SWAP1 POP PUSH1 0x20 DUP2 ADD SWAP1 POP SWAP2 SWAP1 POP JUMP JUMPDEST PUSH0 JUMPDEST DUP4 DUP2 LT ISZERO PUSH3 0x14C JUMPI DUP1 DUP3 ADD MLOAD DUP2 DUP5 ADD MSTORE PUSH1 0x20 DUP2 ADD SWAP1 POP PUSH3 0x12F JUMP JUMPDEST PUSH0 DUP5 DUP5 ADD MSTORE POP POP POP POP JUMP JUMPDEST PUSH0 PUSH3 0x16D PUSH3 0x167 DUP5 PUSH3 0xF8 JUMP JUMPDEST PUSH3 0xDA JUMP JUMPDEST SWAP1 POP DUP3 DUP2 MSTORE PUSH1 0x20 DUP2 ADD DUP5 DUP5 DUP5 ADD GT ISZERO PUSH3 0x18C JUMPI PUSH3 0x18B PUSH3 0x63 JUMP JUMPDEST JUMPDEST PUSH3 0x199 DUP5 DUP3 DUP6 PUSH3 0x12D JUMP JUMPDEST POP SWAP4 SWAP3 POP POP POP JUMP JUMPDEST PUSH0 DUP3 PUSH1 0x1F DUP4 ADD SLT PUSH3 0x1B8 JUMPI PUSH3 0x1B7 PUSH3 0x5F JUMP JUMPDEST JUMPDEST DUP2 MLOAD PUSH3 0x1CA DUP5 DUP3 PUSH1 0x20 DUP7 ADD PUSH3 0x157 JUMP JUMPDEST SWAP2 POP POP SWAP3 SWAP2 POP POP JUMP JUMPDEST PUSH0 PUSH1 0x20 DUP3 DUP5 SUB SLT ISZERO PUSH3 0x1EB JUMPI PUSH3 0x1EA PUSH3 0x57 JUMP JUMPDEST JUMPDEST PUSH0 DUP3 ADD MLOAD PUSH8 0xFFFFFFFFFFFFFFFF DUP2 GT ISZERO PUSH3 0x20B JUMPI PUSH3 0x20A PUSH3 0x5B JUMP JUMPDEST JUMPDEST PUSH3 0x219 DUP5 DUP3 DUP6 ADD PUSH3 0x1A1 JUMP JUMPDEST SWAP2 POP POP SWAP3 SWAP2 POP POP JUMP JUMPDEST PUSH0 DUP2 MLOAD SWAP1 POP SWAP2 SWAP1 POP JUMP JUMPDEST PUSH32 0x4E487B7100000000000000000000000000000000000000000000000000000000 PUSH0 MSTORE PUSH1 0x22 PUSH1 0x4 MSTORE PUSH1 0x24 PUSH0 REVERT JUMPDEST PUSH0 PUSH1 0x2 DUP3 DIV SWAP1 POP PUSH1 0x1 DUP3 AND DUP1 PUSH3 0x271 JUMPI PUSH1 0x7F DUP3 AND SWAP2 POP JUMPDEST PUSH1 0x20 DUP3 LT DUP2 SUB PUSH3 0x287 JUMPI PUSH3 0x286 PUSH3 0x22C JUMP JUMPDEST JUMPDEST POP SWAP2 SWAP1 POP JUMP JUMPDEST PUSH0 DUP2 SWAP1 POP DUP2 PUSH0 MSTORE PUSH1 0x20 PUSH0 KECCAK256 SWAP1 POP SWAP2 SWAP1 POP JUMP JUMPDEST PUSH0 PUSH1 0x20 PUSH1 0x1F DUP4 ADD DIV SWAP1 POP SWAP2 SWAP1 POP JUMP JUMPDEST PUSH0 DUP3 DUP3 SHL SWAP1 POP SWAP3 SWAP2 POP POP JUMP JUMPDEST PUSH0 PUSH1 0x8 DUP4 MUL PUSH3 0x2EB PUSH32 0xFFFFFFFFFFFFFFFFFFFFFFFFFFFFFFFFFFFFFFFFFFFFFFFFFFFFFFFFFFFFFFFF DUP3 PUSH3 0x2AE JUMP JUMPDEST PUSH3 0x2F7 DUP7 DUP4 PUSH3 0x2AE JUMP JUMPDEST SWAP6 POP DUP1 NOT DUP5 AND SWAP4 POP DUP1 DUP7 AND DUP5 OR SWAP3 POP POP POP SWAP4 SWAP3 POP POP POP JUMP JUMPDEST PUSH0 DUP2 SWAP1 POP SWAP2 SWAP1 POP JUMP JUMPDEST PUSH0 DUP2 SWAP1 POP SWAP2 SWAP1 POP JUMP JUMPDEST PUSH0 PUSH3 0x341 PUSH3 0x33B PUSH3 0x335 DUP5 PUSH3 0x30F JUMP JUMPDEST PUSH3 0x318 JUMP JUMPDEST PUSH3 0x30F JUMP JUMPDEST SWAP1 POP SWAP2 SWAP1 POP JUMP JUMPDEST PUSH0 DUP2 SWAP1 POP SWAP2 SWAP1 POP JUMP JUMPDEST PUSH3 0x35C DUP4 PUSH3 0x321 JUMP JUMPDEST PUSH3 0x374 PUSH3 0x36B DUP3 PUSH3 0x348 JUMP JUMPDEST DUP5 DUP5 SLOAD PUSH3 0x2BA JUMP JUMPDEST DUP3 SSTORE POP POP POP POP JUMP JUMPDEST PUSH0 SWAP1 JUMP JUMPDEST PUSH3 0x38A PUSH3 0x37C JUMP JUMPDEST PUSH3 0x397 DUP2 DUP5 DUP5 PUSH3 0x351 JUMP JUMPDEST POP POP POP JUMP JUMPDEST JUMPDEST DUP2 DUP2 LT ISZERO PUSH3 0x3BE JUMPI PUSH3 0x3B2 PUSH0 DUP3 PUSH3 0x380 JUMP JUMPDEST PUSH1 0x1 DUP2 ADD SWAP1 POP PUSH3 0x39D JUMP JUMPDEST POP POP JUMP JUMPDEST PUSH1 0x1F DUP3 GT ISZERO PUSH3 0x40D JUMPI PUSH3 0x3D7 DUP2 PUSH3 0x28D JUMP JUMPDEST PUSH3 0x3E2 DUP5 PUSH3 0x29F JUMP JUMPDEST DUP2 ADD PUSH1 0x20 DUP6 LT ISZERO PUSH3 0x3F2 JUMPI DUP2 SWAP1 POP JUMPDEST PUSH3 0x40A PUSH3 0x401 DUP6 PUSH3 0x29F JUMP JUMPDEST DUP4 ADD DUP3 PUSH3 0x39C JUMP JUMPDEST POP POP JUMPDEST POP POP POP JUMP JUMPDEST PUSH0 DUP3 DUP3 SHR SWAP1 POP SWAP3 SWAP2 POP POP JUMP JUMPDEST PUSH0 PUSH3 0x42F PUSH0 NOT DUP5 PUSH1 0x8 MUL PUSH3 0x412 JUMP JUMPDEST NOT DUP1 DUP4 AND SWAP2 POP POP SWAP3 SWAP2 POP POP JUMP JUMPDEST PUSH0 PUSH3 0x449 DUP4 DUP4 PUSH3 0x41E JUMP JUMPDEST SWAP2 POP DUP3 PUSH1 0x2 MUL DUP3 OR SWAP1 POP SWAP3 SWAP2 POP POP JUMP JUMPDEST PUSH3 0x464 DUP3 PUSH3 0x222 JUMP JUMPDEST PUSH8 0xFFFFFFFFFFFFFFFF DUP2 GT ISZERO PUSH3 0x480 JUMPI PUSH3 0x47F PUSH3 0x77 JUMP JUMPDEST JUMPDEST PUSH3 0x48C DUP3 SLOAD PUSH3 0x259 JUMP JUMPDEST PUSH3 0x499 DUP3 DUP3 DUP6 PUSH3 0x3C2 JUMP JUMPDEST PUSH0 PUSH1 0x20 SWAP1 POP PUSH1 0x1F DUP4 GT PUSH1 0x1 DUP2 EQ PUSH3 0x4CF JUMPI PUSH0 DUP5 ISZERO PUSH3 0x4BA JUMPI DUP3 DUP8 ADD MLOAD SWAP1 POP JUMPDEST PUSH3 0x4C6 DUP6 DUP3 PUSH3 0x43C JUMP JUMPDEST DUP7 SSTORE POP PUSH3 0x535 JUMP JUMPDEST PUSH1 0x1F NOT DUP5 AND PUSH3 0x4DF DUP7 PUSH3 0x28D JUMP JUMPDEST PUSH0 JUMPDEST DUP3 DUP2 LT ISZERO PUSH3 0x508 JUMPI DUP5 DUP10 ADD MLOAD DUP3 SSTORE PUSH1 0x1 DUP3 ADD SWAP2 POP PUSH1 0x20 DUP6 ADD SWAP5 POP PUSH1 0x20 DUP2 ADD SWAP1 POP PUSH3 0x4E1 JUMP JUMPDEST DUP7 DUP4 LT ISZERO PUSH3 0x528 JUMPI DUP5 DUP10 ADD MLOAD PUSH3 0x524 PUSH1 0x1F DUP10 AND DUP3 PUSH3 0x41E JUMP JUMPDEST DUP4 SSTORE POP JUMPDEST PUSH1 0x1 PUSH1 0x2 DUP9 MUL ADD DUP9 SSTORE POP POP POP JUMPDEST POP POP POP POP POP POP JUMP JUMPDEST PUSH2 0x5FE DUP1 PUSH3 0x54B PUSH0 CODECOPY PUSH0 RETURN INVALID PUSH1 0x80 PUSH1 0x40 MSTORE CALLVALUE DUP1 ISZERO PUSH2 0xF JUMPI PUSH0 DUP1 REVERT JUMPDEST POP PUSH1 0x4 CALLDATASIZE LT PUSH2 0x4A JUMPI PUSH0 CALLDATALOAD PUSH1 0xE0 SHR DUP1 PUSH4 0x6FDDE03 EQ PUSH2 0x4E JUMPI DUP1 PUSH4 0x5DAF08CA EQ PUSH2 0x6C JUMPI DUP1 PUSH4 0xB6AFD2CA EQ PUSH2 0x9C JUMPI DUP1 PUSH4 0xCA6D56DC EQ PUSH2 0xBA JUMPI JUMPDEST PUSH0 DUP1 REVERT JUMPDEST PUSH2 0x56 PUSH2 0xD6 JUMP JUMPDEST PUSH1 0x40 MLOAD PUSH2 0x63 SWAP2 SWAP1 PUSH2 0x319 JUMP JUMPDEST PUSH1 0x40 MLOAD DUP1 SWAP2 SUB SWAP1 RETURN JUMPDEST PUSH2 0x86 PUSH1 0x4 DUP1 CALLDATASIZE SUB DUP2 ADD SWAP1 PUSH2 0x81 SWAP2 SWAP1 PUSH2 0x370 JUMP JUMPDEST PUSH2 0x161 JUMP JUMPDEST PUSH1 0x40 MLOAD PUSH2 0x93 SWAP2 SWAP1 PUSH2 0x415 JUMP JUMPDEST PUSH1 0x40 MLOAD DUP1 SWAP2 SUB SWAP1 RETURN JUMPDEST PUSH2 0xA4 PUSH2 0x19C JUMP JUMPDEST PUSH1 0x40 MLOAD PUSH2 0xB1 SWAP2 SWAP1 PUSH2 0x4E5 JUMP JUMPDEST PUSH1 0x40 MLOAD DUP1 SWAP2 SUB SWAP1 RETURN JUMPDEST PUSH2 0xD4 PUSH1 0x4 DUP1 CALLDATASIZE SUB DUP2 ADD SWAP1 PUSH2 0xCF SWAP2 SWAP1 PUSH2 0x540 JUMP JUMPDEST PUSH2 0x227 JUMP JUMPDEST STOP JUMPDEST PUSH0 DUP1 SLOAD PUSH2 0xE2 SWAP1 PUSH2 0x598 JUMP JUMPDEST DUP1 PUSH1 0x1F ADD PUSH1 0x20 DUP1 SWAP2 DIV MUL PUSH1 0x20 ADD PUSH1 0x40 MLOAD SWAP1 DUP2 ADD PUSH1 0x40 MSTORE DUP1 SWAP3 SWAP2 SWAP1 DUP2 DUP2 MSTORE PUSH1 0x20 ADD DUP3 DUP1 SLOAD PUSH2 0x10E SWAP1 PUSH2 0x598 JUMP JUMPDEST DUP1 ISZERO PUSH2 0x159 JUMPI DUP1 PUSH1 0x1F LT PUSH2 0x130 JUMPI PUSH2 0x100 DUP1 DUP4 SLOAD DIV MUL DUP4 MSTORE SWAP2 PUSH1 0x20 ADD SWAP2 PUSH2 0x159 JUMP JUMPDEST DUP3 ADD SWAP2 SWAP1 PUSH0 MSTORE PUSH1 0x20 PUSH0 KECCAK256 SWAP1 JUMPDEST DUP2 SLOAD DUP2 MSTORE SWAP1 PUSH1 0x1 ADD SWAP1 PUSH1 0x20 ADD DUP1 DUP4 GT PUSH2 0x13C JUMPI DUP3 SWAP1 SUB PUSH1 0x1F AND DUP3 ADD SWAP2 JUMPDEST POP POP POP POP POP DUP2 JUMP JUMPDEST PUSH1 0x1 DUP2 DUP2 SLOAD DUP2 LT PUSH2 0x170 JUMPI PUSH0 DUP1 REVERT JUMPDEST SWAP1 PUSH0 MSTORE PUSH1 0x20 PUSH0 KECCAK256 ADD PUSH0 SWAP2 POP SLOAD SWAP1 PUSH2 0x100 EXP SWAP1 DIV PUSH20 0xFFFFFFFFFFFFFFFFFFFFFFFFFFFFFFFFFFFFFFFF AND DUP2 JUMP JUMPDEST PUSH1 0x60 PUSH1 0x1 DUP1 SLOAD DUP1 PUSH1 0x20 MUL PUSH1 0x20 ADD PUSH1 0x40 MLOAD SWAP1 DUP2 ADD PUSH1 0x40 MSTORE DUP1 SWAP3 SWAP2 SWAP1 DUP2 DUP2 MSTORE PUSH1 0x20 ADD DUP3 DUP1 SLOAD DUP1 ISZERO PUSH2 0x21D JUMPI PUSH1 0x20 MUL DUP3 ADD SWAP2 SWAP1 PUSH0 MSTORE PUSH1 0x20 PUSH0 KECCAK256 SWAP1 JUMPDEST DUP2 PUSH0 SWAP1 SLOAD SWAP1 PUSH2 0x100 EXP SWAP1 DIV PUSH20 0xFFFFFFFFFFFFFFFFFFFFFFFFFFFFFFFFFFFFFFFF AND PUSH20 0xFFFFFFFFFFFFFFFFFFFFFFFFFFFFFFFFFFFFFFFF AND DUP2 MSTORE PUSH1 0x20 ADD SWAP1 PUSH1 0x1 ADD SWAP1 DUP1 DUP4 GT PUSH2 0x1D4 JUMPI JUMPDEST POP POP POP POP POP SWAP1 POP SWAP1 JUMP JUMPDEST PUSH0 DUP2 SWAP1 POP PUSH1 0x1 DUP2 SWAP1 DUP1 PUSH1 0x1 DUP2 SLOAD ADD DUP1 DUP3 SSTORE DUP1 SWAP2 POP POP PUSH1 0x1 SWAP1 SUB SWAP1 PUSH0 MSTORE PUSH1 0x20 PUSH0 KECCAK256 ADD PUSH0 SWAP1 SWAP2 SWAP1 SWAP2 SWAP1 SWAP2 PUSH2 0x100 EXP DUP2 SLOAD DUP2 PUSH20 0xFFFFFFFFFFFFFFFFFFFFFFFFFFFFFFFFFFFFFFFF MUL NOT AND SWAP1 DUP4 PUSH20 0xFFFFFFFFFFFFFFFFFFFFFFFFFFFFFFFFFFFFFFFF AND MUL OR SWAP1 SSTORE POP POP POP JUMP JUMPDEST PUSH0 DUP2 MLOAD SWAP1 POP SWAP2 SWAP1 POP JUMP JUMPDEST PUSH0 DUP3 DUP3 MSTORE PUSH1 0x20 DUP3 ADD SWAP1 POP SWAP3 SWAP2 POP POP JUMP JUMPDEST PUSH0 JUMPDEST DUP4 DUP2 LT ISZERO PUSH2 0x2C6 JUMPI DUP1 DUP3 ADD MLOAD DUP2 DUP5 ADD MSTORE PUSH1 0x20 DUP2 ADD SWAP1 POP PUSH2 0x2AB JUMP JUMPDEST PUSH0 DUP5 DUP5 ADD MSTORE POP POP POP POP JUMP JUMPDEST PUSH0 PUSH1 0x1F NOT PUSH1 0x1F DUP4 ADD AND SWAP1 POP SWAP2 SWAP1 POP JUMP JUMPDEST PUSH0 PUSH2 0x2EB DUP3 PUSH2 0x28F JUMP JUMPDEST PUSH2 0x2F5 DUP2 DUP6 PUSH2 0x299 JUMP JUMPDEST SWAP4 POP PUSH2 0x305 DUP2 DUP6 PUSH1 0x20 DUP7 ADD PUSH2 0x2A9 JUMP JUMPDEST PUSH2 0x30E DUP2 PUSH2 0x2D1 JUMP JUMPDEST DUP5 ADD SWAP2 POP POP SWAP3 SWAP2 POP POP JUMP JUMPDEST PUSH0 PUSH1 0x20 DUP3 ADD SWAP1 POP DUP2 DUP2 SUB PUSH0 DUP4 ADD MSTORE PUSH2 0x331 DUP2 DUP5 PUSH2 0x2E1 JUMP JUMPDEST SWAP1 POP SWAP3 SWAP2 POP POP JUMP JUMPDEST PUSH0 DUP1 REVERT JUMPDEST PUSH0 DUP2 SWAP1 POP SWAP2 SWAP1 POP JUMP JUMPDEST PUSH2 0x34F DUP2 PUSH2 0x33D JUMP JUMPDEST DUP2 EQ PUSH2 0x359 JUMPI PUSH0 DUP1 REVERT JUMPDEST POP JUMP JUMPDEST PUSH0 DUP2 CALLDATALOAD SWAP1 POP PUSH2 0x36A DUP2 PUSH2 0x346 JUMP JUMPDEST SWAP3 SWAP2 POP POP JUMP JUMPDEST PUSH0 PUSH1 0x20 DUP3 DUP5 SUB SLT ISZERO PUSH2 0x385 JUMPI PUSH2 0x384 PUSH2 0x339 JUMP JUMPDEST JUMPDEST PUSH0 PUSH2 0x392 DUP5 DUP3 DUP6 ADD PUSH2 0x35C JUMP JUMPDEST SWAP2 POP POP SWAP3 SWAP2 POP POP JUMP JUMPDEST PUSH0 PUSH20 0xFFFFFFFFFFFFFFFFFFFFFFFFFFFFFFFFFFFFFFFF DUP3 AND SWAP1 POP SWAP2 SWAP1 POP JUMP JUMPDEST PUSH0 DUP2 SWAP1 POP SWAP2 SWAP1 POP JUMP JUMPDEST PUSH0 PUSH2 0x3DD PUSH2 0x3D8 PUSH2 0x3D3 DUP5 PUSH2 0x39B JUMP JUMPDEST PUSH2 0x3BA JUMP JUMPDEST PUSH2 0x39B JUMP JUMPDEST SWAP1 POP SWAP2 SWAP1 POP JUMP JUMPDEST PUSH0 PUSH2 0x3EE DUP3 PUSH2 0x3C3 JUMP JUMPDEST SWAP1 POP SWAP2 SWAP1 POP JUMP JUMPDEST PUSH0 PUSH2 0x3FF DUP3 PUSH2 0x3E4 JUMP JUMPDEST SWAP1 POP SWAP2 SWAP1 POP JUMP JUMPDEST PUSH2 0x40F DUP2 PUSH2 0x3F5 JUMP JUMPDEST DUP3 MSTORE POP POP JUMP JUMPDEST PUSH0 PUSH1 0x20 DUP3 ADD SWAP1 POP PUSH2 0x428 PUSH0 DUP4 ADD DUP5 PUSH2 0x406 JUMP JUMPDEST SWAP3 SWAP2 POP POP JUMP JUMPDEST PUSH0 DUP2 MLOAD SWAP1 POP SWAP2 SWAP1 POP JUMP JUMPDEST PUSH0 DUP3 DUP3 MSTORE PUSH1 0x20 DUP3 ADD SWAP1 POP SWAP3 SWAP2 POP POP JUMP JUMPDEST PUSH0 DUP2 SWAP1 POP PUSH1 0x20 DUP3 ADD SWAP1 POP SWAP2 SWAP1 POP JUMP JUMPDEST PUSH2 0x460 DUP2 PUSH2 0x3F5 JUMP JUMPDEST DUP3 MSTORE POP POP JUMP JUMPDEST PUSH0 PUSH2 0x471 DUP4 DUP4 PUSH2 0x457 JUMP JUMPDEST PUSH1 0x20 DUP4 ADD SWAP1 POP SWAP3 SWAP2 POP POP JUMP JUMPDEST PUSH0 PUSH1 0x20 DUP3 ADD SWAP1 POP SWAP2 SWAP1 POP JUMP JUMPDEST PUSH0 PUSH2 0x493 DUP3 PUSH2 0x42E JUMP JUMPDEST PUSH2 0x49D DUP2 DUP6 PUSH2 0x438 JUMP JUMPDEST SWAP4 POP PUSH2 0x4A8 DUP4 PUSH2 0x448 JUMP JUMPDEST DUP1 PUSH0 JUMPDEST DUP4 DUP2 LT ISZERO PUSH2 0x4D8 JUMPI DUP2 MLOAD PUSH2 0x4BF DUP9 DUP3 PUSH2 0x466 JUMP JUMPDEST SWAP8 POP PUSH2 0x4CA DUP4 PUSH2 0x47D JUMP JUMPDEST SWAP3 POP POP PUSH1 0x1 DUP2 ADD SWAP1 POP PUSH2 0x4AB JUMP JUMPDEST POP DUP6 SWAP4 POP POP POP POP SWAP3 SWAP2 POP POP JUMP JUMPDEST PUSH0 PUSH1 0x20 DUP3 ADD SWAP1 POP DUP2 DUP2 SUB PUSH0 DUP4 ADD MSTORE PUSH2 0x4FD DUP2 DUP5 PUSH2 0x489 JUMP JUMPDEST SWAP1 POP SWAP3 SWAP2 POP POP JUMP JUMPDEST PUSH0 PUSH2 0x50F DUP3 PUSH2 0x39B JUMP JUMPDEST SWAP1 POP SWAP2 SWAP1 POP JUMP JUMPDEST PUSH2 0x51F DUP2 PUSH2 0x505 JUMP JUMPDEST DUP2 EQ PUSH2 0x529 JUMPI PUSH0 DUP1 REVERT JUMPDEST POP JUMP JUMPDEST PUSH0 DUP2 CALLDATALOAD SWAP1 POP PUSH2 0x53A DUP2 PUSH2 0x516 JUMP JUMPDEST SWAP3 SWAP2 POP POP JUMP JUMPDEST PUSH0 PUSH1 0x20 DUP3 DUP5 SUB SLT ISZERO PUSH2 0x555 JUMPI PUSH2 0x554 PUSH2 0x339 JUMP JUMPDEST JUMPDEST PUSH0 PUSH2 0x562 DUP5 DUP3 DUP6 ADD PUSH2 0x52C JUMP JUMPDEST SWAP2 POP POP SWAP3 SWAP2 POP POP JUMP JUMPDEST PUSH32 0x4E487B7100000000000000000000000000000000000000000000000000000000 PUSH0 MSTORE PUSH1 0x22 PUSH1 0x4 MSTORE PUSH1 0x24 PUSH0 REVERT JUMPDEST PUSH0 PUSH1 0x2 DUP3 DIV SWAP1 POP PUSH1 0x1 DUP3 AND DUP1 PUSH2 0x5AF JUMPI PUSH1 0x7F DUP3 AND SWAP2 POP JUMPDEST PUSH1 0x20 DUP3 LT DUP2 SUB PUSH2 0x5C2 JUMPI PUSH2 0x5C1 PUSH2 0x56B JUMP JUMPDEST JUMPDEST POP SWAP2 SWAP1 POP JUMP INVALID LOG2 PUSH5 0x6970667358 0x22 SLT KECCAK256 0x2B 0xB1 PUSH8 0x9735FAD801588FBD PUSH6 0xC68501F8AEDC BASEFEE 0xBF 0xA9 PUSH14 0xBF67DDD72248FC97C5F964736F6C PUSH4 0x43000818 STOP CALLER LOG2 PUSH5 0x6970667358 0x22 SLT KECCAK256 PUSH18 0x3E9A2245DD90C8CF48211F68B905B2A1F6BE PUSH15 0xE1F9CCF4865EA41D1D99BBD764736F PUSH13 0x63430008180033A26469706673 PC 0x22 SLT KECCAK256 SMOD 0xB0 0xB0 BALANCE 0xB0 CALLDATACOPY PUSH4 0x5D03DA2A BASEFEE 0xE6 0x4C 0xB8 POP 0xD3 0xDB EXTCODECOPY EXP JUMPDEST GT 0xBE 0x27 PUSH19 0xF54E956374372564736F6C6343000818003300 "
		},
		"gasEstimates": {
			"creation": {
				"codeDepositCost": "3251200",
				"executionCost": "3601",
				"totalCost": "3254801"
			},
			"external": {
				"addParticipantToHackathon(address)": "infinite",
				"addSkillsToParticipant(string[])": "infinite",
				"createHackathon(string,string)": "infinite",
				"getHackathonInfo(address)": "infinite",
				"getParticipantInfo(address)": "infinite",
				"listHackathons()": "infinite"
			}
		},
		"methodIdentifiers": {
			"addParticipantToHackathon(address)": "6f8d757d",
			"addSkillsToParticipant(string[])": "80f6ce08",
			"createHackathon(string,string)": "97348b34",
			"getHackathonInfo(address)": "8f96910c",
			"getParticipantInfo(address)": "71bdce55",
			"listHackathons()": "ae3a302b"
		}
	},
	"abi": [
		{
			"anonymous": false,
			"inputs": [
				{
					"indexed": true,
					"internalType": "address",
					"name": "hackathonAddress",
					"type": "address"
				},
				{
					"indexed": false,
					"internalType": "string",
					"name": "title",
					"type": "string"
				},
				{
					"indexed": false,
					"internalType": "string",
					"name": "theme",
					"type": "string"
				}
			],
			"name": "HackathonCreated",
			"type": "event"
		},
		{
			"anonymous": false,
			"inputs": [
				{
					"indexed": true,
					"internalType": "address",
					"name": "hackathonAddress",
					"type": "address"
				},
				{
					"indexed": false,
					"internalType": "address",
					"name": "participant",
					"type": "address"
				}
			],
			"name": "ParticipantRegistered",
			"type": "event"
		},
		{
			"anonymous": false,
			"inputs": [
				{
					"indexed": true,
					"internalType": "address",
					"name": "hackathonAddress",
					"type": "address"
				},
				{
					"indexed": false,
					"internalType": "address",
					"name": "teamAddress",
					"type": "address"
				},
				{
					"indexed": false,
					"internalType": "string",
					"name": "teamName",
					"type": "string"
				}
			],
			"name": "TeamAdded",
			"type": "event"
		},
		{
			"inputs": [
				{
					"internalType": "address",
					"name": "_hackathonAddress",
					"type": "address"
				}
			],
			"name": "addParticipantToHackathon",
			"outputs": [],
			"stateMutability": "nonpayable",
			"type": "function"
		},
		{
			"inputs": [
				{
					"internalType": "string[]",
					"name": "_skills",
					"type": "string[]"
				}
			],
			"name": "addSkillsToParticipant",
			"outputs": [],
			"stateMutability": "nonpayable",
			"type": "function"
		},
		{
			"inputs": [
				{
					"internalType": "string",
					"name": "_title",
					"type": "string"
				},
				{
					"internalType": "string",
					"name": "_theme",
					"type": "string"
				}
			],
			"name": "createHackathon",
			"outputs": [],
			"stateMutability": "nonpayable",
			"type": "function"
		},
		{
			"inputs": [
				{
					"internalType": "address",
					"name": "_hackathonAddress",
					"type": "address"
				}
			],
			"name": "getHackathonInfo",
			"outputs": [
				{
					"internalType": "address",
					"name": "contractAddress",
					"type": "address"
				},
				{
					"internalType": "string",
					"name": "title",
					"type": "string"
				},
				{
					"internalType": "string",
					"name": "theme",
					"type": "string"
				},
				{
					"internalType": "address[]",
					"name": "participants",
					"type": "address[]"
				},
				{
					"internalType": "address[]",
					"name": "teams",
					"type": "address[]"
				}
			],
			"stateMutability": "view",
			"type": "function"
		},
		{
			"inputs": [
				{
					"internalType": "address",
					"name": "_participant",
					"type": "address"
				}
			],
			"name": "getParticipantInfo",
			"outputs": [
				{
					"internalType": "address",
					"name": "participantAddress",
					"type": "address"
				},
				{
					"internalType": "string[]",
					"name": "skills",
					"type": "string[]"
				}
			],
			"stateMutability": "view",
			"type": "function"
		},
		{
			"inputs": [],
			"name": "listHackathons",
			"outputs": [
				{
					"components": [
						{
							"internalType": "address",
							"name": "contractAddress",
							"type": "address"
						},
						{
							"internalType": "string",
							"name": "title",
							"type": "string"
						},
						{
							"internalType": "string",
							"name": "theme",
							"type": "string"
						},
						{
							"internalType": "address[]",
							"name": "participants",
							"type": "address[]"
						},
						{
							"internalType": "address[]",
							"name": "teams",
							"type": "address[]"
						}
					],
					"internalType": "struct Manager.HackathonDetails[]",
					"name": "",
					"type": "tuple[]"
				}
			],
			"stateMutability": "view",
			"type": "function"
		}
	]
}